{
  "contractName": "CardsMarket",
  "abi": [
    {
      "inputs": [],
      "stateMutability": "nonpayable",
      "type": "constructor"
    },
    {
      "anonymous": false,
      "inputs": [
        {
          "indexed": true,
          "internalType": "address",
          "name": "owner",
          "type": "address"
        },
        {
          "indexed": true,
          "internalType": "address",
          "name": "approved",
          "type": "address"
        },
        {
          "indexed": true,
          "internalType": "uint256",
          "name": "tokenId",
          "type": "uint256"
        }
      ],
      "name": "Approval",
      "type": "event"
    },
    {
      "anonymous": false,
      "inputs": [
        {
          "indexed": true,
          "internalType": "address",
          "name": "owner",
          "type": "address"
        },
        {
          "indexed": true,
          "internalType": "address",
          "name": "operator",
          "type": "address"
        },
        {
          "indexed": false,
          "internalType": "bool",
          "name": "approved",
          "type": "bool"
        }
      ],
      "name": "ApprovalForAll",
      "type": "event"
    },
    {
      "anonymous": false,
      "inputs": [
        {
          "indexed": true,
          "internalType": "address",
          "name": "previousOwner",
          "type": "address"
        },
        {
          "indexed": true,
          "internalType": "address",
          "name": "newOwner",
          "type": "address"
        }
      ],
      "name": "OwnershipTransferred",
      "type": "event"
    },
    {
      "anonymous": false,
      "inputs": [
        {
          "indexed": true,
          "internalType": "address",
          "name": "from",
          "type": "address"
        },
        {
          "indexed": true,
          "internalType": "address",
          "name": "to",
          "type": "address"
        },
        {
          "indexed": true,
          "internalType": "uint256",
          "name": "tokenId",
          "type": "uint256"
        }
      ],
      "name": "Transfer",
      "type": "event"
    },
    {
      "inputs": [
        {
          "internalType": "uint256",
          "name": "",
          "type": "uint256"
        }
      ],
      "name": "AllInstanceBuyer",
      "outputs": [
        {
          "internalType": "address",
          "name": "Buyer_address",
          "type": "address"
        },
        {
          "internalType": "uint256",
          "name": "Card_mapping_key",
          "type": "uint256"
        },
        {
          "internalType": "uint256",
          "name": "offerPrize",
          "type": "uint256"
        }
      ],
      "stateMutability": "view",
      "type": "function",
      "constant": true
    },
    {
      "inputs": [
        {
          "internalType": "uint256",
          "name": "",
          "type": "uint256"
        }
      ],
      "name": "AllInstanceOwner",
      "outputs": [
        {
          "internalType": "address",
          "name": "Owner_address",
          "type": "address"
        },
        {
          "internalType": "uint256",
          "name": "Card_mapping_key",
          "type": "uint256"
        },
        {
          "internalType": "uint256",
          "name": "AskingPrice",
          "type": "uint256"
        },
        {
          "internalType": "string",
          "name": "Description",
          "type": "string"
        }
      ],
      "stateMutability": "view",
      "type": "function",
      "constant": true
    },
    {
      "inputs": [
        {
          "internalType": "uint256",
          "name": "",
          "type": "uint256"
        }
      ],
      "name": "All_Cards",
      "outputs": [
        {
          "internalType": "string",
          "name": "name",
          "type": "string"
        },
        {
          "internalType": "int256",
          "name": "aggressivity",
          "type": "int256"
        },
        {
          "internalType": "uint256",
          "name": "sort",
          "type": "uint256"
        },
        {
          "internalType": "string",
          "name": "description",
          "type": "string"
        },
        {
          "internalType": "uint256",
          "name": "Object_of_action",
          "type": "uint256"
        },
        {
          "internalType": "int256",
          "name": "aggressivity_action",
          "type": "int256"
        },
        {
          "internalType": "uint256",
          "name": "tokenid",
          "type": "uint256"
        }
      ],
      "stateMutability": "view",
      "type": "function",
      "constant": true
    },
    {
      "inputs": [],
      "name": "ERC_777",
      "outputs": [
        {
          "internalType": "contract ERC777Token",
          "name": "",
          "type": "address"
        }
      ],
      "stateMutability": "view",
      "type": "function",
      "constant": true
    },
    {
      "inputs": [
        {
          "internalType": "uint256",
          "name": "",
          "type": "uint256"
        }
      ],
      "name": "SaleCards",
      "outputs": [
        {
          "internalType": "uint256",
          "name": "",
          "type": "uint256"
        }
      ],
      "stateMutability": "view",
      "type": "function",
      "constant": true
    },
    {
      "inputs": [
        {
          "internalType": "address",
          "name": "to",
          "type": "address"
        },
        {
          "internalType": "uint256",
          "name": "tokenId",
          "type": "uint256"
        }
      ],
      "name": "approve",
      "outputs": [],
      "stateMutability": "nonpayable",
      "type": "function"
    },
    {
      "inputs": [
        {
          "internalType": "address",
          "name": "owner",
          "type": "address"
        }
      ],
      "name": "balanceOf",
      "outputs": [
        {
          "internalType": "uint256",
          "name": "",
          "type": "uint256"
        }
      ],
      "stateMutability": "view",
      "type": "function",
      "constant": true
    },
    {
      "inputs": [],
      "name": "baseURI",
      "outputs": [
        {
          "internalType": "string",
          "name": "",
          "type": "string"
        }
      ],
      "stateMutability": "view",
      "type": "function",
      "constant": true
    },
    {
      "inputs": [
        {
          "internalType": "uint256",
          "name": "",
          "type": "uint256"
        }
      ],
      "name": "card_aggressivity",
      "outputs": [
        {
          "internalType": "int256",
          "name": "",
          "type": "int256"
        }
      ],
      "stateMutability": "view",
      "type": "function",
      "constant": true
    },
    {
      "inputs": [
        {
          "internalType": "uint256",
          "name": "",
          "type": "uint256"
        }
      ],
      "name": "card_aggressivity_action",
      "outputs": [
        {
          "internalType": "int256",
          "name": "",
          "type": "int256"
        }
      ],
      "stateMutability": "view",
      "type": "function",
      "constant": true
    },
    {
      "inputs": [
        {
          "internalType": "uint256",
          "name": "",
          "type": "uint256"
        }
      ],
      "name": "card_description",
      "outputs": [
        {
          "internalType": "string",
          "name": "",
          "type": "string"
        }
      ],
      "stateMutability": "view",
      "type": "function",
      "constant": true
    },
    {
      "inputs": [
        {
          "internalType": "uint256",
          "name": "",
          "type": "uint256"
        }
      ],
      "name": "card_names",
      "outputs": [
        {
          "internalType": "string",
          "name": "",
          "type": "string"
        }
      ],
      "stateMutability": "view",
      "type": "function",
      "constant": true
    },
    {
      "inputs": [
        {
          "internalType": "uint256",
          "name": "tokenId",
          "type": "uint256"
        }
      ],
      "name": "getApproved",
      "outputs": [
        {
          "internalType": "address",
          "name": "",
          "type": "address"
        }
      ],
      "stateMutability": "view",
      "type": "function",
      "constant": true
    },
    {
      "inputs": [
        {
          "internalType": "address",
          "name": "owner",
          "type": "address"
        },
        {
          "internalType": "address",
          "name": "operator",
          "type": "address"
        }
      ],
      "name": "isApprovedForAll",
      "outputs": [
        {
          "internalType": "bool",
          "name": "",
          "type": "bool"
        }
      ],
      "stateMutability": "view",
      "type": "function",
      "constant": true
    },
    {
      "inputs": [
        {
          "internalType": "uint256",
          "name": "",
          "type": "uint256"
        }
      ],
      "name": "map_cards",
      "outputs": [
        {
          "internalType": "string",
          "name": "name",
          "type": "string"
        },
        {
          "internalType": "int256",
          "name": "aggressivity",
          "type": "int256"
        },
        {
          "internalType": "uint256",
          "name": "sort",
          "type": "uint256"
        },
        {
          "internalType": "string",
          "name": "description",
          "type": "string"
        },
        {
          "internalType": "uint256",
          "name": "Object_of_action",
          "type": "uint256"
        },
        {
          "internalType": "int256",
          "name": "aggressivity_action",
          "type": "int256"
        },
        {
          "internalType": "uint256",
          "name": "tokenid",
          "type": "uint256"
        }
      ],
      "stateMutability": "view",
      "type": "function",
      "constant": true
    },
    {
      "inputs": [],
      "name": "name",
      "outputs": [
        {
          "internalType": "string",
          "name": "",
          "type": "string"
        }
      ],
      "stateMutability": "view",
      "type": "function",
      "constant": true
    },
    {
      "inputs": [],
      "name": "owner",
      "outputs": [
        {
          "internalType": "address",
          "name": "",
          "type": "address"
        }
      ],
      "stateMutability": "view",
      "type": "function",
      "constant": true
    },
    {
      "inputs": [
        {
          "internalType": "uint256",
          "name": "tokenId",
          "type": "uint256"
        }
      ],
      "name": "ownerOf",
      "outputs": [
        {
          "internalType": "address",
          "name": "",
          "type": "address"
        }
      ],
      "stateMutability": "view",
      "type": "function",
      "constant": true
    },
    {
      "inputs": [],
      "name": "renounceOwnership",
      "outputs": [],
      "stateMutability": "nonpayable",
      "type": "function"
    },
    {
      "inputs": [
        {
          "internalType": "address",
          "name": "from",
          "type": "address"
        },
        {
          "internalType": "address",
          "name": "to",
          "type": "address"
        },
        {
          "internalType": "uint256",
          "name": "tokenId",
          "type": "uint256"
        }
      ],
      "name": "safeTransferFrom",
      "outputs": [],
      "stateMutability": "nonpayable",
      "type": "function"
    },
    {
      "inputs": [
        {
          "internalType": "address",
          "name": "from",
          "type": "address"
        },
        {
          "internalType": "address",
          "name": "to",
          "type": "address"
        },
        {
          "internalType": "uint256",
          "name": "tokenId",
          "type": "uint256"
        },
        {
          "internalType": "bytes",
          "name": "_data",
          "type": "bytes"
        }
      ],
      "name": "safeTransferFrom",
      "outputs": [],
      "stateMutability": "nonpayable",
      "type": "function"
    },
    {
      "inputs": [
        {
          "internalType": "address",
          "name": "operator",
          "type": "address"
        },
        {
          "internalType": "bool",
          "name": "approved",
          "type": "bool"
        }
      ],
      "name": "setApprovalForAll",
      "outputs": [],
      "stateMutability": "nonpayable",
      "type": "function"
    },
    {
      "inputs": [
        {
          "internalType": "bytes4",
          "name": "interfaceId",
          "type": "bytes4"
        }
      ],
      "name": "supportsInterface",
      "outputs": [
        {
          "internalType": "bool",
          "name": "",
          "type": "bool"
        }
      ],
      "stateMutability": "view",
      "type": "function",
      "constant": true
    },
    {
      "inputs": [],
      "name": "symbol",
      "outputs": [
        {
          "internalType": "string",
          "name": "",
          "type": "string"
        }
      ],
      "stateMutability": "view",
      "type": "function",
      "constant": true
    },
    {
      "inputs": [
        {
          "internalType": "uint256",
          "name": "index",
          "type": "uint256"
        }
      ],
      "name": "tokenByIndex",
      "outputs": [
        {
          "internalType": "uint256",
          "name": "",
          "type": "uint256"
        }
      ],
      "stateMutability": "view",
      "type": "function",
      "constant": true
    },
    {
      "inputs": [
        {
          "internalType": "address",
          "name": "owner",
          "type": "address"
        },
        {
          "internalType": "uint256",
          "name": "index",
          "type": "uint256"
        }
      ],
      "name": "tokenOfOwnerByIndex",
      "outputs": [
        {
          "internalType": "uint256",
          "name": "",
          "type": "uint256"
        }
      ],
      "stateMutability": "view",
      "type": "function",
      "constant": true
    },
    {
      "inputs": [
        {
          "internalType": "uint256",
          "name": "tokenId",
          "type": "uint256"
        }
      ],
      "name": "tokenURI",
      "outputs": [
        {
          "internalType": "string",
          "name": "",
          "type": "string"
        }
      ],
      "stateMutability": "view",
      "type": "function",
      "constant": true
    },
    {
      "inputs": [],
      "name": "totalSupply",
      "outputs": [
        {
          "internalType": "uint256",
          "name": "",
          "type": "uint256"
        }
      ],
      "stateMutability": "view",
      "type": "function",
      "constant": true
    },
    {
      "inputs": [
        {
          "internalType": "address",
          "name": "from",
          "type": "address"
        },
        {
          "internalType": "address",
          "name": "to",
          "type": "address"
        },
        {
          "internalType": "uint256",
          "name": "tokenId",
          "type": "uint256"
        }
      ],
      "name": "transferFrom",
      "outputs": [],
      "stateMutability": "nonpayable",
      "type": "function"
    },
    {
      "inputs": [
        {
          "internalType": "address",
          "name": "newOwner",
          "type": "address"
        }
      ],
      "name": "transferOwnership",
      "outputs": [],
      "stateMutability": "nonpayable",
      "type": "function"
    },
    {
      "inputs": [
        {
          "internalType": "address",
          "name": "address_ERC777Token",
          "type": "address"
        }
      ],
      "name": "Link_ERC777Token",
      "outputs": [],
      "stateMutability": "nonpayable",
      "type": "function"
    },
    {
      "inputs": [
        {
          "internalType": "uint256",
          "name": "card_symbol",
          "type": "uint256"
        }
      ],
      "name": "Create_The_Card",
      "outputs": [],
      "stateMutability": "nonpayable",
      "type": "function"
    },
    {
      "inputs": [
        {
          "internalType": "uint256",
          "name": "card_symbol",
          "type": "uint256"
        },
        {
          "internalType": "address",
          "name": "TheYou",
          "type": "address"
        }
      ],
      "name": "Create_The_Card_ForYou",
      "outputs": [],
      "stateMutability": "nonpayable",
      "type": "function"
    },
    {
      "inputs": [
        {
          "internalType": "uint256",
          "name": "Card_mapping_key",
          "type": "uint256"
        },
        {
          "internalType": "string",
          "name": "description",
          "type": "string"
        },
        {
          "internalType": "uint256",
          "name": "price",
          "type": "uint256"
        }
      ],
      "name": "CreateDeal",
      "outputs": [
        {
          "internalType": "uint256",
          "name": "",
          "type": "uint256"
        }
      ],
      "stateMutability": "nonpayable",
      "type": "function"
    },
    {
      "inputs": [
        {
          "internalType": "uint256",
          "name": "Card_mapping_key",
          "type": "uint256"
        },
        {
          "internalType": "uint256",
          "name": "offerPrice",
          "type": "uint256"
        }
      ],
      "name": "MakeOffer",
      "outputs": [
        {
          "internalType": "uint256",
          "name": "",
          "type": "uint256"
        }
      ],
      "stateMutability": "nonpayable",
      "type": "function"
    },
    {
      "inputs": [
        {
          "internalType": "uint256",
          "name": "Card_mapping_key",
          "type": "uint256"
        }
      ],
      "name": "Reject",
      "outputs": [],
      "stateMutability": "nonpayable",
      "type": "function"
    },
    {
      "inputs": [
        {
          "internalType": "uint256",
          "name": "Card_mapping_key",
          "type": "uint256"
        }
      ],
      "name": "CancelDeal",
      "outputs": [],
      "stateMutability": "nonpayable",
      "type": "function"
    },
    {
      "inputs": [
        {
          "internalType": "uint256",
          "name": "Card_mapping_key",
          "type": "uint256"
        }
      ],
      "name": "AcceptOffer",
      "outputs": [
        {
          "internalType": "uint256",
          "name": "",
          "type": "uint256"
        }
      ],
      "stateMutability": "nonpayable",
      "type": "function"
    },
    {
      "inputs": [
        {
          "internalType": "uint256",
          "name": "Card_mapping_key",
          "type": "uint256"
        }
      ],
      "name": "getGoodAddresses",
      "outputs": [
        {
          "internalType": "address",
          "name": "owner",
          "type": "address"
        },
        {
          "internalType": "address",
          "name": "buyer",
          "type": "address"
        },
        {
          "internalType": "uint256",
          "name": "askprice",
          "type": "uint256"
        }
      ],
      "stateMutability": "view",
      "type": "function",
      "constant": true
    },
    {
      "inputs": [
        {
          "internalType": "address",
          "name": "_owner",
          "type": "address"
        }
      ],
      "name": "getOwnedTokens",
      "outputs": [
        {
          "internalType": "uint256[]",
          "name": "",
          "type": "uint256[]"
        }
      ],
      "stateMutability": "view",
      "type": "function",
      "constant": true
    },
    {
      "inputs": [],
      "name": "getNumOfSaleCards",
      "outputs": [
        {
          "internalType": "uint256",
          "name": "",
          "type": "uint256"
        }
      ],
      "stateMutability": "view",
      "type": "function",
      "constant": true
    },
    {
      "inputs": [
        {
          "internalType": "uint256",
          "name": "symbolid",
          "type": "uint256"
        }
      ],
      "name": "getthatSalecard",
      "outputs": [
        {
          "internalType": "uint256",
          "name": "",
          "type": "uint256"
        }
      ],
      "stateMutability": "view",
      "type": "function",
      "constant": true
    },
    {
      "inputs": [
        {
          "internalType": "uint256",
          "name": "symbolid",
          "type": "uint256"
        }
      ],
      "name": "ifthiscardOnSaling",
      "outputs": [
        {
          "internalType": "bool",
          "name": "",
          "type": "bool"
        }
      ],
      "stateMutability": "view",
      "type": "function",
      "constant": true
    },
    {
      "inputs": [
        {
          "internalType": "uint256",
          "name": "symbolid",
          "type": "uint256"
        }
      ],
      "name": "ifthiscardBeOffered",
      "outputs": [
        {
          "internalType": "bool",
          "name": "",
          "type": "bool"
        }
      ],
      "stateMutability": "view",
      "type": "function",
      "constant": true
    },
    {
      "inputs": [
        {
          "internalType": "uint256",
          "name": "tokenId",
          "type": "uint256"
        }
      ],
      "name": "getTokenProperty",
      "outputs": [
        {
          "internalType": "int256",
          "name": "aggressivity",
          "type": "int256"
        },
        {
          "internalType": "uint256",
          "name": "Object_of_action",
          "type": "uint256"
        },
        {
          "internalType": "int256",
          "name": "aggressivity_action",
          "type": "int256"
        },
        {
          "internalType": "uint256",
          "name": "sort",
          "type": "uint256"
        }
      ],
      "stateMutability": "view",
      "type": "function",
      "constant": true
    },
    {
      "inputs": [
        {
          "internalType": "uint256",
          "name": "tokenId",
          "type": "uint256"
        }
      ],
      "name": "getSalingTokenProperty",
      "outputs": [
        {
          "internalType": "int256",
          "name": "aggressivity",
          "type": "int256"
        },
        {
          "internalType": "uint256",
          "name": "Object_of_action",
          "type": "uint256"
        },
        {
          "internalType": "int256",
          "name": "aggressivity_action",
          "type": "int256"
        },
        {
          "internalType": "uint256",
          "name": "sort",
          "type": "uint256"
        },
        {
          "internalType": "string",
          "name": "Description",
          "type": "string"
        },
        {
          "internalType": "uint256",
          "name": "AskingPrice",
          "type": "uint256"
        },
        {
          "internalType": "address",
          "name": "Owner_address",
          "type": "address"
        }
      ],
      "stateMutability": "view",
      "type": "function",
      "constant": true
    }
  ],
  "bytecode": "0x60806040526040518061030001604052806040518060400160405280600981526020017fe9bb91e6898be5859a000000000000000000000000000000000000000000000081525081526020016040518060400160405280600981526020017fe697a0e4babae69cba000000000000000000000000000000000000000000000081525081526020016040518060400160405280600f81526020017fe58a9ee585ace5aea4e8818ce59198000000000000000000000000000000000081525081526020016040518060400160405280600681526020017fe99da2e585b7000000000000000000000000000000000000000000000000000081525081526020016040518060400160405280600681526020017fe69599e68e88000000000000000000000000000000000000000000000000000081525081526020016040518060400160405280600681526020017fe7aba5e5b7a5000000000000000000000000000000000000000000000000000081525081526020016040518060400160405280600681526020017fe59586e4baba000000000000000000000000000000000000000000000000000081525081526020016040518060400160405280600981526020017fe588bae99d92e7bb84000000000000000000000000000000000000000000000081525081526020016040518060400160405280600c81526020017fe6b289e6809de5b091e5a5b3000000000000000000000000000000000000000081525081526020016040518060400160405280600981526020017fe5bc95e8b7afe4baba000000000000000000000000000000000000000000000081525081526020016040518060400160405280600681526020017fe7839fe9acbc000000000000000000000000000000000000000000000000000081525081526020016040518060400160405280600681526020017fe5a5b8e59586000000000000000000000000000000000000000000000000000081525081526020016040518060400160405280600681526020017fe5b7a5e5a4b4000000000000000000000000000000000000000000000000000081525081526020016040518060400160405280600f81526020017fe58f9be58f98e689a7e6b395e88085000000000000000000000000000000000081525081526020016040518060400160405280600981526020017fe8bfb7e5a4b1e88085000000000000000000000000000000000000000000000081525081526020016040518060400160405280600681526020017fe99b8fe9b9b0000000000000000000000000000000000000000000000000000081525081526020016040518060400160405280600c81526020017fe585ace788b5e5a4abe4baba000000000000000000000000000000000000000081525081526020016040518060400160405280600681526020017fe98592e9acbc000000000000000000000000000000000000000000000000000081525081526020016040518060400160405280600981526020017fe5a49ce8a786e88085000000000000000000000000000000000000000000000081525081526020016040518060400160405280600681526020017fe8afa1e99da2000000000000000000000000000000000000000000000000000081525081526020016040518060400160405280600681526020017fe9b8a6e99b80000000000000000000000000000000000000000000000000000081525081526020016040518060400160405280600681526020017fe68bbce59bbe000000000000000000000000000000000000000000000000000081525081526020016040518060400160405280600681526020017fe9878de68bb3000000000000000000000000000000000000000000000000000081525081526020016040518060400160405280600c81526020017fe78ca9e7baa2e78c8ee4baba0000000000000000000000000000000000000000815250815250600b906018620005a892919062000f5a565b50604051806103000160405280600660ff168152602001600360ff168152602001600460ff168152602001600560ff168152602001600560ff168152602001600460ff168152602001600460ff168152602001600360ff168152602001600660ff168152602001600860ff168152602001600660ff168152602001600560ff168152602001600460ff168152602001600660ff168152602001600160ff168152602001600360ff168152602001600560ff168152602001600660ff168152602001600860ff168152602001600560ff168152602001600460ff168152602001600460ff168152602001600560ff168152602001600660ff168152506023906018620006b592919062000fb4565b50604051806103000160405280600060ff168152602001600060ff168152602001600060ff168152602001600260ff168152602001600060ff168152602001600260ff168152602001600060ff168152602001600060ff168152602001600060ff168152602001600060ff168152602001600060ff168152602001600360ff168152602001600060ff168152602001600060ff168152602001600260ff168152602001600060ff168152602001600060ff168152602001600060ff168152602001600060ff168152602001600260ff168152602001600060ff168152602001600060ff168152602001600060ff168152602001600060ff16815250603b906018620007c292919062000fb4565b50604051806103000160405280600060ff168152602001600060ff168152602001600060ff168152602001600160ff168152602001600060ff168152602001600160ff168152602001600060ff168152602001600060ff168152602001600060ff168152602001600060ff168152602001600060ff168152602001600160ff168152602001600060ff168152602001600060ff168152602001600060ff168152602001600060ff168152602001600060ff168152602001600060ff168152602001600060ff168152602001600060ff168152602001600060ff168152602001600060ff168152602001600060ff168152602001600060ff168152506053906018620008cf92919062000ffe565b5060405180610300016040528060405180606001604052806021815260200162006efe60219139815260200160405180606001604052806024815260200162006d696024913981526020016040518060400160405280601e81526020017fe5b0bde8818ce5b0bde8b4a3efbc8ce998b2e5bea1e58a9be68f90e58d87000081525081526020016040518060400160405280601881526020017fe997b4e8b08defbc8ce5878fe5afb9e696b9e998b2e5bea1000000000000000081525081526020016040518060400160405280601b81526020017fe7a094e7a9b6e7a791e68a80efbc8ce998b2e5bea1e68f90e58d87000000000081525081526020016040518060600160405280603f815260200162006dba603f913981526020016040518060400160405280601b81526020017fe99480e8b7afe68f90e58d87efbc8ce5a29ee58aa0e998b2e5bea1000000000081525081526020016040518060400160405280601e81526020017fe59cb0e5a4b4e89b87e7bb84e7bb87efbc8ce5a29ee58aa0e694bbe587bb000081525081526020016040518060600160405280602a815260200162006d15602a913981526020016040518060600160405280603c815260200162006e4a603c913981526020016040518060600160405280602a815260200162006e86602a9139815260200160405180606001604052806030815260200162006e1a60309139815260200160405180606001604052806021815260200162006df96021913981526020016040518060600160405280602d815260200162006d8d602d9139815260200160405180606001604052806021815260200162006cf460219139815260200160405180606001604052806024815260200162006eb06024913981526020016040518060400160405280601b81526020017fe9bb91e694bfe59088e4bd9cefbc8ce68f90e9ab98e998b2e5bea10000000000815250815260200160405180606001604052806024815260200162006cd06024913981526020016040518060600160405280602a815260200162006ed4602a9139815260200160405180606001604052806036815260200162006f1f6036913981526020016040518060600160405280602a815260200162006d3f602a913981526020016040518060400160405280601881526020017fe585b1e8b5a2efbc8ce6b885e999a4e8bfb7e5a4b1e88085000000000000000081525081526020016040518060400160405280601b81526020017fe5a58be58a9be4b880e587bbefbc8ce5a29ee58aa0e694bbe587bb000000000081525081526020016040518060600160405280602a815260200162006f55602a9139815250606b90601862000cb492919062000f5a565b5034801562000cc257600080fd5b506040518060400160405280600381526020017f4e465400000000000000000000000000000000000000000000000000000000008152506040518060400160405280600381526020017f4e4654000000000000000000000000000000000000000000000000000000000081525062000d476301ffc9a760e01b62000e7a60201b60201c565b816006908051906020019062000d5f92919062001048565b50806007908051906020019062000d7892919062001048565b5062000d916380ac58cd60e01b62000e7a60201b60201c565b62000da9635b5e139f60e01b62000e7a60201b60201c565b62000dc163780e9d6360e01b62000e7a60201b60201c565b5050600062000dd562000f5260201b60201c565b905080600a60006101000a81548173ffffffffffffffffffffffffffffffffffffffff021916908373ffffffffffffffffffffffffffffffffffffffff1602179055508073ffffffffffffffffffffffffffffffffffffffff16600073ffffffffffffffffffffffffffffffffffffffff167f8be0079c531659141344cd1fd0a4f28419497f9722a3daafe3b4186f6b6457e060405160405180910390a35062001211565b63ffffffff60e01b817bffffffffffffffffffffffffffffffffffffffffffffffffffffffff1916141562000ee6576040517f08c379a000000000000000000000000000000000000000000000000000000000815260040162000edd90620011de565b60405180910390fd5b6001600080837bffffffffffffffffffffffffffffffffffffffffffffffffffffffff19167bffffffffffffffffffffffffffffffffffffffffffffffffffffffff1916815260200190815260200160002060006101000a81548160ff02191690831515021790555050565b600033905090565b826018810192821562000fa1579160200282015b8281111562000fa057825182908051906020019062000f8f92919062001048565b509160200191906001019062000f6e565b5b50905062000fb09190620010cf565b5090565b826018810192821562000feb579160200282015b8281111562000fea578251829060ff1690559160200191906001019062000fc8565b5b50905062000ffa919062001100565b5090565b826018810192821562001035579160200282015b8281111562001034578251829060ff1690559160200191906001019062001012565b5b50905062001044919062001128565b5090565b828054600181600116156101000203166002900490600052602060002090601f016020900481019282601f106200108b57805160ff1916838001178555620010bc565b82800160010185558215620010bc579182015b82811115620010bb5782518255916020019190600101906200109e565b5b509050620010cb919062001128565b5090565b620010fd91905b80821115620010f95760008181620010ef919062001150565b50600101620010d6565b5090565b90565b6200112591905b808211156200112157600081600090555060010162001107565b5090565b90565b6200114d91905b80821115620011495760008160009055506001016200112f565b5090565b90565b50805460018160011615610100020316600290046000825580601f1062001178575062001199565b601f01602090049060005260206000209081019062001198919062001128565b5b50565b6000620011ab601c8362001200565b91507f4552433136353a20696e76616c696420696e74657266616365206964000000006000830152602082019050919050565b60006020820190508181036000830152620011f9816200119c565b9050919050565b600082825260208201905092915050565b615aaf80620012216000396000f3fe608060405234801561001057600080fd5b506004361061028a5760003560e01c806370a082311161015c578063ba170b82116100ce578063d9d6165511610087578063d9d61655146108d3578063dd4bf6b714610903578063e55f318b1461091f578063e81957271461094f578063e985e9c51461097f578063f2fde38b146109af5761028a565b8063ba170b82146107db578063bcacf710146107f7578063c2df4a0d14610827578063c87b56dd14610857578063d172112e14610887578063d71943e8146108b75761028a565b80638da5cb5b116101205780638da5cb5b1461071957806395d89b4114610737578063a22cb46514610755578063ac35656a14610771578063b88d4fde146107a1578063b9e6c0eb146107bd5761028a565b806370a082311461065b578063715018a61461068b578063719943351461069557806376e6fe0d146106b157806384fe698d146106e35761028a565b80632f745c59116102005780634f6ccce7116101b95780634f6ccce71461054757806358e953701461057757806361b52a02146105ad5780636352211e146105dd5780636c0360eb1461060d5780636c3b37e91461062b5761028a565b80632f745c5914610435578063350aea0d1461046557806335da2fb81461049857806338e5cdce146104c8578063402d1cdb146104fb57806342842e0e1461052b5761028a565b806318160ddd1161025257806318160ddd14610359578063194a779a146103775780631c5753ca146103ad578063230840e4146103cb578063230a38fb146103fd57806323b872dd146104195761028a565b806301ffc9a71461028f57806306fdde03146102bf578063081812fc146102dd57806308d6e9e01461030d578063095ea7b31461033d575b600080fd5b6102a960048036038101906102a4919061480d565b6109cb565b6040516102b69190615394565b60405180910390f35b6102c7610a32565b6040516102d491906154a0565b60405180910390f35b6102f760048036038101906102f2919061485f565b610ad4565b6040516103049190615251565b60405180910390f35b6103276004803603810190610322919061485f565b610b59565b6040516103349190615394565b60405180910390f35b610357600480360381019061035291906147d1565b610bad565b005b610361610cc5565b60405161036e919061577f565b60405180910390f35b610391600480360381019061038c919061485f565b610cd6565b6040516103a4979695949392919061542a565b60405180910390f35b6103b5610e9a565b6040516103c291906153af565b60405180910390f35b6103e560048036038101906103e0919061485f565b610ec0565b6040516103f4939291906152ef565b60405180910390f35b6104176004803603810190610412919061485f565b610f0a565b005b610433600480360381019061042e91906146cb565b611040565b005b61044f600480360381019061044a91906147d1565b6110a0565b60405161045c919061577f565b60405180910390f35b61047f600480360381019061047a919061485f565b6110fb565b60405161048f9493929190615326565b60405180910390f35b6104b260048036038101906104ad919061485f565b6111e3565b6040516104bf91906153ca565b60405180910390f35b6104e260048036038101906104dd919061485f565b6111fb565b6040516104f294939291906153e5565b60405180910390f35b6105156004803603810190610510919061485f565b61126c565b60405161052291906154a0565b60405180910390f35b610545600480360381019061054091906146cb565b61131c565b005b610561600480360381019061055c919061485f565b61133c565b60405161056e919061577f565b60405180910390f35b610591600480360381019061058c919061485f565b61135f565b6040516105a497969594939291906154c2565b60405180910390f35b6105c760048036038101906105c2919061492b565b6114de565b6040516105d4919061577f565b60405180910390f35b6105f760048036038101906105f2919061485f565b61168a565b6040516106049190615251565b60405180910390f35b6106156116c1565b60405161062291906154a0565b60405180910390f35b6106456004803603810190610640919061485f565b611763565b604051610652919061577f565b60405180910390f35b61067560048036038101906106709190614666565b611784565b604051610682919061577f565b60405180910390f35b610693611843565b005b6106af60048036038101906106aa919061485f565b61199b565b005b6106cb60048036038101906106c6919061485f565b611ae1565b6040516106da939291906152b8565b60405180910390f35b6106fd60048036038101906106f8919061485f565b611b78565b60405161071097969594939291906154c2565b60405180910390f35b610721611cea565b60405161072e9190615251565b60405180910390f35b61073f611d14565b60405161074c91906154a0565b60405180910390f35b61076f600480360381019061076a9190614795565b611db6565b005b61078b6004803603810190610786919061485f565b611f37565b60405161079891906153ca565b60405180910390f35b6107bb60048036038101906107b6919061471a565b611f4f565b005b6107c5611fb1565b6040516107d2919061577f565b60405180910390f35b6107f560048036038101906107f0919061485f565b611fbe565b005b610811600480360381019061080c919061485f565b612518565b60405161081e919061577f565b60405180910390f35b610841600480360381019061083c91906148c4565b6127b8565b60405161084e919061577f565b60405180910390f35b610871600480360381019061086c919061485f565b61298d565b60405161087e91906154a0565b60405180910390f35b6108a1600480360381019061089c919061485f565b612b18565b6040516108ae91906154a0565b60405180910390f35b6108d160048036038101906108cc9190614666565b612bc8565b005b6108ed60048036038101906108e89190614666565b612c0c565b6040516108fa9190615372565b60405180910390f35b61091d60048036038101906109189190614888565b612c6b565b005b6109396004803603810190610934919061485f565b6131bf565b604051610946919061577f565b60405180910390f35b6109696004803603810190610964919061485f565b6131e0565b6040516109769190615394565b60405180910390f35b6109996004803603810190610994919061468f565b613232565b6040516109a69190615394565b60405180910390f35b6109c960048036038101906109c49190614666565b6132c6565b005b6000806000837bffffffffffffffffffffffffffffffffffffffffffffffffffffffff19167bffffffffffffffffffffffffffffffffffffffffffffffffffffffff1916815260200190815260200160002060009054906101000a900460ff169050919050565b606060068054600181600116156101000203166002900480601f016020809104026020016040519081016040528092919081815260200182805460018160011615610100020316600290048015610aca5780601f10610a9f57610100808354040283529160200191610aca565b820191906000526020600020905b815481529060010190602001808311610aad57829003601f168201915b5050505050905090565b6000610adf8261348d565b610b1e576040517f08c379a0000000000000000000000000000000000000000000000000000000008152600401610b159061569f565b60405180910390fd5b6004600083815260200190815260200160002060009054906101000a900473ffffffffffffffffffffffffffffffffffffffff169050919050565b600060026003811115610b6857fe5b6086600084815260200190815260200160002060009054906101000a900460ff166003811115610b9457fe5b1415610ba35760019050610ba8565b600090505b919050565b6000610bb88261168a565b90508073ffffffffffffffffffffffffffffffffffffffff168373ffffffffffffffffffffffffffffffffffffffff161415610c29576040517f08c379a0000000000000000000000000000000000000000000000000000000008152600401610c209061571f565b60405180910390fd5b8073ffffffffffffffffffffffffffffffffffffffff16610c486134aa565b73ffffffffffffffffffffffffffffffffffffffff161480610c775750610c7681610c716134aa565b613232565b5b610cb6576040517f08c379a0000000000000000000000000000000000000000000000000000000008152600401610cad9061561f565b60405180910390fd5b610cc083836134b2565b505050565b6000610cd1600261356b565b905090565b600080600080606060008060006003811115610cee57fe5b608660008a815260200190815260200160002060009054906101000a900460ff166003811115610d1a57fe5b1415610d2557600080fd5b6084600089815260200190815260200160002060010154608460008a815260200190815260200160002060040154608460008b815260200190815260200160002060050154608460008c815260200190815260200160002060020154608760008d8152602001908152602001600020600301608760008e815260200190815260200160002060020154608760008f815260200190815260200160002060000160009054906101000a900473ffffffffffffffffffffffffffffffffffffffff16828054600181600116156101000203166002900480601f016020809104026020016040519081016040528092919081815260200182805460018160011615610100020316600290048015610e7a5780601f10610e4f57610100808354040283529160200191610e7a565b820191906000526020600020905b815481529060010190602001808311610e5d57829003601f168201915b505050505092509650965096509650965096509650919395979092949650565b608960009054906101000a900473ffffffffffffffffffffffffffffffffffffffff1681565b60886020528060005260406000206000915090508060000160009054906101000a900473ffffffffffffffffffffffffffffffffffffffff16908060010154908060020154905083565b60026003811115610f1757fe5b6086600083815260200190815260200160002060009054906101000a900460ff166003811115610f4357fe5b14610f4d57600080fd5b3373ffffffffffffffffffffffffffffffffffffffff166087600083815260200190815260200160002060000160009054906101000a900473ffffffffffffffffffffffffffffffffffffffff1673ffffffffffffffffffffffffffffffffffffffff1614610fbb57600080fd5b60886000828152602001908152602001600020600080820160006101000a81549073ffffffffffffffffffffffffffffffffffffffff021916905560018201600090556002820160009055505060006086600083815260200190815260200160002060006101000a81548160ff0219169083600381111561103857fe5b021790555050565b61105161104b6134aa565b82613580565b611090576040517f08c379a00000000000000000000000000000000000000000000000000000000081526004016110879061573f565b60405180910390fd5b61109b83838361365e565b505050565b60006110f382600160008673ffffffffffffffffffffffffffffffffffffffff1673ffffffffffffffffffffffffffffffffffffffff16815260200190815260200160002061387590919063ffffffff16565b905092915050565b60876020528060005260406000206000915090508060000160009054906101000a900473ffffffffffffffffffffffffffffffffffffffff1690806001015490806002015490806003018054600181600116156101000203166002900480601f0160208091040260200160405190810160405280929190818152602001828054600181600116156101000203166002900480156111d95780601f106111ae576101008083540402835291602001916111d9565b820191906000526020600020905b8154815290600101906020018083116111bc57829003601f168201915b5050505050905084565b603b81601881106111f057fe5b016000915090505481565b600080600080608460008681526020019081526020016000206001015460846000878152602001908152602001600020600401546084600088815260200190815260200160002060050154608460008981526020019081526020016000206002015493509350935093509193509193565b600b816018811061127957fe5b016000915090508054600181600116156101000203166002900480601f0160208091040260200160405190810160405280929190818152602001828054600181600116156101000203166002900480156113145780601f106112e957610100808354040283529160200191611314565b820191906000526020600020905b8154815290600101906020018083116112f757829003601f168201915b505050505081565b61133783838360405180602001604052806000815250611f4f565b505050565b60008061135383600261388f90919063ffffffff16565b50905080915050919050565b6083818154811061136c57fe5b9060005260206000209060070201600091509050806000018054600181600116156101000203166002900480601f0160208091040260200160405190810160405280929190818152602001828054600181600116156101000203166002900480156114185780601f106113ed57610100808354040283529160200191611418565b820191906000526020600020905b8154815290600101906020018083116113fb57829003601f168201915b505050505090806001015490806002015490806003018054600181600116156101000203166002900480601f0160208091040260200160405190810160405280929190818152602001828054600181600116156101000203166002900480156114c25780601f10611497576101008083540402835291602001916114c2565b820191906000526020600020905b8154815290600101906020018083116114a557829003601f168201915b5050505050908060040154908060050154908060060154905087565b60008082116114ec57600080fd5b600160038111156114f957fe5b6086600085815260200190815260200160002060009054906101000a900460ff16600381111561152557fe5b1461152f57600080fd5b3373ffffffffffffffffffffffffffffffffffffffff166087600085815260200190815260200160002060000160009054906101000a900473ffffffffffffffffffffffffffffffffffffffff1673ffffffffffffffffffffffffffffffffffffffff16141561159e57600080fd5b6115a66143f3565b60405180606001604052803373ffffffffffffffffffffffffffffffffffffffff168152602001858152602001848152509050806088600086815260200190815260200160002060008201518160000160006101000a81548173ffffffffffffffffffffffffffffffffffffffff021916908373ffffffffffffffffffffffffffffffffffffffff160217905550602082015181600101556040820151816002015590505060026086600086815260200190815260200160002060006101000a81548160ff0219169083600381111561167b57fe5b02179055508391505092915050565b60006116ba82604051806060016040528060298152602001615a516029913960026138be9092919063ffffffff16565b9050919050565b606060098054600181600116156101000203166002900480601f0160208091040260200160405190810160405280929190818152602001828054600181600116156101000203166002900480156117595780601f1061172e57610100808354040283529160200191611759565b820191906000526020600020905b81548152906001019060200180831161173c57829003601f168201915b5050505050905090565b6085818154811061177057fe5b906000526020600020016000915090505481565b60008073ffffffffffffffffffffffffffffffffffffffff168273ffffffffffffffffffffffffffffffffffffffff1614156117f5576040517f08c379a00000000000000000000000000000000000000000000000000000000081526004016117ec9061563f565b60405180910390fd5b61183c600160008473ffffffffffffffffffffffffffffffffffffffff1673ffffffffffffffffffffffffffffffffffffffff1681526020019081526020016000206138dd565b9050919050565b61184b6134aa565b73ffffffffffffffffffffffffffffffffffffffff16600a60009054906101000a900473ffffffffffffffffffffffffffffffffffffffff1673ffffffffffffffffffffffffffffffffffffffff16146118da576040517f08c379a00000000000000000000000000000000000000000000000000000000081526004016118d1906156bf565b60405180910390fd5b600073ffffffffffffffffffffffffffffffffffffffff16600a60009054906101000a900473ffffffffffffffffffffffffffffffffffffffff1673ffffffffffffffffffffffffffffffffffffffff167f8be0079c531659141344cd1fd0a4f28419497f9722a3daafe3b4186f6b6457e060405160405180910390a36000600a60006101000a81548173ffffffffffffffffffffffffffffffffffffffff021916908373ffffffffffffffffffffffffffffffffffffffff160217905550565b600160038111156119a857fe5b6086600083815260200190815260200160002060009054906101000a900460ff1660038111156119d457fe5b146119de57600080fd5b3373ffffffffffffffffffffffffffffffffffffffff166087600083815260200190815260200160002060000160009054906101000a900473ffffffffffffffffffffffffffffffffffffffff1673ffffffffffffffffffffffffffffffffffffffff1614611a4c57600080fd5b60876000828152602001908152602001600020600080820160006101000a81549073ffffffffffffffffffffffffffffffffffffffff021916905560018201600090556002820160009055600382016000611aa7919061442a565b505060006086600083815260200190815260200160002060006101000a81548160ff02191690836003811115611ad957fe5b021790555050565b60008060006087600085815260200190815260200160002060000160009054906101000a900473ffffffffffffffffffffffffffffffffffffffff166088600086815260200190815260200160002060000160009054906101000a900473ffffffffffffffffffffffffffffffffffffffff1660876000878152602001908152602001600020600201549250925092509193909250565b6084602052806000526040600020600091509050806000018054600181600116156101000203166002900480601f016020809104026020016040519081016040528092919081815260200182805460018160011615610100020316600290048015611c245780601f10611bf957610100808354040283529160200191611c24565b820191906000526020600020905b815481529060010190602001808311611c0757829003601f168201915b505050505090806001015490806002015490806003018054600181600116156101000203166002900480601f016020809104026020016040519081016040528092919081815260200182805460018160011615610100020316600290048015611cce5780601f10611ca357610100808354040283529160200191611cce565b820191906000526020600020905b815481529060010190602001808311611cb157829003601f168201915b5050505050908060040154908060050154908060060154905087565b6000600a60009054906101000a900473ffffffffffffffffffffffffffffffffffffffff16905090565b606060078054600181600116156101000203166002900480601f016020809104026020016040519081016040528092919081815260200182805460018160011615610100020316600290048015611dac5780601f10611d8157610100808354040283529160200191611dac565b820191906000526020600020905b815481529060010190602001808311611d8f57829003601f168201915b5050505050905090565b611dbe6134aa565b73ffffffffffffffffffffffffffffffffffffffff168273ffffffffffffffffffffffffffffffffffffffff161415611e2c576040517f08c379a0000000000000000000000000000000000000000000000000000000008152600401611e23906155df565b60405180910390fd5b8060056000611e396134aa565b73ffffffffffffffffffffffffffffffffffffffff1673ffffffffffffffffffffffffffffffffffffffff16815260200190815260200160002060008473ffffffffffffffffffffffffffffffffffffffff1673ffffffffffffffffffffffffffffffffffffffff16815260200190815260200160002060006101000a81548160ff0219169083151502179055508173ffffffffffffffffffffffffffffffffffffffff16611ee66134aa565b73ffffffffffffffffffffffffffffffffffffffff167f17307eab39ab6107e8899845ad3d59bd9653f200f220920489ca2b5937696c3183604051611f2b9190615394565b60405180910390a35050565b60238160188110611f4457fe5b016000915090505481565b611f60611f5a6134aa565b83613580565b611f9f576040517f08c379a0000000000000000000000000000000000000000000000000000000008152600401611f969061573f565b60405180910390fd5b611fab848484846138f2565b50505050565b6000608580549050905090565b611fc66134aa565b73ffffffffffffffffffffffffffffffffffffffff16600a60009054906101000a900473ffffffffffffffffffffffffffffffffffffffff1673ffffffffffffffffffffffffffffffffffffffff1614612055576040517f08c379a000000000000000000000000000000000000000000000000000000000815260040161204c906156bf565b60405180910390fd5b600061205f610cc5565b905060836040518060e00160405280600b856018811061207b57fe5b018054600181600116156101000203166002900480601f0160208091040260200160405190810160405280929190818152602001828054600181600116156101000203166002900480156121105780601f106120e557610100808354040283529160200191612110565b820191906000526020600020905b8154815290600101906020018083116120f357829003601f168201915b505050505081526020016023856018811061212757fe5b01548152602001848152602001606b856018811061214157fe5b018054600181600116156101000203166002900480601f0160208091040260200160405190810160405280929190818152602001828054600181600116156101000203166002900480156121d65780601f106121ab576101008083540402835291602001916121d6565b820191906000526020600020905b8154815290600101906020018083116121b957829003601f168201915b50505050508152602001605385601881106121ed57fe5b01548152602001603b856018811061220157fe5b015481526020018381525090806001815401808255809150506001900390600052602060002090600702016000909190919091506000820151816000019080519060200190612251929190614472565b5060208201518160010155604082015181600201556060820151816003019080519060200190612282929190614472565b506080820151816004015560a0820151816005015560c0820151816006015550506040518060e00160405280600b84601881106122bb57fe5b018054600181600116156101000203166002900480601f0160208091040260200160405190810160405280929190818152602001828054600181600116156101000203166002900480156123505780601f1061232557610100808354040283529160200191612350565b820191906000526020600020905b81548152906001019060200180831161233357829003601f168201915b505050505081526020016023846018811061236757fe5b01548152602001838152602001606b846018811061238157fe5b018054600181600116156101000203166002900480601f0160208091040260200160405190810160405280929190818152602001828054600181600116156101000203166002900480156124165780601f106123eb57610100808354040283529160200191612416565b820191906000526020600020905b8154815290600101906020018083116123f957829003601f168201915b505050505081526020016053846018811061242d57fe5b01548152602001603b846018811061244157fe5b015481526020018281525060846000838152602001908152602001600020600082015181600001908051906020019061247b929190614472565b50602082015181600101556040820151816002015560608201518160030190805190602001906124ac929190614472565b506080820151816004015560a0820151816005015560c0820151816006015590505060006086600083815260200190815260200160002060006101000a81548160ff021916908360038111156124fe57fe5b021790555061251461250e611cea565b8261394e565b5050565b60003373ffffffffffffffffffffffffffffffffffffffff166087600084815260200190815260200160002060000160009054906101000a900473ffffffffffffffffffffffffffffffffffffffff1673ffffffffffffffffffffffffffffffffffffffff161461258857600080fd5b6125c86088600084815260200190815260200160002060000160009054906101000a900473ffffffffffffffffffffffffffffffffffffffff1683610bad565b612609336088600085815260200190815260200160002060000160009054906101000a900473ffffffffffffffffffffffffffffffffffffffff168461131c565b60006086600084815260200190815260200160002060006101000a81548160ff0219169083600381111561263957fe5b021790555060876000838152602001908152602001600020600080820160006101000a81549073ffffffffffffffffffffffffffffffffffffffff021916905560018201600090556002820160009055600382016000612699919061442a565b505060886000838152602001908152602001600020600080820160006101000a81549073ffffffffffffffffffffffffffffffffffffffff02191690556001820160009055600282016000905550506000608580549050905060008090505b818110156127a357836085828154811061270e57fe5b90600052602060002001541415612796576085818154811061272c57fe5b90600052602060002001600090556085600183038154811061274a57fe5b90600052602060002001546085828154811061276257fe5b9060005260206000200181905550608580548061277b57fe5b600190038181906000526020600020016000905590556127a3565b80806001019150506126f8565b50600060858054905090508092505050919050565b60008082116127c657600080fd5b600060038111156127d357fe5b6086600086815260200190815260200160002060009054906101000a900460ff1660038111156127ff57fe5b1461280957600080fd5b3373ffffffffffffffffffffffffffffffffffffffff166128298561168a565b73ffffffffffffffffffffffffffffffffffffffff161461284957600080fd5b6128516144f2565b60405180608001604052803373ffffffffffffffffffffffffffffffffffffffff168152602001868152602001848152602001858152509050806087600087815260200190815260200160002060008201518160000160006101000a81548173ffffffffffffffffffffffffffffffffffffffff021916908373ffffffffffffffffffffffffffffffffffffffff16021790555060208201518160010155604082015181600201556060820151816003019080519060200190612915929190614472565b5090505060016086600087815260200190815260200160002060006101000a81548160ff0219169083600381111561294957fe5b021790555060858590806001815401808255809150506001900390600052602060002001600090919091909150556000608580549050905080925050509392505050565b60606129988261348d565b6129d7576040517f08c379a00000000000000000000000000000000000000000000000000000000081526004016129ce906156ff565b60405180910390fd5b6060600860008481526020019081526020016000208054600181600116156101000203166002900480601f016020809104026020016040519081016040528092919081815260200182805460018160011615610100020316600290048015612a805780601f10612a5557610100808354040283529160200191612a80565b820191906000526020600020905b815481529060010190602001808311612a6357829003601f168201915b50505050509050600060098054600181600116156101000203166002900490501415612aaf5780915050612b13565b600081511115612ae457600981604051602001612acd92919061522d565b604051602081830303815290604052915050612b13565b6009612aef8461396c565b604051602001612b0092919061522d565b6040516020818303038152906040529150505b919050565b606b8160188110612b2557fe5b016000915090508054600181600116156101000203166002900480601f016020809104026020016040519081016040528092919081815260200182805460018160011615610100020316600290048015612bc05780601f10612b9557610100808354040283529160200191612bc0565b820191906000526020600020905b815481529060010190602001808311612ba357829003601f168201915b505050505081565b80608960006101000a81548173ffffffffffffffffffffffffffffffffffffffff021916908373ffffffffffffffffffffffffffffffffffffffff16021790555050565b606060008060606000612c1e86611784565b9350600092505b83831015612c5f57612c3786846110a0565b905080828481518110612c4657fe5b6020026020010181815250508280600101935050612c25565b81945050505050919050565b612c736134aa565b73ffffffffffffffffffffffffffffffffffffffff16600a60009054906101000a900473ffffffffffffffffffffffffffffffffffffffff1673ffffffffffffffffffffffffffffffffffffffff1614612d02576040517f08c379a0000000000000000000000000000000000000000000000000000000008152600401612cf9906156bf565b60405180910390fd5b6000612d0c610cc5565b905060836040518060e00160405280600b8660188110612d2857fe5b018054600181600116156101000203166002900480601f016020809104026020016040519081016040528092919081815260200182805460018160011615610100020316600290048015612dbd5780601f10612d9257610100808354040283529160200191612dbd565b820191906000526020600020905b815481529060010190602001808311612da057829003601f168201915b5050505050815260200160238660188110612dd457fe5b01548152602001858152602001606b8660188110612dee57fe5b018054600181600116156101000203166002900480601f016020809104026020016040519081016040528092919081815260200182805460018160011615610100020316600290048015612e835780601f10612e5857610100808354040283529160200191612e83565b820191906000526020600020905b815481529060010190602001808311612e6657829003601f168201915b5050505050815260200160538660188110612e9a57fe5b01548152602001603b8660188110612eae57fe5b015481526020018381525090806001815401808255809150506001900390600052602060002090600702016000909190919091506000820151816000019080519060200190612efe929190614472565b5060208201518160010155604082015181600201556060820151816003019080519060200190612f2f929190614472565b506080820151816004015560a0820151816005015560c0820151816006015550506040518060e00160405280600b8560188110612f6857fe5b018054600181600116156101000203166002900480601f016020809104026020016040519081016040528092919081815260200182805460018160011615610100020316600290048015612ffd5780601f10612fd257610100808354040283529160200191612ffd565b820191906000526020600020905b815481529060010190602001808311612fe057829003601f168201915b505050505081526020016023856018811061301457fe5b01548152602001848152602001606b856018811061302e57fe5b018054600181600116156101000203166002900480601f0160208091040260200160405190810160405280929190818152602001828054600181600116156101000203166002900480156130c35780601f10613098576101008083540402835291602001916130c3565b820191906000526020600020905b8154815290600101906020018083116130a657829003601f168201915b50505050508152602001605385601881106130da57fe5b01548152602001603b85601881106130ee57fe5b0154815260200182815250608460008381526020019081526020016000206000820151816000019080519060200190613128929190614472565b5060208201518160010155604082015181600201556060820151816003019080519060200190613159929190614472565b506080820151816004015560a0820151816005015560c0820151816006015590505060006086600083815260200190815260200160002060006101000a81548160ff021916908360038111156131ab57fe5b02179055506131ba828261394e565b505050565b6000608582815481106131ce57fe5b90600052602060002001549050919050565b60008060038111156131ee57fe5b6086600084815260200190815260200160002060009054906101000a900460ff16600381111561321a57fe5b14613228576001905061322d565b600090505b919050565b6000600560008473ffffffffffffffffffffffffffffffffffffffff1673ffffffffffffffffffffffffffffffffffffffff16815260200190815260200160002060008373ffffffffffffffffffffffffffffffffffffffff1673ffffffffffffffffffffffffffffffffffffffff16815260200190815260200160002060009054906101000a900460ff16905092915050565b6132ce6134aa565b73ffffffffffffffffffffffffffffffffffffffff16600a60009054906101000a900473ffffffffffffffffffffffffffffffffffffffff1673ffffffffffffffffffffffffffffffffffffffff161461335d576040517f08c379a0000000000000000000000000000000000000000000000000000000008152600401613354906156bf565b60405180910390fd5b600073ffffffffffffffffffffffffffffffffffffffff168173ffffffffffffffffffffffffffffffffffffffff1614156133cd576040517f08c379a00000000000000000000000000000000000000000000000000000000081526004016133c49061557f565b60405180910390fd5b8073ffffffffffffffffffffffffffffffffffffffff16600a60009054906101000a900473ffffffffffffffffffffffffffffffffffffffff1673ffffffffffffffffffffffffffffffffffffffff167f8be0079c531659141344cd1fd0a4f28419497f9722a3daafe3b4186f6b6457e060405160405180910390a380600a60006101000a81548173ffffffffffffffffffffffffffffffffffffffff021916908373ffffffffffffffffffffffffffffffffffffffff16021790555050565b60006134a3826002613ab390919063ffffffff16565b9050919050565b600033905090565b816004600083815260200190815260200160002060006101000a81548173ffffffffffffffffffffffffffffffffffffffff021916908373ffffffffffffffffffffffffffffffffffffffff160217905550808273ffffffffffffffffffffffffffffffffffffffff166135258361168a565b73ffffffffffffffffffffffffffffffffffffffff167f8c5be1e5ebec7d5bd14f71427d1e84f3dd0314c0f7b2291e5b200ac8c7c3b92560405160405180910390a45050565b600061357982600001613acd565b9050919050565b600061358b8261348d565b6135ca576040517f08c379a00000000000000000000000000000000000000000000000000000000081526004016135c1906155ff565b60405180910390fd5b60006135d58361168a565b90508073ffffffffffffffffffffffffffffffffffffffff168473ffffffffffffffffffffffffffffffffffffffff16148061364457508373ffffffffffffffffffffffffffffffffffffffff1661362c84610ad4565b73ffffffffffffffffffffffffffffffffffffffff16145b8061365557506136548185613232565b5b91505092915050565b8273ffffffffffffffffffffffffffffffffffffffff1661367e8261168a565b73ffffffffffffffffffffffffffffffffffffffff16146136d4576040517f08c379a00000000000000000000000000000000000000000000000000000000081526004016136cb906156df565b60405180910390fd5b600073ffffffffffffffffffffffffffffffffffffffff168273ffffffffffffffffffffffffffffffffffffffff161415613744576040517f08c379a000000000000000000000000000000000000000000000000000000000815260040161373b906155bf565b60405180910390fd5b61374f838383613ade565b61375a6000826134b2565b6137ab81600160008673ffffffffffffffffffffffffffffffffffffffff1673ffffffffffffffffffffffffffffffffffffffff168152602001908152602001600020613ae390919063ffffffff16565b506137fd81600160008573ffffffffffffffffffffffffffffffffffffffff1673ffffffffffffffffffffffffffffffffffffffff168152602001908152602001600020613afd90919063ffffffff16565b5061381481836002613b179092919063ffffffff16565b50808273ffffffffffffffffffffffffffffffffffffffff168473ffffffffffffffffffffffffffffffffffffffff167fddf252ad1be2c89b69c2b068fc378daa952ba7f163c4a11628f55a4df523b3ef60405160405180910390a4505050565b60006138848360000183613b4c565b60001c905092915050565b6000806000806138a28660000186613bb9565b915091508160001c8160001c8090509350935050509250929050565b60006138d1846000018460001b84613c3c565b60001c90509392505050565b60006138eb82600001613ccd565b9050919050565b6138fd84848461365e565b61390984848484613cde565b613948576040517f08c379a000000000000000000000000000000000000000000000000000000000815260040161393f9061555f565b60405180910390fd5b50505050565b613968828260405180602001604052806000815250613e42565b5050565b606060008214156139b4576040518060400160405280600181526020017f30000000000000000000000000000000000000000000000000000000000000008152509050613aae565b600082905060005b600082146139de578080600101915050600a82816139d657fe5b0491506139bc565b60608167ffffffffffffffff811180156139f757600080fd5b506040519080825280601f01601f191660200182016040528015613a2a5781602001600182028036833780820191505090505b50905060006001830390508593505b60008414613aa657600a8481613a4b57fe5b0660300160f81b82828060019003935081518110613a6557fe5b60200101907effffffffffffffffffffffffffffffffffffffffffffffffffffffffffffff1916908160001a905350600a8481613a9e57fe5b049350613a39565b819450505050505b919050565b6000613ac5836000018360001b613e9d565b905092915050565b600081600001805490509050919050565b505050565b6000613af5836000018360001b613ec0565b905092915050565b6000613b0f836000018360001b613fa8565b905092915050565b6000613b43846000018460001b8473ffffffffffffffffffffffffffffffffffffffff1660001b614018565b90509392505050565b600081836000018054905011613b97576040517f08c379a0000000000000000000000000000000000000000000000000000000008152600401613b8e9061553f565b60405180910390fd5b826000018281548110613ba657fe5b9060005260206000200154905092915050565b60008082846000018054905011613c05576040517f08c379a0000000000000000000000000000000000000000000000000000000008152600401613bfc9061565f565b60405180910390fd5b6000846000018481548110613c1657fe5b906000526020600020906002020190508060000154816001015492509250509250929050565b60008084600101600085815260200190815260200160002054905060008114158390613c9e576040517f08c379a0000000000000000000000000000000000000000000000000000000008152600401613c9591906154a0565b60405180910390fd5b50846000016001820381548110613cb157fe5b9060005260206000209060020201600101549150509392505050565b600081600001805490509050919050565b6000613cff8473ffffffffffffffffffffffffffffffffffffffff166140f4565b613d0c5760019050613e3a565b6060613dd363150b7a0260e01b613d216134aa565b888787604051602401613d37949392919061526c565b604051602081830303815290604052907bffffffffffffffffffffffffffffffffffffffffffffffffffffffff19166020820180517bffffffffffffffffffffffffffffffffffffffffffffffffffffffff8381831617835250505050604051806060016040528060328152602001615a1f603291398773ffffffffffffffffffffffffffffffffffffffff166141079092919063ffffffff16565b9050600081806020019051810190613deb9190614836565b905063150b7a0260e01b7bffffffffffffffffffffffffffffffffffffffffffffffffffffffff1916817bffffffffffffffffffffffffffffffffffffffffffffffffffffffff191614925050505b949350505050565b613e4c838361411f565b613e596000848484613cde565b613e98576040517f08c379a0000000000000000000000000000000000000000000000000000000008152600401613e8f9061555f565b60405180910390fd5b505050565b600080836001016000848152602001908152602001600020541415905092915050565b60008083600101600084815260200190815260200160002054905060008114613f9c5760006001820390506000600186600001805490500390506000866000018281548110613f0b57fe5b9060005260206000200154905080876000018481548110613f2857fe5b9060005260206000200181905550600183018760010160008381526020019081526020016000208190555086600001805480613f6057fe5b60019003818190600052602060002001600090559055866001016000878152602001908152602001600020600090556001945050505050613fa2565b60009150505b92915050565b6000613fb483836142ad565b61400d578260000182908060018154018082558091505060019003906000526020600020016000909190919091505582600001805490508360010160008481526020019081526020016000208190555060019050614012565b600090505b92915050565b60008084600101600085815260200190815260200160002054905060008114156140bf578460000160405180604001604052808681526020018581525090806001815401808255809150506001900390600052602060002090600202016000909190919091506000820151816000015560208201518160010155505084600001805490508560010160008681526020019081526020016000208190555060019150506140ed565b828560000160018303815481106140d257fe5b90600052602060002090600202016001018190555060009150505b9392505050565b600080823b905060008111915050919050565b606061411684846000856142d0565b90509392505050565b600073ffffffffffffffffffffffffffffffffffffffff168273ffffffffffffffffffffffffffffffffffffffff16141561418f576040517f08c379a00000000000000000000000000000000000000000000000000000000081526004016141869061567f565b60405180910390fd5b6141988161348d565b156141d8576040517f08c379a00000000000000000000000000000000000000000000000000000000081526004016141cf9061559f565b60405180910390fd5b6141e460008383613ade565b61423581600160008573ffffffffffffffffffffffffffffffffffffffff1673ffffffffffffffffffffffffffffffffffffffff168152602001908152602001600020613afd90919063ffffffff16565b5061424c81836002613b179092919063ffffffff16565b50808273ffffffffffffffffffffffffffffffffffffffff16600073ffffffffffffffffffffffffffffffffffffffff167fddf252ad1be2c89b69c2b068fc378daa952ba7f163c4a11628f55a4df523b3ef60405160405180910390a45050565b600080836001016000848152602001908152602001600020541415905092915050565b60606142db856140f4565b61431a576040517f08c379a00000000000000000000000000000000000000000000000000000000081526004016143119061575f565b60405180910390fd5b600060608673ffffffffffffffffffffffffffffffffffffffff1685876040516143449190615216565b60006040518083038185875af1925050503d8060008114614381576040519150601f19603f3d011682016040523d82523d6000602084013e614386565b606091505b5091509150811561439b5780925050506143eb565b6000815111156143ae5780518082602001fd5b836040517f08c379a00000000000000000000000000000000000000000000000000000000081526004016143e291906154a0565b60405180910390fd5b949350505050565b6040518060600160405280600073ffffffffffffffffffffffffffffffffffffffff16815260200160008152602001600081525090565b50805460018160011615610100020316600290046000825580601f10614450575061446f565b601f01602090049060005260206000209081019061446e9190614530565b5b50565b828054600181600116156101000203166002900490600052602060002090601f016020900481019282601f106144b357805160ff19168380011785556144e1565b828001600101855582156144e1579182015b828111156144e05782518255916020019190600101906144c5565b5b5090506144ee9190614530565b5090565b6040518060800160405280600073ffffffffffffffffffffffffffffffffffffffff1681526020016000815260200160008152602001606081525090565b61455291905b8082111561454e576000816000905550600101614536565b5090565b90565b600081359050614564816159c2565b92915050565b600081359050614579816159d9565b92915050565b60008135905061458e816159f0565b92915050565b6000815190506145a3816159f0565b92915050565b600082601f8301126145ba57600080fd5b81356145cd6145c8826157c7565b61579a565b915080825260208301602083018583830111156145e957600080fd5b6145f483828461596f565b50505092915050565b600082601f83011261460e57600080fd5b813561462161461c826157f3565b61579a565b9150808252602083016020830185838301111561463d57600080fd5b61464883828461596f565b50505092915050565b60008135905061466081615a07565b92915050565b60006020828403121561467857600080fd5b600061468684828501614555565b91505092915050565b600080604083850312156146a257600080fd5b60006146b085828601614555565b92505060206146c185828601614555565b9150509250929050565b6000806000606084860312156146e057600080fd5b60006146ee86828701614555565b93505060206146ff86828701614555565b925050604061471086828701614651565b9150509250925092565b6000806000806080858703121561473057600080fd5b600061473e87828801614555565b945050602061474f87828801614555565b935050604061476087828801614651565b925050606085013567ffffffffffffffff81111561477d57600080fd5b614789878288016145a9565b91505092959194509250565b600080604083850312156147a857600080fd5b60006147b685828601614555565b92505060206147c78582860161456a565b9150509250929050565b600080604083850312156147e457600080fd5b60006147f285828601614555565b925050602061480385828601614651565b9150509250929050565b60006020828403121561481f57600080fd5b600061482d8482850161457f565b91505092915050565b60006020828403121561484857600080fd5b600061485684828501614594565b91505092915050565b60006020828403121561487157600080fd5b600061487f84828501614651565b91505092915050565b6000806040838503121561489b57600080fd5b60006148a985828601614651565b92505060206148ba85828601614555565b9150509250929050565b6000806000606084860312156148d957600080fd5b60006148e786828701614651565b935050602084013567ffffffffffffffff81111561490457600080fd5b614910868287016145fd565b925050604061492186828701614651565b9150509250925092565b6000806040838503121561493e57600080fd5b600061494c85828601614651565b925050602061495d85828601614651565b9150509250929050565b600061497383836151f8565b60208301905092915050565b614988816158cd565b82525050565b614997816158bb565b82525050565b60006149a882615844565b6149b28185615872565b93506149bd8361581f565b8060005b838110156149ee5781516149d58882614967565b97506149e083615865565b9250506001810190506149c1565b5085935050505092915050565b614a04816158df565b82525050565b6000614a158261584f565b614a1f8185615883565b9350614a2f81856020860161597e565b614a38816159b1565b840191505092915050565b6000614a4e8261584f565b614a588185615894565b9350614a6881856020860161597e565b80840191505092915050565b614a7d8161594b565b82525050565b614a8c81615917565b82525050565b6000614a9d8261585a565b614aa7818561589f565b9350614ab781856020860161597e565b614ac0816159b1565b840191505092915050565b6000614ad68261585a565b614ae081856158b0565b9350614af081856020860161597e565b80840191505092915050565b600081546001811660008114614b195760018114614b3e57614b82565b607f6002830416614b2a81876158b0565b955060ff1983168652808601935050614b82565b60028204614b4c81876158b0565b9550614b578561582f565b60005b82811015614b7957815481890152600182019150602081019050614b5a565b82880195505050505b505092915050565b6000614b9760228361589f565b91507f456e756d657261626c655365743a20696e646578206f7574206f6620626f756e60008301527f64730000000000000000000000000000000000000000000000000000000000006020830152604082019050919050565b6000614bfd60328361589f565b91507f4552433732313a207472616e7366657220746f206e6f6e20455243373231526560008301527f63656976657220696d706c656d656e74657200000000000000000000000000006020830152604082019050919050565b6000614c6360268361589f565b91507f4f776e61626c653a206e6577206f776e657220697320746865207a65726f206160008301527f64647265737300000000000000000000000000000000000000000000000000006020830152604082019050919050565b6000614cc9601c8361589f565b91507f4552433732313a20746f6b656e20616c7265616479206d696e746564000000006000830152602082019050919050565b6000614d0960248361589f565b91507f4552433732313a207472616e7366657220746f20746865207a65726f2061646460008301527f72657373000000000000000000000000000000000000000000000000000000006020830152604082019050919050565b6000614d6f60198361589f565b91507f4552433732313a20617070726f766520746f2063616c6c6572000000000000006000830152602082019050919050565b6000614daf602c8361589f565b91507f4552433732313a206f70657261746f7220717565727920666f72206e6f6e657860008301527f697374656e7420746f6b656e00000000000000000000000000000000000000006020830152604082019050919050565b6000614e1560388361589f565b91507f4552433732313a20617070726f76652063616c6c6572206973206e6f74206f7760008301527f6e6572206e6f7220617070726f76656420666f7220616c6c00000000000000006020830152604082019050919050565b6000614e7b602a8361589f565b91507f4552433732313a2062616c616e636520717565727920666f7220746865207a6560008301527f726f2061646472657373000000000000000000000000000000000000000000006020830152604082019050919050565b6000614ee160228361589f565b91507f456e756d657261626c654d61703a20696e646578206f7574206f6620626f756e60008301527f64730000000000000000000000000000000000000000000000000000000000006020830152604082019050919050565b6000614f4760208361589f565b91507f4552433732313a206d696e7420746f20746865207a65726f20616464726573736000830152602082019050919050565b6000614f87602c8361589f565b91507f4552433732313a20617070726f76656420717565727920666f72206e6f6e657860008301527f697374656e7420746f6b656e00000000000000000000000000000000000000006020830152604082019050919050565b6000614fed60208361589f565b91507f4f776e61626c653a2063616c6c6572206973206e6f7420746865206f776e65726000830152602082019050919050565b600061502d60298361589f565b91507f4552433732313a207472616e73666572206f6620746f6b656e2074686174206960008301527f73206e6f74206f776e00000000000000000000000000000000000000000000006020830152604082019050919050565b6000615093602f8361589f565b91507f4552433732314d657461646174613a2055524920717565727920666f72206e6f60008301527f6e6578697374656e7420746f6b656e00000000000000000000000000000000006020830152604082019050919050565b60006150f960218361589f565b91507f4552433732313a20617070726f76616c20746f2063757272656e74206f776e6560008301527f72000000000000000000000000000000000000000000000000000000000000006020830152604082019050919050565b600061515f60318361589f565b91507f4552433732313a207472616e736665722063616c6c6572206973206e6f74206f60008301527f776e6572206e6f7220617070726f7665640000000000000000000000000000006020830152604082019050919050565b60006151c5601d8361589f565b91507f416464726573733a2063616c6c20746f206e6f6e2d636f6e74726163740000006000830152602082019050919050565b61520181615941565b82525050565b61521081615941565b82525050565b60006152228284614a43565b915081905092915050565b60006152398285614afc565b91506152458284614acb565b91508190509392505050565b6000602082019050615266600083018461498e565b92915050565b6000608082019050615281600083018761497f565b61528e602083018661498e565b61529b6040830185615207565b81810360608301526152ad8184614a0a565b905095945050505050565b60006060820190506152cd600083018661498e565b6152da602083018561498e565b6152e76040830184615207565b949350505050565b6000606082019050615304600083018661498e565b6153116020830185615207565b61531e6040830184615207565b949350505050565b600060808201905061533b600083018761498e565b6153486020830186615207565b6153556040830185615207565b81810360608301526153678184614a92565b905095945050505050565b6000602082019050818103600083015261538c818461499d565b905092915050565b60006020820190506153a960008301846149fb565b92915050565b60006020820190506153c46000830184614a74565b92915050565b60006020820190506153df6000830184614a83565b92915050565b60006080820190506153fa6000830187614a83565b6154076020830186615207565b6154146040830185614a83565b6154216060830184615207565b95945050505050565b600060e08201905061543f600083018a614a83565b61544c6020830189615207565b6154596040830188614a83565b6154666060830187615207565b81810360808301526154788186614a92565b905061548760a0830185615207565b61549460c083018461498e565b98975050505050505050565b600060208201905081810360008301526154ba8184614a92565b905092915050565b600060e08201905081810360008301526154dc818a614a92565b90506154eb6020830189614a83565b6154f86040830188615207565b818103606083015261550a8187614a92565b90506155196080830186615207565b61552660a0830185614a83565b61553360c0830184615207565b98975050505050505050565b6000602082019050818103600083015261555881614b8a565b9050919050565b6000602082019050818103600083015261557881614bf0565b9050919050565b6000602082019050818103600083015261559881614c56565b9050919050565b600060208201905081810360008301526155b881614cbc565b9050919050565b600060208201905081810360008301526155d881614cfc565b9050919050565b600060208201905081810360008301526155f881614d62565b9050919050565b6000602082019050818103600083015261561881614da2565b9050919050565b6000602082019050818103600083015261563881614e08565b9050919050565b6000602082019050818103600083015261565881614e6e565b9050919050565b6000602082019050818103600083015261567881614ed4565b9050919050565b6000602082019050818103600083015261569881614f3a565b9050919050565b600060208201905081810360008301526156b881614f7a565b9050919050565b600060208201905081810360008301526156d881614fe0565b9050919050565b600060208201905081810360008301526156f881615020565b9050919050565b6000602082019050818103600083015261571881615086565b9050919050565b60006020820190508181036000830152615738816150ec565b9050919050565b6000602082019050818103600083015261575881615152565b9050919050565b60006020820190508181036000830152615778816151b8565b9050919050565b60006020820190506157946000830184615207565b92915050565b6000604051905081810181811067ffffffffffffffff821117156157bd57600080fd5b8060405250919050565b600067ffffffffffffffff8211156157de57600080fd5b601f19601f8301169050602081019050919050565b600067ffffffffffffffff82111561580a57600080fd5b601f19601f8301169050602081019050919050565b6000819050602082019050919050565b60008190508160005260206000209050919050565b600081519050919050565b600081519050919050565b600081519050919050565b6000602082019050919050565b600082825260208201905092915050565b600082825260208201905092915050565b600081905092915050565b600082825260208201905092915050565b600081905092915050565b60006158c682615921565b9050919050565b60006158d882615921565b9050919050565b60008115159050919050565b60007fffffffff0000000000000000000000000000000000000000000000000000000082169050919050565b6000819050919050565b600073ffffffffffffffffffffffffffffffffffffffff82169050919050565b6000819050919050565b60006159568261595d565b9050919050565b600061596882615921565b9050919050565b82818337600083830152505050565b60005b8381101561599c578082015181840152602081019050615981565b838111156159ab576000848401525b50505050565b6000601f19601f8301169050919050565b6159cb816158bb565b81146159d657600080fd5b50565b6159e2816158df565b81146159ed57600080fd5b50565b6159f9816158eb565b8114615a0457600080fd5b50565b615a1081615941565b8114615a1b57600080fd5b5056fe4552433732313a207472616e7366657220746f206e6f6e20455243373231526563656976657220696d706c656d656e7465724552433732313a206f776e657220717565727920666f72206e6f6e6578697374656e7420746f6b656ea26469706673582212201087a9d24add28094e3c739d9ffa306e7b2bd7fe42f43110329aefc84eb30c2f64736f6c63430006060033e7a59ee5bf97e4b88de6b885e79a84e6b7b7e6b7b7efbc8ce5a29ee58aa0e694bbe587bbe8bfb7e5a4b1e887aae68891efbc8ce5878fe5b091e887aae8baabe998b2e5bea1e5aea1e8a786e887aae5b7b1efbc8ce58aa0e5bcbae58a9be9878fefbc8ce5a29ee58aa0e998b2e5bea1e9b8a6e99b80e697a0e5a3b0efbc8ce5928ce5b9b3e79bb8e5a484efbc8ce6b885e999a4e997b4e8b08de8bf90e8be93e883bde58a9be68f90e58d87efbc8ce998b2e5bea1e58a9be68f90e58d87e8a2abe8b4bfe8b582e79a84e689a7e6b395e4babae59198efbc8ce5a29ee58aa0e694bbe587bbe998b2e5bea1e4b8bae5afb9e696b9e5ae89e68e92e7aba5e5b7a5efbc8ce5a29ee58aa0e980aee68d95e58fafe883bdefbc8ce5878fe5b091e5afb9e696b9e998b2e5bea1e58ab3e5b7a5e5a4b4e79baeefbc8ce5a29ee58aa0e694bbe587bbe998b2e5bea1e4bdbfe5afb9e696b9e4baa7e59381e68890e69cace68f90e9ab98efbc8ce5878fe5b091e5afb9e696b9e998b2e5bea1e8bf90e8be93e883bde58a9be68f90e58d87efbc8ce5878fe5b091e69b9de58589e587a0e78e87efbc8ce5a29ee58aa0e694bbe587bbe998b2e5bea1e79086e699bae6b885e98692e79a84e6b7b7e6b7b7efbc8ce5a29ee58aa0e694bbe587bbe998b2e5bea1e9878ee5bf83e58b83e58b83e79a84e5b091e5a5b3efbc8ce5a29ee58aa0e694bbe587bbe7b4a7e79bafe9bb91e5a49ce7949fe6848fefbc8ce5afb9e696b9e6b289e9bb98e4b880e59b9ee59088e69c80e5a4a7e9bb91e58abfe58a9befbc8ce58aa0e694bbe587bbe998b2e5bea1e9bb91e69a97e4b88be79a84e998b4e999a9e8b08be5a3abefbc8ce5a29ee58aa0e694bbe587bbefbc8ce5878fe5b091e998b2e5bea1e78ba9e78c8ee69cbae98187efbc8ce5a29ee58aa0e694bbe587bbefbc8ce5a29ee58aa0e998b2e5bea1",
  "immutableReferences": {},
  "source": "pragma solidity ^0.6.0;\nimport \"../node_modules/@openzeppelin/contracts/token/ERC721/ERC721.sol\";\nimport \"../node_modules/@openzeppelin/contracts/access/Ownable.sol\";\nimport \"./ERC777Token.sol\";\npragma experimental ABIEncoderV2;\ncontract CardsMarket is ERC721, Ownable{\n    constructor() ERC721(\"NFT\",\"NFT\") public { }\n    struct Cards {\n        string name;\n        int aggressivity;\n        // uint quantity;\n        uint sort;\n        string description;\n        uint  Object_of_action;\n        int aggressivity_action;\n        uint tokenid;\n    }\n    string[24] public card_names = [\"\",\"\",\"\",\"\",\"\",\"\",\"\",\"\",\"\",\"\",\"\",\"\",\"\",\"\",\"\",\"\",\"\",\"\",\"\",\"\",\"\",\"\",\"\",\"\"];\n    int[24] public card_aggressivity = [6,3,4,5,5,4,4,3,6,8,6,5,4,6,1,3,5,6,8,5,4,4,5,6];\n    int[24] public card_aggressivity_action = [0,0,0,2,0,2,0,0,0,0,0,3,0,0,2,0,0,0,0,2,0,0,0,0];\n    uint[24] card_Object_of_action = [0,0,0,1,0,1,0,0,0,0,0,1,0,0,0,0,0,0,0,0,0,0,0,0];\n    string[24] public card_description = [\"\",\"\",\"\",\"\",\"\",\"\",\"\",\"\",\"\",\"\",\"\",\"\",\"\",\"\",\"\",\"\",\"\",\"\",\"\",\"\",\"\",\"\",\"\",\"\"];\n    \n    Cards[] public All_Cards;\n    mapping(uint256 => Cards) public map_cards;\n\n    enum StateType {\n        HandsOn,\n      ItemAvailable,\n      OfferPlaced,\n      Accepted\n    }\n    uint[] public SaleCards;\n    mapping (uint => StateType) State;\n    struct InstanceOwner{\n        address Owner_address;\n        uint Card_mapping_key;\n        uint AskingPrice;\n        string Description;\n    }\n    struct InstanceBuyer{\n        address Buyer_address;\n        uint Card_mapping_key;\n        uint offerPrize;\n    }\n    mapping (uint => InstanceOwner) public AllInstanceOwner;\n    mapping (uint => InstanceBuyer) public AllInstanceBuyer;\n\n    //ERC777\n    ERC777Token public ERC_777;\n\tfunction Link_ERC777Token(address address_ERC777Token) public{\n        ERC_777 = ERC777Token(address_ERC777Token);\n    }\n    function Create_The_Card(uint card_symbol) public onlyOwner{\n    uint256 _tokenid = totalSupply();\n    All_Cards.push(Cards({name : card_names[card_symbol], aggressivity : card_aggressivity[card_symbol], sort:card_symbol, description:card_description[card_symbol], Object_of_action:card_Object_of_action[card_symbol], aggressivity_action:card_aggressivity_action[card_symbol], tokenid:_tokenid}));\n    map_cards[_tokenid]=Cards({name : card_names[card_symbol], aggressivity : card_aggressivity[card_symbol], sort:card_symbol, description:card_description[card_symbol], Object_of_action:card_Object_of_action[card_symbol], aggressivity_action:card_aggressivity_action[card_symbol], tokenid:_tokenid});\n    State[_tokenid]=StateType.HandsOn;\n    _safeMint(owner(), _tokenid);\n    }\n\tfunction Create_The_Card_ForYou(uint card_symbol,address TheYou) public onlyOwner{\n            uint256 _tokenid = totalSupply();\n            All_Cards.push(Cards({name : card_names[card_symbol], aggressivity : card_aggressivity[card_symbol], sort:card_symbol, description:card_description[card_symbol], Object_of_action:card_Object_of_action[card_symbol], aggressivity_action:card_aggressivity_action[card_symbol], tokenid:_tokenid}));\n            map_cards[_tokenid]=Cards({name : card_names[card_symbol], aggressivity : card_aggressivity[card_symbol], sort:card_symbol, description:card_description[card_symbol], Object_of_action:card_Object_of_action[card_symbol], aggressivity_action:card_aggressivity_action[card_symbol], tokenid:_tokenid});\n            State[_tokenid]=StateType.HandsOn;\n            _safeMint(TheYou, _tokenid);\n    }\n    function CreateDeal (uint Card_mapping_key, string memory description, uint price) public returns(uint) {\n        \n        require(price>0);\n        require(State[Card_mapping_key] == StateType.HandsOn);\n        require(ownerOf(Card_mapping_key) == msg.sender);\n        InstanceOwner memory newOwner = InstanceOwner({Owner_address:msg.sender, Card_mapping_key:Card_mapping_key, AskingPrice:price, Description:description});\n        AllInstanceOwner[Card_mapping_key]=newOwner;\n        State[Card_mapping_key] = StateType.ItemAvailable;     \n        SaleCards.push(Card_mapping_key);\n        uint num_of_deal = SaleCards.length;\n        return num_of_deal;\n    }\n\n        function MakeOffer(uint Card_mapping_key, uint offerPrice) public returns(uint) {\n        require(offerPrice>0);\n        require(State[Card_mapping_key] == StateType.ItemAvailable);\n        require(AllInstanceOwner[Card_mapping_key].Owner_address != msg.sender);\n        InstanceBuyer memory newBuyer = InstanceBuyer({Buyer_address:msg.sender, Card_mapping_key:Card_mapping_key ,offerPrize:offerPrice});\n        AllInstanceBuyer[Card_mapping_key] = newBuyer;\n        State[Card_mapping_key] = StateType.OfferPlaced;\n        return Card_mapping_key;\n    }\n    function Reject(uint Card_mapping_key) public {\n        require(State[Card_mapping_key] == StateType.OfferPlaced);\n        require(AllInstanceOwner[Card_mapping_key].Owner_address == msg.sender);\n        delete AllInstanceBuyer[Card_mapping_key];\n        State[Card_mapping_key] = StateType.HandsOn;\n    }\n    function CancelDeal(uint Card_mapping_key) public {\n        require(State[Card_mapping_key] == StateType.ItemAvailable);\n        require(AllInstanceOwner[Card_mapping_key].Owner_address == msg.sender);\n        delete AllInstanceOwner[Card_mapping_key];\n        State[Card_mapping_key] = StateType.HandsOn;\n    }\n    function AcceptOffer(uint Card_mapping_key) public returns (uint){\n        require(AllInstanceOwner[Card_mapping_key].Owner_address == msg.sender);\n        //ERC777\n        approve(AllInstanceBuyer[Card_mapping_key].Buyer_address, Card_mapping_key);\n        safeTransferFrom(msg.sender,AllInstanceBuyer[Card_mapping_key].Buyer_address,Card_mapping_key);\n        State[Card_mapping_key] = StateType.HandsOn;\n        delete AllInstanceOwner[Card_mapping_key];\n        delete AllInstanceBuyer[Card_mapping_key];\n        uint length = SaleCards.length;\n        for(uint i=0;i<length;i++){\n            if(SaleCards[i]==Card_mapping_key){\n                delete SaleCards[i];\n                SaleCards[i]=SaleCards[length-1];\n                SaleCards.pop();\n                break;\n            }\n        }        \n\tuint num_of_deal = SaleCards.length;\n        return num_of_deal;\n    }\nfunction getGoodAddresses(uint Card_mapping_key) public view returns(address owner,address buyer,uint askprice){\n        return (AllInstanceOwner[Card_mapping_key].Owner_address,AllInstanceBuyer[Card_mapping_key].Buyer_address, AllInstanceOwner[Card_mapping_key].AskingPrice);\n    }\n    function getOwnedTokens(address _owner) public view returns (uint256[] memory) {\n        uint256 length;\n        uint256 i;\n        uint256[] memory tokens;\n        uint256 card;\n        length = balanceOf(_owner);\n        for(i=0;i<length;i++){\n            card =tokenOfOwnerByIndex(_owner,i);\n            tokens[i] = card;\n        }\n        return tokens;\n    }\n    function getNumOfSaleCards() public view returns (uint){\n        return SaleCards.length;\n    }\n    function getthatSalecard(uint symbolid) public view returns (uint) {\n        return SaleCards[symbolid];\n    }\n    function ifthiscardOnSaling(uint symbolid) public view returns (bool){\n        if(State[symbolid]!=StateType.HandsOn){\n            return true;\n        }\n        else{\n            return false;\n        }\n    }\n    function ifthiscardBeOffered(uint symbolid) public view returns (bool){\n        if(State[symbolid]==StateType.OfferPlaced){\n            return true;\n        }\n        else{\n            return false;\n        }\n    }\n    function getTokenProperty(uint256 tokenId) public view returns (int aggressivity,uint  Object_of_action,int aggressivity_action ,uint sort) {\n        return (map_cards[tokenId].aggressivity,map_cards[tokenId].Object_of_action,map_cards[tokenId].aggressivity_action,map_cards[tokenId].sort);\n    }\nfunction getSalingTokenProperty(uint256 tokenId) public view returns (int aggressivity,uint  Object_of_action,int aggressivity_action ,uint sort ,string memory Description ,uint AskingPrice ,address Owner_address) {\n        require(State[tokenId] != StateType.HandsOn);\n        return (map_cards[tokenId].aggressivity,map_cards[tokenId].Object_of_action,map_cards[tokenId].aggressivity_action,map_cards[tokenId].sort,AllInstanceOwner[tokenId].Description,AllInstanceOwner[tokenId].AskingPrice,AllInstanceOwner[tokenId].Owner_address);\n    }\n}",
  "sourcePath": "/usr/project/ChainsMafia/ChainsMafia/contracts/CardsMarket.sol",
  "compiler": {
    "name": "solc",
    "version": "0.6.6+commit.6c089d02.Emscripten.clang"
  },
  "schemaVersion": "3.2.5",
  "updatedAt": "2020-10-25T03:16:50.080Z",
  "networkType": "ethereum",
  "devdoc": {
    "methods": {
      "approve(address,uint256)": {
        "details": "See {IERC721-approve}."
      },
      "balanceOf(address)": {
        "details": "See {IERC721-balanceOf}."
      },
      "baseURI()": {
        "details": "Returns the base URI set via {_setBaseURI}. This will be automatically added as a prefix in {tokenURI} to each token's URI, or to the token ID if no specific URI is set for that token ID."
      },
      "getApproved(uint256)": {
        "details": "See {IERC721-getApproved}."
      },
      "isApprovedForAll(address,address)": {
        "details": "See {IERC721-isApprovedForAll}."
      },
      "name()": {
        "details": "See {IERC721Metadata-name}."
      },
      "owner()": {
        "details": "Returns the address of the current owner."
      },
      "ownerOf(uint256)": {
        "details": "See {IERC721-ownerOf}."
      },
      "renounceOwnership()": {
        "details": "Leaves the contract without owner. It will not be possible to call `onlyOwner` functions anymore. Can only be called by the current owner.     * NOTE: Renouncing ownership will leave the contract without an owner, thereby removing any functionality that is only available to the owner."
      },
      "safeTransferFrom(address,address,uint256)": {
        "details": "See {IERC721-safeTransferFrom}."
      },
      "safeTransferFrom(address,address,uint256,bytes)": {
        "details": "See {IERC721-safeTransferFrom}."
      },
      "setApprovalForAll(address,bool)": {
        "details": "See {IERC721-setApprovalForAll}."
      },
      "supportsInterface(bytes4)": {
        "details": "See {IERC165-supportsInterface}.     * Time complexity O(1), guaranteed to always use less than 30 000 gas."
      },
      "symbol()": {
        "details": "See {IERC721Metadata-symbol}."
      },
      "tokenByIndex(uint256)": {
        "details": "See {IERC721Enumerable-tokenByIndex}."
      },
      "tokenOfOwnerByIndex(address,uint256)": {
        "details": "See {IERC721Enumerable-tokenOfOwnerByIndex}."
      },
      "tokenURI(uint256)": {
        "details": "See {IERC721Metadata-tokenURI}."
      },
      "totalSupply()": {
        "details": "See {IERC721Enumerable-totalSupply}."
      },
      "transferFrom(address,address,uint256)": {
        "details": "See {IERC721-transferFrom}."
      },
      "transferOwnership(address)": {
        "details": "Transfers ownership of the contract to a new account (`newOwner`). Can only be called by the current owner."
      }
    }
  },
  "userdoc": {
    "methods": {}
  }
}