{
  "contractName": "Game",
  "abi": [
    {
      "anonymous": false,
      "inputs": [
        {
          "indexed": true,
          "internalType": "address",
          "name": "previousOwner",
          "type": "address"
        },
        {
          "indexed": true,
          "internalType": "address",
          "name": "newOwner",
          "type": "address"
        }
      ],
      "name": "OwnershipTransferred",
      "type": "event"
    },
    {
      "inputs": [
        {
          "internalType": "uint256",
          "name": "",
          "type": "uint256"
        }
      ],
      "name": "WaitGamer",
      "outputs": [
        {
          "internalType": "address",
          "name": "",
          "type": "address"
        }
      ],
      "stateMutability": "view",
      "type": "function",
      "constant": true
    },
    {
      "inputs": [],
      "name": "cardsmarket",
      "outputs": [
        {
          "internalType": "contract CardsMarket",
          "name": "",
          "type": "address"
        }
      ],
      "stateMutability": "view",
      "type": "function",
      "constant": true
    },
    {
      "inputs": [],
      "name": "owner",
      "outputs": [
        {
          "internalType": "address",
          "name": "",
          "type": "address"
        }
      ],
      "stateMutability": "view",
      "type": "function",
      "constant": true
    },
    {
      "inputs": [],
      "name": "renounceOwnership",
      "outputs": [],
      "stateMutability": "nonpayable",
      "type": "function"
    },
    {
      "inputs": [
        {
          "internalType": "address",
          "name": "newOwner",
          "type": "address"
        }
      ],
      "name": "transferOwnership",
      "outputs": [],
      "stateMutability": "nonpayable",
      "type": "function"
    },
    {
      "inputs": [
        {
          "internalType": "address",
          "name": "address_CardsMarket",
          "type": "address"
        }
      ],
      "name": "Link_CardsMarket",
      "outputs": [],
      "stateMutability": "nonpayable",
      "type": "function"
    },
    {
      "inputs": [
        {
          "internalType": "address",
          "name": "player1",
          "type": "address"
        },
        {
          "internalType": "address",
          "name": "player2",
          "type": "address"
        }
      ],
      "name": "creatSingleGame",
      "outputs": [
        {
          "internalType": "uint256",
          "name": "",
          "type": "uint256"
        }
      ],
      "stateMutability": "payable",
      "type": "function",
      "payable": true
    },
    {
      "inputs": [
        {
          "internalType": "address",
          "name": "player",
          "type": "address"
        }
      ],
      "name": "Can_I_Play",
      "outputs": [
        {
          "internalType": "address",
          "name": "Opponent",
          "type": "address"
        },
        {
          "internalType": "address",
          "name": "DefaultMover",
          "type": "address"
        }
      ],
      "stateMutability": "view",
      "type": "function",
      "constant": true
    },
    {
      "inputs": [
        {
          "internalType": "address",
          "name": "player",
          "type": "address"
        }
      ],
      "name": "WhoIsMover",
      "outputs": [
        {
          "internalType": "address",
          "name": "Mover",
          "type": "address"
        }
      ],
      "stateMutability": "view",
      "type": "function",
      "constant": true
    },
    {
      "inputs": [
        {
          "internalType": "address",
          "name": "player",
          "type": "address"
        },
        {
          "internalType": "uint256",
          "name": "tokenId",
          "type": "uint256"
        }
      ],
      "name": "playTime",
      "outputs": [
        {
          "internalType": "uint256",
          "name": "",
          "type": "uint256"
        }
      ],
      "stateMutability": "nonpayable",
      "type": "function"
    },
    {
      "inputs": [
        {
          "internalType": "address",
          "name": "player",
          "type": "address"
        }
      ],
      "name": "restTime",
      "outputs": [
        {
          "internalType": "address",
          "name": "",
          "type": "address"
        }
      ],
      "stateMutability": "nonpayable",
      "type": "function"
    },
    {
      "inputs": [
        {
          "internalType": "address",
          "name": "player",
          "type": "address"
        }
      ],
      "name": "dropTime",
      "outputs": [
        {
          "internalType": "uint256",
          "name": "",
          "type": "uint256"
        },
        {
          "internalType": "address",
          "name": "",
          "type": "address"
        }
      ],
      "stateMutability": "nonpayable",
      "type": "function"
    },
    {
      "inputs": [
        {
          "internalType": "address",
          "name": "player",
          "type": "address"
        }
      ],
      "name": "NumOfTempCards",
      "outputs": [
        {
          "internalType": "uint256",
          "name": "",
          "type": "uint256"
        }
      ],
      "stateMutability": "view",
      "type": "function",
      "constant": true
    },
    {
      "inputs": [
        {
          "internalType": "address",
          "name": "player",
          "type": "address"
        },
        {
          "internalType": "uint256",
          "name": "index",
          "type": "uint256"
        }
      ],
      "name": "ThisTempCards",
      "outputs": [
        {
          "internalType": "uint256",
          "name": "",
          "type": "uint256"
        }
      ],
      "stateMutability": "view",
      "type": "function",
      "constant": true
    },
    {
      "inputs": [
        {
          "internalType": "address",
          "name": "player",
          "type": "address"
        }
      ],
      "name": "DeleteHisTempCards",
      "outputs": [],
      "stateMutability": "nonpayable",
      "type": "function"
    },
    {
      "inputs": [
        {
          "internalType": "address",
          "name": "player",
          "type": "address"
        }
      ],
      "name": "gettotalAggressivity",
      "outputs": [
        {
          "internalType": "int256",
          "name": "mine",
          "type": "int256"
        },
        {
          "internalType": "int256",
          "name": "him",
          "type": "int256"
        }
      ],
      "stateMutability": "view",
      "type": "function",
      "constant": true
    },
    {
      "inputs": [
        {
          "internalType": "address",
          "name": "player",
          "type": "address"
        },
        {
          "internalType": "uint256",
          "name": "tokenId",
          "type": "uint256"
        }
      ],
      "name": "ifusedCards_has_TokenId",
      "outputs": [
        {
          "internalType": "bool",
          "name": "",
          "type": "bool"
        }
      ],
      "stateMutability": "view",
      "type": "function",
      "constant": true
    },
    {
      "inputs": [
        {
          "internalType": "address",
          "name": "player1",
          "type": "address"
        },
        {
          "internalType": "address",
          "name": "player2",
          "type": "address"
        }
      ],
      "name": "cancelSingleGame",
      "outputs": [],
      "stateMutability": "nonpayable",
      "type": "function"
    },
    {
      "inputs": [
        {
          "internalType": "address",
          "name": "player",
          "type": "address"
        }
      ],
      "name": "PushWaitGamer",
      "outputs": [
        {
          "internalType": "uint256",
          "name": "",
          "type": "uint256"
        }
      ],
      "stateMutability": "nonpayable",
      "type": "function"
    },
    {
      "inputs": [
        {
          "internalType": "address",
          "name": "player",
          "type": "address"
        }
      ],
      "name": "PopWaitGamer",
      "outputs": [],
      "stateMutability": "nonpayable",
      "type": "function"
    },
    {
      "inputs": [
        {
          "internalType": "address",
          "name": "self",
          "type": "address"
        }
      ],
      "name": "GetTheOpponent",
      "outputs": [
        {
          "internalType": "address",
          "name": "",
          "type": "address"
        }
      ],
      "stateMutability": "nonpayable",
      "type": "function"
    },
    {
      "inputs": [
        {
          "internalType": "uint256",
          "name": "_length",
          "type": "uint256"
        }
      ],
      "name": "rand",
      "outputs": [
        {
          "internalType": "uint256",
          "name": "",
          "type": "uint256"
        }
      ],
      "stateMutability": "view",
      "type": "function",
      "constant": true
    },
    {
      "inputs": [],
      "name": "getNumOfWaitGamer",
      "outputs": [
        {
          "internalType": "uint256",
          "name": "",
          "type": "uint256"
        }
      ],
      "stateMutability": "view",
      "type": "function",
      "constant": true
    },
    {
      "inputs": [
        {
          "components": [
            {
              "internalType": "int256",
              "name": "aggressivity",
              "type": "int256"
            },
            {
              "internalType": "uint256",
              "name": "sort",
              "type": "uint256"
            },
            {
              "internalType": "uint256",
              "name": "Object_of_action",
              "type": "uint256"
            },
            {
              "internalType": "int256",
              "name": "aggressivity_action",
              "type": "int256"
            }
          ],
          "internalType": "struct Game.CardDes",
          "name": "thisCard",
          "type": "tuple"
        },
        {
          "internalType": "uint256",
          "name": "card",
          "type": "uint256"
        }
      ],
      "name": "getCardProperty",
      "outputs": [],
      "stateMutability": "view",
      "type": "function",
      "constant": true
    }
  ],
  "bytecode": "0x608060405260006100146100b760201b60201c565b9050806000806101000a81548173ffffffffffffffffffffffffffffffffffffffff021916908373ffffffffffffffffffffffffffffffffffffffff1602179055508073ffffffffffffffffffffffffffffffffffffffff16600073ffffffffffffffffffffffffffffffffffffffff167f8be0079c531659141344cd1fd0a4f28419497f9722a3daafe3b4186f6b6457e060405160405180910390a3506100bf565b600033905090565b613ee280620000cf6000396000f3fe60806040526004361061014b5760003560e01c806377a32e6e116100b6578063c9632c881161006f578063c9632c88146104e2578063e94ae1bb14610520578063f0a784221461055d578063f2fde38b1461059b578063fc69e131146105c4578063ff673a1c146106015761014b565b806377a32e6e146103c0578063822948dc146103e95780638da5cb5b1461041457806391d3f12f1461043f578063949cfc641461046857806398164de9146104a55761014b565b8063344a782e11610108578063344a782e146102995780635f9094f1146102c257806366d184e4146102ff5780636b81da131461033c578063715018a61461037957806373172527146103905761014b565b806303e49717146101505780630c3feef91461018e5780630da7b4ab146101cb578063156e66cf146101f45780632530c9051461021f578063339f80b71461025c575b600080fd5b34801561015c57600080fd5b50610177600480360381019061017291906139e5565b61062a565b604051610185929190613c9d565b60405180910390f35b34801561019a57600080fd5b506101b560048036038101906101b09190613b25565b6106fc565b6040516101c29190613c82565b60405180910390f35b3480156101d757600080fd5b506101f260048036038101906101ed91906139e5565b610738565b005b34801561020057600080fd5b5061020961077c565b6040516102169190613d65565b60405180910390f35b34801561022b57600080fd5b5061024660048036038101906102419190613b25565b610789565b6040516102539190613d65565b60405180910390f35b34801561026857600080fd5b50610283600480360381019061027e91906139e5565b6107cc565b6040516102909190613d65565b60405180910390f35b3480156102a557600080fd5b506102c060048036038101906102bb91906139e5565b61087d565b005b3480156102ce57600080fd5b506102e960048036038101906102e49190613a4a565b610a82565b6040516102f69190613d65565b60405180910390f35b34801561030b57600080fd5b5061032660048036038101906103219190613a4a565b6112c1565b6040516103339190613d65565b60405180910390f35b34801561034857600080fd5b50610363600480360381019061035e9190613a4a565b611385565b6040516103709190613cc6565b60405180910390f35b34801561038557600080fd5b5061038e611466565b005b6103aa60048036038101906103a59190613a0e565b6115bb565b6040516103b79190613d65565b60405180910390f35b3480156103cc57600080fd5b506103e760048036038101906103e291906139e5565b611d04565b005b3480156103f557600080fd5b506103fe611e05565b60405161040b9190613ce1565b60405180910390f35b34801561042057600080fd5b50610429611e2b565b6040516104369190613c82565b60405180910390f35b34801561044b57600080fd5b5061046660048036038101906104619190613a0e565b611e54565b005b34801561047457600080fd5b5061048f600480360381019061048a91906139e5565b612016565b60405161049c9190613c82565b60405180910390f35b3480156104b157600080fd5b506104cc60048036038101906104c791906139e5565b612420565b6040516104d99190613c82565b60405180910390f35b3480156104ee57600080fd5b50610509600480360381019061050491906139e5565b6124e0565b604051610517929190613cfc565b60405180910390f35b34801561052c57600080fd5b50610547600480360381019061054291906139e5565b6125d4565b6040516105549190613d65565b60405180910390f35b34801561056957600080fd5b50610584600480360381019061057f91906139e5565b612824565b604051610592929190613d80565b60405180910390f35b3480156105a757600080fd5b506105c260048036038101906105bd91906139e5565b61339b565b005b3480156105d057600080fd5b506105eb60048036038101906105e691906139e5565b61355f565b6040516105f89190613c82565b60405180910390f35b34801561060d57600080fd5b5061062860048036038101906106239190613ae9565b6137bf565b005b600080600260008473ffffffffffffffffffffffffffffffffffffffff1673ffffffffffffffffffffffffffffffffffffffff16815260200190815260200160002060010160009054906101000a900473ffffffffffffffffffffffffffffffffffffffff16600260008573ffffffffffffffffffffffffffffffffffffffff1673ffffffffffffffffffffffffffffffffffffffff16815260200190815260200160002060050160009054906101000a900473ffffffffffffffffffffffffffffffffffffffff1691509150915091565b6003818154811061070957fe5b906000526020600020016000915054906101000a900473ffffffffffffffffffffffffffffffffffffffff1681565b80600460006101000a81548173ffffffffffffffffffffffffffffffffffffffff021916908373ffffffffffffffffffffffffffffffffffffffff16021790555050565b6000600380549050905090565b6000808244426040516020016107a0929190613c56565b6040516020818303038152906040528051906020012060001c816107c057fe5b06905080915050919050565b600060026000600260008573ffffffffffffffffffffffffffffffffffffffff1673ffffffffffffffffffffffffffffffffffffffff16815260200190815260200160002060010160009054906101000a900473ffffffffffffffffffffffffffffffffffffffff1673ffffffffffffffffffffffffffffffffffffffff1673ffffffffffffffffffffffffffffffffffffffff168152602001908152602001600020600701805490509050919050565b6000600560008373ffffffffffffffffffffffffffffffffffffffff1673ffffffffffffffffffffffffffffffffffffffff16815260200190815260200160002060006101000a81548160ff021916908360028111156108d957fe5b02179055506000600380549050905060008090505b81811015610a7d578273ffffffffffffffffffffffffffffffffffffffff166003828154811061091a57fe5b9060005260206000200160009054906101000a900473ffffffffffffffffffffffffffffffffffffffff1673ffffffffffffffffffffffffffffffffffffffff161415610a70576003818154811061096e57fe5b9060005260206000200160006101000a81549073ffffffffffffffffffffffffffffffffffffffff0219169055600360018303815481106109ab57fe5b9060005260206000200160009054906101000a900473ffffffffffffffffffffffffffffffffffffffff16600382815481106109e357fe5b9060005260206000200160006101000a81548173ffffffffffffffffffffffffffffffffffffffff021916908373ffffffffffffffffffffffffffffffffffffffff1602179055506003805480610a3657fe5b6001900381819060005260206000200160006101000a81549073ffffffffffffffffffffffffffffffffffffffff02191690559055610a7d565b80806001019150506108ee565b505050565b60006001600260008573ffffffffffffffffffffffffffffffffffffffff1673ffffffffffffffffffffffffffffffffffffffff1681526020019081526020016000206003015414156112bb57610ad761389a565b610ae181846137bf565b600260008573ffffffffffffffffffffffffffffffffffffffff1673ffffffffffffffffffffffffffffffffffffffff168152602001908152602001600020600601839080600181540180825580915050600190039060005260206000200160009091909190915055600260008573ffffffffffffffffffffffffffffffffffffffff1673ffffffffffffffffffffffffffffffffffffffff1681526020019081526020016000206007018390806001815401808255809150506001900390600052602060002001600090919091909150558060000151600260008673ffffffffffffffffffffffffffffffffffffffff1673ffffffffffffffffffffffffffffffffffffffff1681526020019081526020016000206000015401600260008673ffffffffffffffffffffffffffffffffffffffff1673ffffffffffffffffffffffffffffffffffffffff16815260200190815260200160002060000181905550600081604001511415610ce3578060600151600260008673ffffffffffffffffffffffffffffffffffffffff1673ffffffffffffffffffffffffffffffffffffffff1681526020019081526020016000206000015403600260008673ffffffffffffffffffffffffffffffffffffffff1673ffffffffffffffffffffffffffffffffffffffff16815260200190815260200160002060000181905550610e37565b806060015160026000600260008873ffffffffffffffffffffffffffffffffffffffff1673ffffffffffffffffffffffffffffffffffffffff16815260200190815260200160002060010160009054906101000a900473ffffffffffffffffffffffffffffffffffffffff1673ffffffffffffffffffffffffffffffffffffffff1673ffffffffffffffffffffffffffffffffffffffff168152602001908152602001600020600001540360026000600260008873ffffffffffffffffffffffffffffffffffffffff1673ffffffffffffffffffffffffffffffffffffffff16815260200190815260200160002060010160009054906101000a900473ffffffffffffffffffffffffffffffffffffffff1673ffffffffffffffffffffffffffffffffffffffff1673ffffffffffffffffffffffffffffffffffffffff168152602001908152602001600020600001819055505b601281602001511415610ef357600160026000600260008873ffffffffffffffffffffffffffffffffffffffff1673ffffffffffffffffffffffffffffffffffffffff16815260200190815260200160002060010160009054906101000a900473ffffffffffffffffffffffffffffffffffffffff1673ffffffffffffffffffffffffffffffffffffffff1673ffffffffffffffffffffffffffffffffffffffff168152602001908152602001600020600401819055506112b9565b60148160200151141561101b57610f6d600260008673ffffffffffffffffffffffffffffffffffffffff1673ffffffffffffffffffffffffffffffffffffffff16815260200190815260200160002060010160009054906101000a900473ffffffffffffffffffffffffffffffffffffffff166003611385565b1561101657610f7a61389a565b610f858160036137bf565b8060600151600260008773ffffffffffffffffffffffffffffffffffffffff1673ffffffffffffffffffffffffffffffffffffffff1681526020019081526020016000206000015401600260008773ffffffffffffffffffffffffffffffffffffffff1673ffffffffffffffffffffffffffffffffffffffff16815260200190815260200160002060000181905550505b6112b8565b6015816020015114156112b75761103384600e611385565b156110dc5761104061389a565b61104b81600e6137bf565b8060600151600260008773ffffffffffffffffffffffffffffffffffffffff1673ffffffffffffffffffffffffffffffffffffffff1681526020019081526020016000206000015401600260008773ffffffffffffffffffffffffffffffffffffffff1673ffffffffffffffffffffffffffffffffffffffff16815260200190815260200160002060000181905550505b611149600260008673ffffffffffffffffffffffffffffffffffffffff1673ffffffffffffffffffffffffffffffffffffffff16815260200190815260200160002060010160009054906101000a900473ffffffffffffffffffffffffffffffffffffffff16600e611385565b156112b65761115661389a565b61116181600e6137bf565b806060015160026000600260008973ffffffffffffffffffffffffffffffffffffffff1673ffffffffffffffffffffffffffffffffffffffff16815260200190815260200160002060010160009054906101000a900473ffffffffffffffffffffffffffffffffffffffff1673ffffffffffffffffffffffffffffffffffffffff1673ffffffffffffffffffffffffffffffffffffffff168152602001908152602001600020600001540160026000600260008973ffffffffffffffffffffffffffffffffffffffff1673ffffffffffffffffffffffffffffffffffffffff16815260200190815260200160002060010160009054906101000a900473ffffffffffffffffffffffffffffffffffffffff1673ffffffffffffffffffffffffffffffffffffffff1673ffffffffffffffffffffffffffffffffffffffff16815260200190815260200160002060000181905550505b5b5b5b505b92915050565b600060026000600260008673ffffffffffffffffffffffffffffffffffffffff1673ffffffffffffffffffffffffffffffffffffffff16815260200190815260200160002060010160009054906101000a900473ffffffffffffffffffffffffffffffffffffffff1673ffffffffffffffffffffffffffffffffffffffff1673ffffffffffffffffffffffffffffffffffffffff168152602001908152602001600020600701828154811061137257fe5b9060005260206000200154905092915050565b600080600260008573ffffffffffffffffffffffffffffffffffffffff1673ffffffffffffffffffffffffffffffffffffffff1681526020019081526020016000206006018054905090506000809050600090505b818110156114595783600260008773ffffffffffffffffffffffffffffffffffffffff1673ffffffffffffffffffffffffffffffffffffffff168152602001908152602001600020600601828154811061143057fe5b9060005260206000200154141561144c57600192505050611460565b80806001019150506113da565b6000925050505b92915050565b61146e613892565b73ffffffffffffffffffffffffffffffffffffffff166000809054906101000a900473ffffffffffffffffffffffffffffffffffffffff1673ffffffffffffffffffffffffffffffffffffffff16146114fc576040517f08c379a00000000000000000000000000000000000000000000000000000000081526004016114f390613d45565b60405180910390fd5b600073ffffffffffffffffffffffffffffffffffffffff166000809054906101000a900473ffffffffffffffffffffffffffffffffffffffff1673ffffffffffffffffffffffffffffffffffffffff167f8be0079c531659141344cd1fd0a4f28419497f9722a3daafe3b4186f6b6457e060405160405180910390a360008060006101000a81548173ffffffffffffffffffffffffffffffffffffffff021916908373ffffffffffffffffffffffffffffffffffffffff160217905550565b600081600260008573ffffffffffffffffffffffffffffffffffffffff1673ffffffffffffffffffffffffffffffffffffffff16815260200190815260200160002060010160006101000a81548173ffffffffffffffffffffffffffffffffffffffff021916908373ffffffffffffffffffffffffffffffffffffffff16021790555082600260008473ffffffffffffffffffffffffffffffffffffffff1673ffffffffffffffffffffffffffffffffffffffff16815260200190815260200160002060010160006101000a81548173ffffffffffffffffffffffffffffffffffffffff021916908373ffffffffffffffffffffffffffffffffffffffff1602179055506000600260008573ffffffffffffffffffffffffffffffffffffffff1673ffffffffffffffffffffffffffffffffffffffff168152602001908152602001600020600001819055506000600260008473ffffffffffffffffffffffffffffffffffffffff1673ffffffffffffffffffffffffffffffffffffffff168152602001908152602001600020600001819055506000600260008573ffffffffffffffffffffffffffffffffffffffff1673ffffffffffffffffffffffffffffffffffffffff168152602001908152602001600020600201819055506000600260008473ffffffffffffffffffffffffffffffffffffffff1673ffffffffffffffffffffffffffffffffffffffff16815260200190815260200160002060020181905550600260008473ffffffffffffffffffffffffffffffffffffffff1673ffffffffffffffffffffffffffffffffffffffff168152602001908152602001600020600601600061182d91906138c2565b600260008473ffffffffffffffffffffffffffffffffffffffff1673ffffffffffffffffffffffffffffffffffffffff168152602001908152602001600020600701600061187b91906138c2565b600260008373ffffffffffffffffffffffffffffffffffffffff1673ffffffffffffffffffffffffffffffffffffffff16815260200190815260200160002060060160006118c991906138c2565b600260008373ffffffffffffffffffffffffffffffffffffffff1673ffffffffffffffffffffffffffffffffffffffff168152602001908152602001600020600701600061191791906138c2565b6000600260008573ffffffffffffffffffffffffffffffffffffffff1673ffffffffffffffffffffffffffffffffffffffff168152602001908152602001600020600401819055506000600260008473ffffffffffffffffffffffffffffffffffffffff1673ffffffffffffffffffffffffffffffffffffffff1681526020019081526020016000206004018190555060006119b36002610789565b90506000811415611b55576001600260008673ffffffffffffffffffffffffffffffffffffffff1673ffffffffffffffffffffffffffffffffffffffff168152602001908152602001600020600301819055506000600260008573ffffffffffffffffffffffffffffffffffffffff1673ffffffffffffffffffffffffffffffffffffffff1681526020019081526020016000206003018190555083600260008673ffffffffffffffffffffffffffffffffffffffff1673ffffffffffffffffffffffffffffffffffffffff16815260200190815260200160002060050160006101000a81548173ffffffffffffffffffffffffffffffffffffffff021916908373ffffffffffffffffffffffffffffffffffffffff16021790555083600260008573ffffffffffffffffffffffffffffffffffffffff1673ffffffffffffffffffffffffffffffffffffffff16815260200190815260200160002060050160006101000a81548173ffffffffffffffffffffffffffffffffffffffff021916908373ffffffffffffffffffffffffffffffffffffffff160217905550611ce8565b6000600260008673ffffffffffffffffffffffffffffffffffffffff1673ffffffffffffffffffffffffffffffffffffffff168152602001908152602001600020600301819055506001600260008573ffffffffffffffffffffffffffffffffffffffff1673ffffffffffffffffffffffffffffffffffffffff1681526020019081526020016000206003018190555082600260008673ffffffffffffffffffffffffffffffffffffffff1673ffffffffffffffffffffffffffffffffffffffff16815260200190815260200160002060050160006101000a81548173ffffffffffffffffffffffffffffffffffffffff021916908373ffffffffffffffffffffffffffffffffffffffff16021790555082600260008573ffffffffffffffffffffffffffffffffffffffff1673ffffffffffffffffffffffffffffffffffffffff16815260200190815260200160002060050160006101000a81548173ffffffffffffffffffffffffffffffffffffffff021916908373ffffffffffffffffffffffffffffffffffffffff1602179055505b611cf18461087d565b611cfa8361087d565b8091505092915050565b600260008273ffffffffffffffffffffffffffffffffffffffff1673ffffffffffffffffffffffffffffffffffffffff1681526020019081526020016000206007016000611d5291906138c2565b60026000600260008473ffffffffffffffffffffffffffffffffffffffff1673ffffffffffffffffffffffffffffffffffffffff16815260200190815260200160002060010160009054906101000a900473ffffffffffffffffffffffffffffffffffffffff1673ffffffffffffffffffffffffffffffffffffffff1673ffffffffffffffffffffffffffffffffffffffff1681526020019081526020016000206007016000611e0291906138c2565b50565b600460009054906101000a900473ffffffffffffffffffffffffffffffffffffffff1681565b60008060009054906101000a900473ffffffffffffffffffffffffffffffffffffffff16905090565b60008290506000829050600260008373ffffffffffffffffffffffffffffffffffffffff1673ffffffffffffffffffffffffffffffffffffffff1681526020019081526020016000206000808201600090556001820160006101000a81549073ffffffffffffffffffffffffffffffffffffffff02191690556002820160009055600382016000905560048201600090556005820160006101000a81549073ffffffffffffffffffffffffffffffffffffffff0219169055600682016000611f1c91906138c2565b600782016000611f2c91906138c2565b5050600260008273ffffffffffffffffffffffffffffffffffffffff1673ffffffffffffffffffffffffffffffffffffffff1681526020019081526020016000206000808201600090556001820160006101000a81549073ffffffffffffffffffffffffffffffffffffffff02191690556002820160009055600382016000905560048201600090556005820160006101000a81549073ffffffffffffffffffffffffffffffffffffffff0219169055600682016000611fec91906138c2565b600782016000611ffc91906138c2565b50506120078461087d565b6120108361087d565b50505050565b60006001600260008473ffffffffffffffffffffffffffffffffffffffff1673ffffffffffffffffffffffffffffffffffffffff16815260200190815260200160002060030154141561241a576002806000600260008673ffffffffffffffffffffffffffffffffffffffff1673ffffffffffffffffffffffffffffffffffffffff16815260200190815260200160002060010160009054906101000a900473ffffffffffffffffffffffffffffffffffffffff1673ffffffffffffffffffffffffffffffffffffffff1673ffffffffffffffffffffffffffffffffffffffff16815260200190815260200160002060030154141561215f576001600260008473ffffffffffffffffffffffffffffffffffffffff1673ffffffffffffffffffffffffffffffffffffffff1681526020019081526020016000206003018190555081905061241b565b600160026000600260008673ffffffffffffffffffffffffffffffffffffffff1673ffffffffffffffffffffffffffffffffffffffff16815260200190815260200160002060010160009054906101000a900473ffffffffffffffffffffffffffffffffffffffff1673ffffffffffffffffffffffffffffffffffffffff1673ffffffffffffffffffffffffffffffffffffffff1681526020019081526020016000206004015414156122be57600060026000600260008673ffffffffffffffffffffffffffffffffffffffff1673ffffffffffffffffffffffffffffffffffffffff16815260200190815260200160002060010160009054906101000a900473ffffffffffffffffffffffffffffffffffffffff1673ffffffffffffffffffffffffffffffffffffffff1673ffffffffffffffffffffffffffffffffffffffff1681526020019081526020016000206004018190555081905061241b565b6000600260008473ffffffffffffffffffffffffffffffffffffffff1673ffffffffffffffffffffffffffffffffffffffff16815260200190815260200160002060030181905550600160026000600260008673ffffffffffffffffffffffffffffffffffffffff1673ffffffffffffffffffffffffffffffffffffffff16815260200190815260200160002060010160009054906101000a900473ffffffffffffffffffffffffffffffffffffffff1673ffffffffffffffffffffffffffffffffffffffff1673ffffffffffffffffffffffffffffffffffffffff16815260200190815260200160002060030181905550600260008373ffffffffffffffffffffffffffffffffffffffff1673ffffffffffffffffffffffffffffffffffffffff16815260200190815260200160002060010160009054906101000a900473ffffffffffffffffffffffffffffffffffffffff16905061241b565b5b919050565b60006001600260008473ffffffffffffffffffffffffffffffffffffffff1673ffffffffffffffffffffffffffffffffffffffff168152602001908152602001600020600301541415612475578190506124db565b600260008373ffffffffffffffffffffffffffffffffffffffff1673ffffffffffffffffffffffffffffffffffffffff16815260200190815260200160002060010160009054906101000a900473ffffffffffffffffffffffffffffffffffffffff1690505b919050565b600080600260008473ffffffffffffffffffffffffffffffffffffffff1673ffffffffffffffffffffffffffffffffffffffff1681526020019081526020016000206000015460026000600260008773ffffffffffffffffffffffffffffffffffffffff1673ffffffffffffffffffffffffffffffffffffffff16815260200190815260200160002060010160009054906101000a900473ffffffffffffffffffffffffffffffffffffffff1673ffffffffffffffffffffffffffffffffffffffff1673ffffffffffffffffffffffffffffffffffffffff1681526020019081526020016000206000015491509150915091565b600080600560008473ffffffffffffffffffffffffffffffffffffffff1673ffffffffffffffffffffffffffffffffffffffff16815260200190815260200160002060006101000a81548160ff0219169083600281111561263157fe5b02179055506000600281111561264357fe5b600560008473ffffffffffffffffffffffffffffffffffffffff1673ffffffffffffffffffffffffffffffffffffffff16815260200190815260200160002060009054906101000a900460ff16600281111561269b57fe5b14156128115760008090506000600380549050905060008090505b8181101561273f578473ffffffffffffffffffffffffffffffffffffffff16600382815481106126e257fe5b9060005260206000200160009054906101000a900473ffffffffffffffffffffffffffffffffffffffff1673ffffffffffffffffffffffffffffffffffffffff161415612732576001925061273f565b80806001019150506126b6565b50600082141561280e576003849080600181540180825580915050600190039060005260206000200160009091909190916101000a81548173ffffffffffffffffffffffffffffffffffffffff021916908373ffffffffffffffffffffffffffffffffffffffff1602179055506001600560008673ffffffffffffffffffffffffffffffffffffffff1673ffffffffffffffffffffffffffffffffffffffff16815260200190815260200160002060006101000a81548160ff0219169083600281111561280857fe5b02179055505b50505b6000600380549050905080915050919050565b60008060006001600260008673ffffffffffffffffffffffffffffffffffffffff1673ffffffffffffffffffffffffffffffffffffffff1681526020019081526020016000206003015414156133945760028060008673ffffffffffffffffffffffffffffffffffffffff1673ffffffffffffffffffffffffffffffffffffffff168152602001908152602001600020600301819055506002806000600260008873ffffffffffffffffffffffffffffffffffffffff1673ffffffffffffffffffffffffffffffffffffffff16815260200190815260200160002060010160009054906101000a900473ffffffffffffffffffffffffffffffffffffffff1673ffffffffffffffffffffffffffffffffffffffff1673ffffffffffffffffffffffffffffffffffffffff1681526020019081526020016000206003015414156132ee5760026000600260008773ffffffffffffffffffffffffffffffffffffffff1673ffffffffffffffffffffffffffffffffffffffff16815260200190815260200160002060010160009054906101000a900473ffffffffffffffffffffffffffffffffffffffff1673ffffffffffffffffffffffffffffffffffffffff1673ffffffffffffffffffffffffffffffffffffffff16815260200190815260200160002060000154600260008673ffffffffffffffffffffffffffffffffffffffff1673ffffffffffffffffffffffffffffffffffffffff168152602001908152602001600020600001541315612ae9576001600260008673ffffffffffffffffffffffffffffffffffffffff1673ffffffffffffffffffffffffffffffffffffffff1681526020019081526020016000206002015401600260008673ffffffffffffffffffffffffffffffffffffffff1673ffffffffffffffffffffffffffffffffffffffff16815260200190815260200160002060020181905550839050612d97565b60026000600260008773ffffffffffffffffffffffffffffffffffffffff1673ffffffffffffffffffffffffffffffffffffffff16815260200190815260200160002060010160009054906101000a900473ffffffffffffffffffffffffffffffffffffffff1673ffffffffffffffffffffffffffffffffffffffff1673ffffffffffffffffffffffffffffffffffffffff16815260200190815260200160002060000154600260008673ffffffffffffffffffffffffffffffffffffffff1673ffffffffffffffffffffffffffffffffffffffff168152602001908152602001600020600001541215612d9157600160026000600260008873ffffffffffffffffffffffffffffffffffffffff1673ffffffffffffffffffffffffffffffffffffffff16815260200190815260200160002060010160009054906101000a900473ffffffffffffffffffffffffffffffffffffffff1673ffffffffffffffffffffffffffffffffffffffff1673ffffffffffffffffffffffffffffffffffffffff168152602001908152602001600020600201540160026000600260008873ffffffffffffffffffffffffffffffffffffffff1673ffffffffffffffffffffffffffffffffffffffff16815260200190815260200160002060010160009054906101000a900473ffffffffffffffffffffffffffffffffffffffff1673ffffffffffffffffffffffffffffffffffffffff1673ffffffffffffffffffffffffffffffffffffffff16815260200190815260200160002060020181905550600260008573ffffffffffffffffffffffffffffffffffffffff1673ffffffffffffffffffffffffffffffffffffffff16815260200190815260200160002060010160009054906101000a900473ffffffffffffffffffffffffffffffffffffffff169050612d96565b600090505b5b60028060008673ffffffffffffffffffffffffffffffffffffffff1673ffffffffffffffffffffffffffffffffffffffff168152602001908152602001600020600201541415612df4578390506001818191509250925050613396565b6002806000600260008873ffffffffffffffffffffffffffffffffffffffff1673ffffffffffffffffffffffffffffffffffffffff16815260200190815260200160002060010160009054906101000a900473ffffffffffffffffffffffffffffffffffffffff1673ffffffffffffffffffffffffffffffffffffffff1673ffffffffffffffffffffffffffffffffffffffff168152602001908152602001600020600201541415612f1557600260008573ffffffffffffffffffffffffffffffffffffffff1673ffffffffffffffffffffffffffffffffffffffff16815260200190815260200160002060010160009054906101000a900473ffffffffffffffffffffffffffffffffffffffff1690506001818191509250925050613396565b8373ffffffffffffffffffffffffffffffffffffffff16600260008673ffffffffffffffffffffffffffffffffffffffff1673ffffffffffffffffffffffffffffffffffffffff16815260200190815260200160002060050160009054906101000a900473ffffffffffffffffffffffffffffffffffffffff1673ffffffffffffffffffffffffffffffffffffffff16141561318557600260008573ffffffffffffffffffffffffffffffffffffffff1673ffffffffffffffffffffffffffffffffffffffff16815260200190815260200160002060010160009054906101000a900473ffffffffffffffffffffffffffffffffffffffff16600260008673ffffffffffffffffffffffffffffffffffffffff1673ffffffffffffffffffffffffffffffffffffffff16815260200190815260200160002060050160006101000a81548173ffffffffffffffffffffffffffffffffffffffff021916908373ffffffffffffffffffffffffffffffffffffffff1602179055506000600260008673ffffffffffffffffffffffffffffffffffffffff1673ffffffffffffffffffffffffffffffffffffffff16815260200190815260200160002060030181905550600160026000600260008873ffffffffffffffffffffffffffffffffffffffff1673ffffffffffffffffffffffffffffffffffffffff16815260200190815260200160002060010160009054906101000a900473ffffffffffffffffffffffffffffffffffffffff1673ffffffffffffffffffffffffffffffffffffffff1673ffffffffffffffffffffffffffffffffffffffff168152602001908152602001600020600301819055506132de565b8373ffffffffffffffffffffffffffffffffffffffff16600260008673ffffffffffffffffffffffffffffffffffffffff1673ffffffffffffffffffffffffffffffffffffffff16815260200190815260200160002060050160009054906101000a905050506001600260008673ffffffffffffffffffffffffffffffffffffffff1673ffffffffffffffffffffffffffffffffffffffff16815260200190815260200160002060030181905550600060026000600260008873ffffffffffffffffffffffffffffffffffffffff1673ffffffffffffffffffffffffffffffffffffffff16815260200190815260200160002060010160009054906101000a900473ffffffffffffffffffffffffffffffffffffffff1673ffffffffffffffffffffffffffffffffffffffff1673ffffffffffffffffffffffffffffffffffffffff168152602001908152602001600020600301819055505b6000818191509250925050613396565b600160026000600260008873ffffffffffffffffffffffffffffffffffffffff1673ffffffffffffffffffffffffffffffffffffffff16815260200190815260200160002060010160009054906101000a900473ffffffffffffffffffffffffffffffffffffffff1673ffffffffffffffffffffffffffffffffffffffff1673ffffffffffffffffffffffffffffffffffffffff16815260200190815260200160002050505b505b915091565b6133a3613892565b73ffffffffffffffffffffffffffffffffffffffff166000809054906101000a900473ffffffffffffffffffffffffffffffffffffffff1673ffffffffffffffffffffffffffffffffffffffff1614613431576040517f08c379a000000000000000000000000000000000000000000000000000000000815260040161342890613d45565b60405180910390fd5b600073ffffffffffffffffffffffffffffffffffffffff168173ffffffffffffffffffffffffffffffffffffffff1614156134a1576040517f08c379a000000000000000000000000000000000000000000000000000000000815260040161349890613d25565b60405180910390fd5b8073ffffffffffffffffffffffffffffffffffffffff166000809054906101000a900473ffffffffffffffffffffffffffffffffffffffff1673ffffffffffffffffffffffffffffffffffffffff167f8be0079c531659141344cd1fd0a4f28419497f9722a3daafe3b4186f6b6457e060405160405180910390a3806000806101000a81548173ffffffffffffffffffffffffffffffffffffffff021916908373ffffffffffffffffffffffffffffffffffffffff16021790555050565b60006002600380549050101580156135d957506001600281111561357f57fe5b600560008473ffffffffffffffffffffffffffffffffffffffff1673ffffffffffffffffffffffffffffffffffffffff16815260200190815260200160002060009054906101000a900460ff1660028111156135d757fe5b145b156137b65760006135ee600380549050610789565b90505b600381815481106135fe57fe5b9060005260206000200160009054906101000a900473ffffffffffffffffffffffffffffffffffffffff1673ffffffffffffffffffffffffffffffffffffffff168373ffffffffffffffffffffffffffffffffffffffff1614156136715761366a600380549050610789565b90506135f1565b6002600560008573ffffffffffffffffffffffffffffffffffffffff1673ffffffffffffffffffffffffffffffffffffffff16815260200190815260200160002060006101000a81548160ff021916908360028111156136cd57fe5b0217905550600260056000600384815481106136e557fe5b9060005260206000200160009054906101000a900473ffffffffffffffffffffffffffffffffffffffff1673ffffffffffffffffffffffffffffffffffffffff1673ffffffffffffffffffffffffffffffffffffffff16815260200190815260200160002060006101000a81548160ff0219169083600281111561376557fe5b0217905550600083905060006003838154811061377e57fe5b9060005260206000200160009054906101000a900473ffffffffffffffffffffffffffffffffffffffff1690508093505050506137ba565b8190505b919050565b600460009054906101000a900473ffffffffffffffffffffffffffffffffffffffff1673ffffffffffffffffffffffffffffffffffffffff166338e5cdce826040518263ffffffff1660e01b815260040161381a9190613d65565b60806040518083038186803b15801561383257600080fd5b505afa158015613846573d6000803e3d6000fd5b505050506040513d601f19601f8201168201806040525081019061386a9190613a86565b8560000186604001876060018860200184815250848152508481525084815250505050505050565b600033905090565b6040518060800160405280600081526020016000815260200160008152602001600081525090565b50805460008255906000526020600020908101906138e091906138e3565b50565b61390591905b808211156139015760008160009055506001016138e9565b5090565b90565b60008135905061391781613e67565b92915050565b60008135905061392c81613e7e565b92915050565b60008151905061394181613e7e565b92915050565b60006080828403121561395957600080fd5b6139636080613da9565b905060006139738482850161391d565b6000830152506020613987848285016139bb565b602083015250604061399b848285016139bb565b60408301525060606139af8482850161391d565b60608301525092915050565b6000813590506139ca81613e95565b92915050565b6000815190506139df81613e95565b92915050565b6000602082840312156139f757600080fd5b6000613a0584828501613908565b91505092915050565b60008060408385031215613a2157600080fd5b6000613a2f85828601613908565b9250506020613a4085828601613908565b9150509250929050565b60008060408385031215613a5d57600080fd5b6000613a6b85828601613908565b9250506020613a7c858286016139bb565b9150509250929050565b60008060008060808587031215613a9c57600080fd5b6000613aaa87828801613932565b9450506020613abb878288016139d0565b9350506040613acc87828801613932565b9250506060613add878288016139d0565b91505092959194509250565b60008060a08385031215613afc57600080fd5b6000613b0a85828601613947565b9250506080613b1b858286016139bb565b9150509250929050565b600060208284031215613b3757600080fd5b6000613b45848285016139bb565b91505092915050565b613b5781613de7565b82525050565b613b6681613df9565b82525050565b613b7581613e39565b82525050565b613b8481613e05565b82525050565b6000613b97602683613dd6565b91507f4f776e61626c653a206e6577206f776e657220697320746865207a65726f206160008301527f64647265737300000000000000000000000000000000000000000000000000006020830152604082019050919050565b6000613bfd602083613dd6565b91507f4f776e61626c653a2063616c6c6572206973206e6f7420746865206f776e65726000830152602082019050919050565b613c3981613e2f565b82525050565b613c50613c4b82613e2f565b613e5d565b82525050565b6000613c628285613c3f565b602082019150613c728284613c3f565b6020820191508190509392505050565b6000602082019050613c976000830184613b4e565b92915050565b6000604082019050613cb26000830185613b4e565b613cbf6020830184613b4e565b9392505050565b6000602082019050613cdb6000830184613b5d565b92915050565b6000602082019050613cf66000830184613b6c565b92915050565b6000604082019050613d116000830185613b7b565b613d1e6020830184613b7b565b9392505050565b60006020820190508181036000830152613d3e81613b8a565b9050919050565b60006020820190508181036000830152613d5e81613bf0565b9050919050565b6000602082019050613d7a6000830184613c30565b92915050565b6000604082019050613d956000830185613c30565b613da26020830184613b4e565b9392505050565b6000604051905081810181811067ffffffffffffffff82111715613dcc57600080fd5b8060405250919050565b600082825260208201905092915050565b6000613df282613e0f565b9050919050565b60008115159050919050565b6000819050919050565b600073ffffffffffffffffffffffffffffffffffffffff82169050919050565b6000819050919050565b6000613e4482613e4b565b9050919050565b6000613e5682613e0f565b9050919050565b6000819050919050565b613e7081613de7565b8114613e7b57600080fd5b50565b613e8781613e05565b8114613e9257600080fd5b50565b613e9e81613e2f565b8114613ea957600080fd5b5056fea264697066735822122067c8138c5b184fb95ff280c7e593921eae274577761a189046270bd1db4d322064736f6c63430006060033",
  "immutableReferences": {},
  "source": "pragma solidity ^0.6.0;\npragma experimental ABIEncoderV2;\nimport \"./ERC777Token.sol\";\nimport \"./CardsMarket.sol\";\nimport \"../node_modules/@openzeppelin/contracts/access/Ownable.sol\";\ncontract Game is Ownable{\n\n    struct SingleGame{//\n        int totalAggressivityOfPlayer;//\n        // uint[] cardsorts;//\n        address Opponent;//\n        uint result; //2\n        uint Mover;//\n        uint NightCantMove;//\n        address DefaultMover;//\n        uint[] used_cards;//\n\tuint[] temp_used_cards;\n    }\n    struct GameResult{//\n        uint ifend;//10\n        address winner;//\n    }\n    struct playerCardsorts{\n        uint[] cardsorts;\n    }\n    mapping (address => playerCardsorts) Cardsorts;\n    // mapping (address => address) public Opponent;\n    mapping (address => SingleGame) SingleGameProperty;//\n    struct CardDes{//\n            int aggressivity;//\n            uint sort;///DNA\n            uint Object_of_action;//\n            int aggressivity_action;//\n            \n        }\n    // SingleGame[] public SingleGames;\n    // uint256 WaitGamerNum = 0;//\n    // mapping(address => uint256[]) public usersSingleGames;\n    address[] public WaitGamer;//\n    // address[] Gamers;//\n    CardsMarket public cardsmarket;//CardsMarket\n\n    enum State{//\n\trest,\n        wait,//\n        playTime//\n    }\n    mapping(address => State) PlayerState;//\nfunction Link_CardsMarket(address address_CardsMarket) public {\n        cardsmarket = CardsMarket(address_CardsMarket);\n    }\n    function creatSingleGame(address player1,address player2) payable public returns(uint256){//\n        SingleGameProperty[player1].Opponent = player2;\n        SingleGameProperty[player2].Opponent = player1;\n        SingleGameProperty[player1].totalAggressivityOfPlayer=0;\n        SingleGameProperty[player2].totalAggressivityOfPlayer=0;\n        SingleGameProperty[player1].result = 0;\n        SingleGameProperty[player2].result = 0;\n        delete SingleGameProperty[player1].used_cards;\n        delete SingleGameProperty[player1].temp_used_cards;\n        delete SingleGameProperty[player2].used_cards;\n        delete SingleGameProperty[player2].temp_used_cards;\n        SingleGameProperty[player1].NightCantMove = 0;\n        SingleGameProperty[player2].NightCantMove = 0;\n        uint Mover = rand(2);\n        if(Mover == 0){\n            SingleGameProperty[player1].Mover = 1;\n            SingleGameProperty[player2].Mover = 0;\n            SingleGameProperty[player1].DefaultMover = player1;\n            SingleGameProperty[player2].DefaultMover = player1;\n        }\n        else{\n            SingleGameProperty[player1].Mover = 0;\n            SingleGameProperty[player2].Mover = 1;\n            SingleGameProperty[player1].DefaultMover = player2;\n            SingleGameProperty[player2].DefaultMover = player2;\n        }\n\tPopWaitGamer(player1);\n        PopWaitGamer(player2);\n\n\treturn Mover;\n    }\n\n\n\tfunction Can_I_Play(address player) public view returns (address Opponent,address DefaultMover){\n            return (SingleGameProperty[player].Opponent,SingleGameProperty[player].DefaultMover);\n            }\n    function WhoIsMover(address player) public view returns(address Mover){\n        if(SingleGameProperty[player].Mover==1){\n            return player;\n        }\n        else{\n            return SingleGameProperty[player].Opponent;\n        }\n    }\n    function playTime(address player, uint tokenId) public returns(uint256){//\n        if(SingleGameProperty[player].Mover == 1){\n            CardDes memory thisCard;\n            getCardProperty(thisCard,tokenId);\n            SingleGameProperty[player].used_cards.push(tokenId);\n\t\tSingleGameProperty[player].temp_used_cards.push(tokenId);\n            SingleGameProperty[player].totalAggressivityOfPlayer = SingleGameProperty[player].totalAggressivityOfPlayer+thisCard.aggressivity;\n            if(thisCard.Object_of_action==0){//\n                SingleGameProperty[player].totalAggressivityOfPlayer = SingleGameProperty[player].totalAggressivityOfPlayer - thisCard.aggressivity_action;\n            }\n            else{//\n                SingleGameProperty[SingleGameProperty[player].Opponent].totalAggressivityOfPlayer = SingleGameProperty[SingleGameProperty[player].Opponent].totalAggressivityOfPlayer - thisCard.aggressivity_action;\n            }\n            if(thisCard.sort==18){//\n                SingleGameProperty[SingleGameProperty[player].Opponent].NightCantMove = 1;\n                \n            }\n            else if(thisCard.sort==20){//\n                if(ifusedCards_has_TokenId(SingleGameProperty[player].Opponent,3)){\n                    CardDes memory thatCard;\n                    getCardProperty(thatCard,3);\n                    SingleGameProperty[player].totalAggressivityOfPlayer = SingleGameProperty[player].totalAggressivityOfPlayer+thatCard.aggressivity_action;\n                }\n            }\n            else if(thisCard.sort==21){//\n                if(ifusedCards_has_TokenId(player,14)){\n                    CardDes memory thatCard;\n                    getCardProperty(thatCard,14);\n                    SingleGameProperty[player].totalAggressivityOfPlayer = SingleGameProperty[player].totalAggressivityOfPlayer+thatCard.aggressivity_action;\n                }\n                if(ifusedCards_has_TokenId(SingleGameProperty[player].Opponent,14)){\n                    CardDes memory thatCard;\n                    getCardProperty(thatCard,14);\n                    SingleGameProperty[SingleGameProperty[player].Opponent].totalAggressivityOfPlayer = SingleGameProperty[SingleGameProperty[player].Opponent].totalAggressivityOfPlayer+thatCard.aggressivity_action;\n                }\n            }\n        }\n    }\n\n\n    function restTime(address player) public returns(address){//\n        if(SingleGameProperty[player].Mover == 1){\n            if(SingleGameProperty[SingleGameProperty[player].Opponent].Mover==2){//\n                SingleGameProperty[player].Mover = 1;\n                return player;\n            }\n            else{//\n                if(SingleGameProperty[SingleGameProperty[player].Opponent].NightCantMove == 1){//\n                    SingleGameProperty[SingleGameProperty[player].Opponent].NightCantMove = 0;\n                    return player;\n                }\n                else{//\n                    SingleGameProperty[player].Mover = 0;\n                    SingleGameProperty[SingleGameProperty[player].Opponent].Mover = 1;\n                    return SingleGameProperty[player].Opponent;    \n                }\n            }\n        }\n    }\n\n        function dropTime(address player) public returns (uint , address){//\n        address nowwinner;\n        if(SingleGameProperty[player].Mover == 1){\n            SingleGameProperty[player].Mover = 2;\n            if(SingleGameProperty[SingleGameProperty[player].Opponent].Mover == 2){//\n                if((SingleGameProperty[player].totalAggressivityOfPlayer)>(SingleGameProperty[SingleGameProperty[player].Opponent].totalAggressivityOfPlayer)){\n                    SingleGameProperty[player].result = SingleGameProperty[player].result + 1;\n                    nowwinner=player;//\n                }\n                else if((SingleGameProperty[player].totalAggressivityOfPlayer)<(SingleGameProperty[SingleGameProperty[player].Opponent].totalAggressivityOfPlayer)){\n                    SingleGameProperty[SingleGameProperty[player].Opponent].result = SingleGameProperty[SingleGameProperty[player].Opponent].result + 1;\n                    nowwinner=SingleGameProperty[player].Opponent;//\n                }\n                else{\n                    nowwinner = address(0);//\n                }\n                if(SingleGameProperty[player].result==2){//\n                    nowwinner = player;\n                    // cancelSingleGame(player,SingleGameProperty[player].Opponent);\n                    return (1,nowwinner);\n                }\n                else if(SingleGameProperty[SingleGameProperty[player].Opponent].result==2){//\n                    nowwinner = SingleGameProperty[player].Opponent;\n                    // cancelSingleGame(player,SingleGameProperty[player].Opponent);\n                    return (1,nowwinner);\n                    \n                }\n                else{//\n                    if(SingleGameProperty[player].DefaultMover==player){\n                        SingleGameProperty[player].DefaultMover=SingleGameProperty[player].Opponent;\n                        SingleGameProperty[player].Mover=0;\n                        SingleGameProperty[SingleGameProperty[player].Opponent].Mover=1;\n                    }\n                    else{\n                        SingleGameProperty[player].DefaultMover==player;\n                        SingleGameProperty[player].Mover=1;\n                        SingleGameProperty[SingleGameProperty[player].Opponent].Mover=0;\n                    }\n                    return (0,nowwinner);\n                }\n            }\n            else{//\n                SingleGameProperty[SingleGameProperty[player].Opponent].Mover == 1;\n            }\n        }\n    }\n    function NumOfTempCards(address player) public view returns(uint){\n        return SingleGameProperty[SingleGameProperty[player].Opponent].temp_used_cards.length;\n    }\n    function ThisTempCards(address player,uint index) public view returns(uint){\n        return SingleGameProperty[SingleGameProperty[player].Opponent].temp_used_cards[index];\n    }\n\tfunction DeleteHisTempCards(address player) public{\n\t\tdelete SingleGameProperty[player].temp_used_cards;\n        delete SingleGameProperty[SingleGameProperty[player].Opponent].temp_used_cards;\n\t}\n    function gettotalAggressivity(address player) public view returns(int mine,int him){\n        return (SingleGameProperty[player].totalAggressivityOfPlayer,SingleGameProperty[SingleGameProperty[player].Opponent].totalAggressivityOfPlayer);\n    }\n// function ifusedCards_has_TokenId(address player,uint tokenId) public returns(bool) {//\nfunction ifusedCards_has_TokenId(address player,uint tokenId) public view returns(bool){\n        uint length = SingleGameProperty[player].used_cards.length;\n        uint i=0;\n        for(i=0;i<length;i++){\n            if(SingleGameProperty[player].used_cards[i]==tokenId){\n                return true;\n            }\n            else{\n                \n            }\n            \n        }\n        return false;\n    }\n    function cancelSingleGame(address player1,address player2) public {//\n        address nowplayer1=player1;\n        address nowplayer2=player2;\n        delete SingleGameProperty[nowplayer1];\n        delete SingleGameProperty[nowplayer2];\n\tPopWaitGamer(player1);\n        PopWaitGamer(player2);\n    }\n    function PushWaitGamer(address player) public returns(uint) {//\n        PlayerState[player]=State.rest;\n        if(PlayerState[player]==State.rest){//\n            uint user_is_on = 0;\n            uint length = WaitGamer.length;\n            for(uint i=0;i<length;i++){\n                if(WaitGamer[i]==player){\n                    user_is_on = 1;\n                    break;\n                }\n            }\n            if(user_is_on ==0){\n                WaitGamer.push(player);\n\t\t        PlayerState[player]=State.wait;\n            }\n            \n        }\n        uint nowlength=WaitGamer.length;\n\t        return nowlength;\n    }\n    function PopWaitGamer(address player) public {//\n        PlayerState[player] = State.rest;\n        uint length = WaitGamer.length;\n        for(uint i=0;i<length;i++){\n            if(WaitGamer[i]==player){\n                delete WaitGamer[i];\n                WaitGamer[i]=WaitGamer[length-1];\n                WaitGamer.pop();\n                break;\n            }\n        }\n        \n    }    \n\tfunction GetTheOpponent(address self) public returns(address){//\n        if(WaitGamer.length>=2&&PlayerState[self]==State.wait){\n        uint256 random2 = rand(WaitGamer.length);\n        while(self==WaitGamer[random2]){\n            random2 = rand(WaitGamer.length);\n        }\n        PlayerState[self]=State.playTime;\n        PlayerState[WaitGamer[random2]]=State.playTime;\n        address player1 = self;\n        address player2 = WaitGamer[random2];\n        //PopWaitGamer(self);\n        //PopWaitGamer(WaitGamer[random2]);\n        //creatSingleGame(player1,player2);\n        return player2;\n        }\n        else{\n            return self;\n        }\n    }\n    function rand(uint256 _length) public view returns(uint256) {//\n        uint256 random = uint256(keccak256(abi.encodePacked(block.difficulty, now)))%_length;\n        return random;\n}\n    function getNumOfWaitGamer() public view returns(uint){\n        return WaitGamer.length;\n    }\n    function getCardProperty(CardDes memory thisCard,uint256 card) public view  {//\n        (thisCard.aggressivity,thisCard.Object_of_action,thisCard.aggressivity_action,thisCard.sort) = cardsmarket.getTokenProperty(card);\n    }\n}\n",
  "sourcePath": "/usr/project/ChainsMafia/ChainsMafia/contracts/Game.sol",
  "compiler": {
    "name": "solc",
    "version": "0.6.6+commit.6c089d02.Emscripten.clang"
  },
  "schemaVersion": "3.2.5",
  "updatedAt": "2020-10-25T03:17:38.181Z",
  "networkType": "ethereum",
  "devdoc": {
    "methods": {
      "owner()": {
        "details": "Returns the address of the current owner."
      },
      "renounceOwnership()": {
        "details": "Leaves the contract without owner. It will not be possible to call `onlyOwner` functions anymore. Can only be called by the current owner.     * NOTE: Renouncing ownership will leave the contract without an owner, thereby removing any functionality that is only available to the owner."
      },
      "transferOwnership(address)": {
        "details": "Transfers ownership of the contract to a new account (`newOwner`). Can only be called by the current owner."
      }
    }
  },
  "userdoc": {
    "methods": {}
  }
}