{
  "contractName": "CardsMarket",
  "abi": [
    {
      "inputs": [],
      "stateMutability": "nonpayable",
      "type": "constructor"
    },
    {
      "anonymous": false,
      "inputs": [
        {
          "indexed": true,
          "internalType": "address",
          "name": "owner",
          "type": "address"
        },
        {
          "indexed": true,
          "internalType": "address",
          "name": "approved",
          "type": "address"
        },
        {
          "indexed": true,
          "internalType": "uint256",
          "name": "tokenId",
          "type": "uint256"
        }
      ],
      "name": "Approval",
      "type": "event"
    },
    {
      "anonymous": false,
      "inputs": [
        {
          "indexed": true,
          "internalType": "address",
          "name": "owner",
          "type": "address"
        },
        {
          "indexed": true,
          "internalType": "address",
          "name": "operator",
          "type": "address"
        },
        {
          "indexed": false,
          "internalType": "bool",
          "name": "approved",
          "type": "bool"
        }
      ],
      "name": "ApprovalForAll",
      "type": "event"
    },
    {
      "anonymous": false,
      "inputs": [
        {
          "indexed": false,
          "internalType": "string",
          "name": "applicationName",
          "type": "string"
        },
        {
          "indexed": false,
          "internalType": "string",
          "name": "workflowName",
          "type": "string"
        },
        {
          "indexed": false,
          "internalType": "address",
          "name": "originatingAddress",
          "type": "address"
        }
      ],
      "name": "ContractCreated",
      "type": "event"
    },
    {
      "anonymous": false,
      "inputs": [
        {
          "indexed": false,
          "internalType": "string",
          "name": "applicationName",
          "type": "string"
        },
        {
          "indexed": false,
          "internalType": "string",
          "name": "workflowName",
          "type": "string"
        },
        {
          "indexed": false,
          "internalType": "string",
          "name": "action",
          "type": "string"
        },
        {
          "indexed": false,
          "internalType": "address",
          "name": "originatingAddress",
          "type": "address"
        }
      ],
      "name": "ContractUpdated",
      "type": "event"
    },
    {
      "anonymous": false,
      "inputs": [
        {
          "indexed": true,
          "internalType": "address",
          "name": "previousOwner",
          "type": "address"
        },
        {
          "indexed": true,
          "internalType": "address",
          "name": "newOwner",
          "type": "address"
        }
      ],
      "name": "OwnershipTransferred",
      "type": "event"
    },
    {
      "anonymous": false,
      "inputs": [
        {
          "indexed": true,
          "internalType": "address",
          "name": "from",
          "type": "address"
        },
        {
          "indexed": true,
          "internalType": "address",
          "name": "to",
          "type": "address"
        },
        {
          "indexed": true,
          "internalType": "uint256",
          "name": "tokenId",
          "type": "uint256"
        }
      ],
      "name": "Transfer",
      "type": "event"
    },
    {
      "inputs": [
        {
          "internalType": "uint256",
          "name": "",
          "type": "uint256"
        }
      ],
      "name": "AllInstanceBuyer",
      "outputs": [
        {
          "internalType": "address",
          "name": "Buyer_address",
          "type": "address"
        },
        {
          "internalType": "uint256",
          "name": "Card_mapping_key",
          "type": "uint256"
        },
        {
          "internalType": "uint256",
          "name": "offerPrize",
          "type": "uint256"
        }
      ],
      "stateMutability": "view",
      "type": "function"
    },
    {
      "inputs": [
        {
          "internalType": "uint256",
          "name": "",
          "type": "uint256"
        }
      ],
      "name": "AllInstanceOwner",
      "outputs": [
        {
          "internalType": "address",
          "name": "Owner_address",
          "type": "address"
        },
        {
          "internalType": "uint256",
          "name": "Card_mapping_key",
          "type": "uint256"
        },
        {
          "internalType": "uint256",
          "name": "AskingPrice",
          "type": "uint256"
        },
        {
          "internalType": "string",
          "name": "Description",
          "type": "string"
        }
      ],
      "stateMutability": "view",
      "type": "function"
    },
    {
      "inputs": [
        {
          "internalType": "uint256",
          "name": "",
          "type": "uint256"
        }
      ],
      "name": "All_Cards",
      "outputs": [
        {
          "internalType": "string",
          "name": "name",
          "type": "string"
        },
        {
          "internalType": "int256",
          "name": "aggressivity",
          "type": "int256"
        },
        {
          "internalType": "int256",
          "name": "defense",
          "type": "int256"
        },
        {
          "internalType": "uint256",
          "name": "quantity",
          "type": "uint256"
        },
        {
          "internalType": "string",
          "name": "description",
          "type": "string"
        },
        {
          "internalType": "uint256",
          "name": "Object_of_action",
          "type": "uint256"
        },
        {
          "internalType": "int256",
          "name": "aggressivity_action",
          "type": "int256"
        },
        {
          "internalType": "int256",
          "name": "defense_action",
          "type": "int256"
        },
        {
          "internalType": "uint256",
          "name": "tokenid",
          "type": "uint256"
        }
      ],
      "stateMutability": "view",
      "type": "function"
    },
    {
      "inputs": [
        {
          "internalType": "address",
          "name": "to",
          "type": "address"
        },
        {
          "internalType": "uint256",
          "name": "tokenId",
          "type": "uint256"
        }
      ],
      "name": "approve",
      "outputs": [],
      "stateMutability": "nonpayable",
      "type": "function"
    },
    {
      "inputs": [
        {
          "internalType": "address",
          "name": "owner",
          "type": "address"
        }
      ],
      "name": "balanceOf",
      "outputs": [
        {
          "internalType": "uint256",
          "name": "",
          "type": "uint256"
        }
      ],
      "stateMutability": "view",
      "type": "function"
    },
    {
      "inputs": [],
      "name": "baseURI",
      "outputs": [
        {
          "internalType": "string",
          "name": "",
          "type": "string"
        }
      ],
      "stateMutability": "view",
      "type": "function"
    },
    {
      "inputs": [
        {
          "internalType": "uint256",
          "name": "",
          "type": "uint256"
        }
      ],
      "name": "card_aggressivity",
      "outputs": [
        {
          "internalType": "int256",
          "name": "",
          "type": "int256"
        }
      ],
      "stateMutability": "view",
      "type": "function"
    },
    {
      "inputs": [
        {
          "internalType": "uint256",
          "name": "",
          "type": "uint256"
        }
      ],
      "name": "card_defense",
      "outputs": [
        {
          "internalType": "int256",
          "name": "",
          "type": "int256"
        }
      ],
      "stateMutability": "view",
      "type": "function"
    },
    {
      "inputs": [
        {
          "internalType": "uint256",
          "name": "",
          "type": "uint256"
        }
      ],
      "name": "card_names",
      "outputs": [
        {
          "internalType": "string",
          "name": "",
          "type": "string"
        }
      ],
      "stateMutability": "view",
      "type": "function"
    },
    {
      "inputs": [
        {
          "internalType": "uint256",
          "name": "tokenId",
          "type": "uint256"
        }
      ],
      "name": "getApproved",
      "outputs": [
        {
          "internalType": "address",
          "name": "",
          "type": "address"
        }
      ],
      "stateMutability": "view",
      "type": "function"
    },
    {
      "inputs": [
        {
          "internalType": "address",
          "name": "owner",
          "type": "address"
        },
        {
          "internalType": "address",
          "name": "operator",
          "type": "address"
        }
      ],
      "name": "isApprovedForAll",
      "outputs": [
        {
          "internalType": "bool",
          "name": "",
          "type": "bool"
        }
      ],
      "stateMutability": "view",
      "type": "function"
    },
    {
      "inputs": [
        {
          "internalType": "uint256",
          "name": "",
          "type": "uint256"
        }
      ],
      "name": "map_cards",
      "outputs": [
        {
          "internalType": "string",
          "name": "name",
          "type": "string"
        },
        {
          "internalType": "int256",
          "name": "aggressivity",
          "type": "int256"
        },
        {
          "internalType": "int256",
          "name": "defense",
          "type": "int256"
        },
        {
          "internalType": "uint256",
          "name": "quantity",
          "type": "uint256"
        },
        {
          "internalType": "string",
          "name": "description",
          "type": "string"
        },
        {
          "internalType": "uint256",
          "name": "Object_of_action",
          "type": "uint256"
        },
        {
          "internalType": "int256",
          "name": "aggressivity_action",
          "type": "int256"
        },
        {
          "internalType": "int256",
          "name": "defense_action",
          "type": "int256"
        },
        {
          "internalType": "uint256",
          "name": "tokenid",
          "type": "uint256"
        }
      ],
      "stateMutability": "view",
      "type": "function"
    },
    {
      "inputs": [],
      "name": "name",
      "outputs": [
        {
          "internalType": "string",
          "name": "",
          "type": "string"
        }
      ],
      "stateMutability": "view",
      "type": "function"
    },
    {
      "inputs": [],
      "name": "owner",
      "outputs": [
        {
          "internalType": "address",
          "name": "",
          "type": "address"
        }
      ],
      "stateMutability": "view",
      "type": "function"
    },
    {
      "inputs": [
        {
          "internalType": "uint256",
          "name": "tokenId",
          "type": "uint256"
        }
      ],
      "name": "ownerOf",
      "outputs": [
        {
          "internalType": "address",
          "name": "",
          "type": "address"
        }
      ],
      "stateMutability": "view",
      "type": "function"
    },
    {
      "inputs": [],
      "name": "renounceOwnership",
      "outputs": [],
      "stateMutability": "nonpayable",
      "type": "function"
    },
    {
      "inputs": [
        {
          "internalType": "address",
          "name": "from",
          "type": "address"
        },
        {
          "internalType": "address",
          "name": "to",
          "type": "address"
        },
        {
          "internalType": "uint256",
          "name": "tokenId",
          "type": "uint256"
        }
      ],
      "name": "safeTransferFrom",
      "outputs": [],
      "stateMutability": "nonpayable",
      "type": "function"
    },
    {
      "inputs": [
        {
          "internalType": "address",
          "name": "from",
          "type": "address"
        },
        {
          "internalType": "address",
          "name": "to",
          "type": "address"
        },
        {
          "internalType": "uint256",
          "name": "tokenId",
          "type": "uint256"
        },
        {
          "internalType": "bytes",
          "name": "_data",
          "type": "bytes"
        }
      ],
      "name": "safeTransferFrom",
      "outputs": [],
      "stateMutability": "nonpayable",
      "type": "function"
    },
    {
      "inputs": [
        {
          "internalType": "address",
          "name": "operator",
          "type": "address"
        },
        {
          "internalType": "bool",
          "name": "approved",
          "type": "bool"
        }
      ],
      "name": "setApprovalForAll",
      "outputs": [],
      "stateMutability": "nonpayable",
      "type": "function"
    },
    {
      "inputs": [
        {
          "internalType": "bytes4",
          "name": "interfaceId",
          "type": "bytes4"
        }
      ],
      "name": "supportsInterface",
      "outputs": [
        {
          "internalType": "bool",
          "name": "",
          "type": "bool"
        }
      ],
      "stateMutability": "view",
      "type": "function"
    },
    {
      "inputs": [],
      "name": "symbol",
      "outputs": [
        {
          "internalType": "string",
          "name": "",
          "type": "string"
        }
      ],
      "stateMutability": "view",
      "type": "function"
    },
    {
      "inputs": [
        {
          "internalType": "uint256",
          "name": "index",
          "type": "uint256"
        }
      ],
      "name": "tokenByIndex",
      "outputs": [
        {
          "internalType": "uint256",
          "name": "",
          "type": "uint256"
        }
      ],
      "stateMutability": "view",
      "type": "function"
    },
    {
      "inputs": [
        {
          "internalType": "address",
          "name": "owner",
          "type": "address"
        },
        {
          "internalType": "uint256",
          "name": "index",
          "type": "uint256"
        }
      ],
      "name": "tokenOfOwnerByIndex",
      "outputs": [
        {
          "internalType": "uint256",
          "name": "",
          "type": "uint256"
        }
      ],
      "stateMutability": "view",
      "type": "function"
    },
    {
      "inputs": [
        {
          "internalType": "uint256",
          "name": "tokenId",
          "type": "uint256"
        }
      ],
      "name": "tokenURI",
      "outputs": [
        {
          "internalType": "string",
          "name": "",
          "type": "string"
        }
      ],
      "stateMutability": "view",
      "type": "function"
    },
    {
      "inputs": [],
      "name": "totalSupply",
      "outputs": [
        {
          "internalType": "uint256",
          "name": "",
          "type": "uint256"
        }
      ],
      "stateMutability": "view",
      "type": "function"
    },
    {
      "inputs": [
        {
          "internalType": "address",
          "name": "from",
          "type": "address"
        },
        {
          "internalType": "address",
          "name": "to",
          "type": "address"
        },
        {
          "internalType": "uint256",
          "name": "tokenId",
          "type": "uint256"
        }
      ],
      "name": "transferFrom",
      "outputs": [],
      "stateMutability": "nonpayable",
      "type": "function"
    },
    {
      "inputs": [
        {
          "internalType": "address",
          "name": "newOwner",
          "type": "address"
        }
      ],
      "name": "transferOwnership",
      "outputs": [],
      "stateMutability": "nonpayable",
      "type": "function"
    },
    {
      "inputs": [
        {
          "internalType": "string",
          "name": "_name",
          "type": "string"
        },
        {
          "internalType": "int256",
          "name": "_aggressivity",
          "type": "int256"
        },
        {
          "internalType": "int256",
          "name": "_defense",
          "type": "int256"
        },
        {
          "internalType": "uint256",
          "name": "_quantity",
          "type": "uint256"
        },
        {
          "internalType": "string",
          "name": "_description",
          "type": "string"
        },
        {
          "internalType": "uint256",
          "name": "_Object_of_action",
          "type": "uint256"
        },
        {
          "internalType": "int256",
          "name": "_aggressivity_action",
          "type": "int256"
        },
        {
          "internalType": "int256",
          "name": "_defense_action",
          "type": "int256"
        }
      ],
      "name": "Create_The_Card",
      "outputs": [],
      "stateMutability": "nonpayable",
      "type": "function"
    },
    {
      "inputs": [
        {
          "internalType": "uint256",
          "name": "Card_mapping_key",
          "type": "uint256"
        },
        {
          "internalType": "string",
          "name": "description",
          "type": "string"
        },
        {
          "internalType": "uint256",
          "name": "price",
          "type": "uint256"
        }
      ],
      "name": "CreateDeal",
      "outputs": [],
      "stateMutability": "nonpayable",
      "type": "function"
    },
    {
      "inputs": [
        {
          "internalType": "uint256",
          "name": "Card_mapping_key",
          "type": "uint256"
        },
        {
          "internalType": "uint256",
          "name": "offerPrice",
          "type": "uint256"
        }
      ],
      "name": "MakeOffer",
      "outputs": [],
      "stateMutability": "nonpayable",
      "type": "function"
    },
    {
      "inputs": [
        {
          "internalType": "uint256",
          "name": "Card_mapping_key",
          "type": "uint256"
        },
        {
          "internalType": "address",
          "name": "ThisBuyer",
          "type": "address"
        }
      ],
      "name": "Reject",
      "outputs": [],
      "stateMutability": "nonpayable",
      "type": "function"
    },
    {
      "inputs": [
        {
          "internalType": "uint256",
          "name": "Card_mapping_key",
          "type": "uint256"
        },
        {
          "internalType": "address",
          "name": "ThisBuyer",
          "type": "address"
        }
      ],
      "name": "AcceptOffer",
      "outputs": [],
      "stateMutability": "nonpayable",
      "type": "function"
    }
  ],
  "bytecode": "0x60806040526040518061030001604052806040518060400160405280600981526020017fe9bb91e6898be5859a000000000000000000000000000000000000000000000081525081526020016040518060400160405280600981526020017fe697a0e4babae69cba000000000000000000000000000000000000000000000081525081526020016040518060400160405280600f81526020017fe58a9ee585ace5aea4e8818ce59198000000000000000000000000000000000081525081526020016040518060400160405280600681526020017fe99da2e585b7000000000000000000000000000000000000000000000000000081525081526020016040518060400160405280600681526020017fe69599e68e88000000000000000000000000000000000000000000000000000081525081526020016040518060400160405280600681526020017fe7aba5e5b7a5000000000000000000000000000000000000000000000000000081525081526020016040518060400160405280600681526020017fe59586e4baba000000000000000000000000000000000000000000000000000081525081526020016040518060400160405280600981526020017fe588bae99d92e7bb84000000000000000000000000000000000000000000000081525081526020016040518060400160405280600c81526020017fe6b289e6809de5b091e5a5b3000000000000000000000000000000000000000081525081526020016040518060400160405280600981526020017fe5bc95e8b7afe4baba000000000000000000000000000000000000000000000081525081526020016040518060400160405280600681526020017fe7839fe9acbc000000000000000000000000000000000000000000000000000081525081526020016040518060400160405280600681526020017fe5a5b8e59586000000000000000000000000000000000000000000000000000081525081526020016040518060400160405280600681526020017fe5b7a5e5a4b4000000000000000000000000000000000000000000000000000081525081526020016040518060400160405280600f81526020017fe58f9be58f98e689a7e6b395e88085000000000000000000000000000000000081525081526020016040518060400160405280600981526020017fe8bfb7e5a4b1e88085000000000000000000000000000000000000000000000081525081526020016040518060400160405280600681526020017fe99b8fe9b9b0000000000000000000000000000000000000000000000000000081525081526020016040518060400160405280600c81526020017fe585ace788b5e5a4abe4baba000000000000000000000000000000000000000081525081526020016040518060400160405280600681526020017fe98592e9acbc000000000000000000000000000000000000000000000000000081525081526020016040518060400160405280600981526020017fe5a49ce8a786e88085000000000000000000000000000000000000000000000081525081526020016040518060400160405280600681526020017fe8afa1e99da2000000000000000000000000000000000000000000000000000081525081526020016040518060400160405280600681526020017fe9b8a6e99b80000000000000000000000000000000000000000000000000000081525081526020016040518060400160405280600681526020017fe68bbce59bbe000000000000000000000000000000000000000000000000000081525081526020016040518060400160405280600681526020017fe9878de68bb3000000000000000000000000000000000000000000000000000081525081526020016040518060400160405280600c81526020017fe78ca9e7baa2e78c8ee4baba0000000000000000000000000000000000000000815250815250600b906018620005a892919062000b35565b50604051806103000160405280600960ff168152602001600260ff168152602001600360ff168152602001600360ff168152602001600260ff168152602001600160ff168152602001600360ff168152602001600860ff168152602001600160ff168152602001600360ff168152602001600560ff168152602001600360ff168152602001600460ff168152602001600660ff168152602001600260ff168152602001600560ff168152602001600160ff168152602001600460ff168152602001600360ff168152602001600560ff168152602001600260ff168152602001600060ff168152602001600760ff168152602001600660ff168152506023906018620006b592919062000b8f565b50604051806103000160405280600760ff168152602001600560ff168152602001600460ff168152602001600660ff168152602001600560ff168152602001600360ff168152602001600660ff168152602001600760ff168152602001600560ff168152602001600460ff168152602001600460ff168152602001600260ff168152602001600360ff168152602001600660ff168152602001600360ff168152602001600560ff168152602001600760ff168152602001600160ff168152602001600360ff168152602001600260ff168152602001600260ff168152602001600360ff168152602001600460ff168152602001600660ff16815250603b906018620007c292919062000b8f565b506040518060400160405280601181526020017f53696d706c654d61726b6574706c616365000000000000000000000000000000815250605590805190602001906200081092919062000bd9565b506040518060400160405280601181526020017f53696d706c654d61726b6574706c616365000000000000000000000000000000815250605690805190602001906200085e92919062000bd9565b503480156200086c57600080fd5b506040518060400160405280600381526020017f4e465400000000000000000000000000000000000000000000000000000000008152506040518060400160405280600381526020017f4e46540000000000000000000000000000000000000000000000000000000000815250620008f16301ffc9a760e01b62000a2460201b60201c565b81600690805190602001906200090992919062000bd9565b5080600790805190602001906200092292919062000bd9565b506200093b6380ac58cd60e01b62000a2460201b60201c565b62000953635b5e139f60e01b62000a2460201b60201c565b6200096b63780e9d6360e01b62000a2460201b60201c565b505060006200097f62000b2d60201b60201c565b905080600a60006101000a81548173ffffffffffffffffffffffffffffffffffffffff021916908373ffffffffffffffffffffffffffffffffffffffff1602179055508073ffffffffffffffffffffffffffffffffffffffff16600073ffffffffffffffffffffffffffffffffffffffff167f8be0079c531659141344cd1fd0a4f28419497f9722a3daafe3b4186f6b6457e060405160405180910390a35062000d2d565b63ffffffff60e01b817bffffffffffffffffffffffffffffffffffffffffffffffffffffffff1916141562000ac1576040517f08c379a000000000000000000000000000000000000000000000000000000000815260040180806020018281038252601c8152602001807f4552433136353a20696e76616c696420696e746572666163652069640000000081525060200191505060405180910390fd5b6001600080837bffffffffffffffffffffffffffffffffffffffffffffffffffffffff19167bffffffffffffffffffffffffffffffffffffffffffffffffffffffff1916815260200190815260200160002060006101000a81548160ff02191690831515021790555050565b600033905090565b826018810192821562000b7c579160200282015b8281111562000b7b57825182908051906020019062000b6a92919062000bd9565b509160200191906001019062000b49565b5b50905062000b8b919062000c60565b5090565b826018810192821562000bc6579160200282015b8281111562000bc5578251829060ff1690559160200191906001019062000ba3565b5b50905062000bd5919062000c91565b5090565b828054600181600116156101000203166002900490600052602060002090601f016020900481019282601f1062000c1c57805160ff191683800117855562000c4d565b8280016001018555821562000c4d579182015b8281111562000c4c57825182559160200191906001019062000c2f565b5b50905062000c5c919062000cb9565b5090565b62000c8e91905b8082111562000c8a576000818162000c80919062000ce1565b5060010162000c67565b5090565b90565b62000cb691905b8082111562000cb257600081600090555060010162000c98565b5090565b90565b62000cde91905b8082111562000cda57600081600090555060010162000cc0565b5090565b90565b50805460018160011615610100020316600290046000825580601f1062000d09575062000d2a565b601f01602090049060005260206000209081019062000d29919062000cb9565b5b50565b614f2d8062000d3d6000396000f3fe608060405234801561001057600080fd5b50600436106101f05760003560e01c80636352211e1161010f578063ac35656a116100a2578063c9a7999211610071578063c9a7999214610fbf578063e985e9c51461114e578063f2fde38b146111ca578063fbf084fd1461120e576101f0565b8063ac35656a14610d02578063b88d4fde14610d44578063c2df4a0d14610e49578063c87b56dd14610f18576101f0565b806384fe698d116100de57806384fe698d14610aa15780638da5cb5b14610be557806395d89b4114610c2f578063a22cb46514610cb2576101f0565b80636352211e1461094e5780636c0360eb146109bc57806370a0823114610a3f578063715018a614610a97576101f0565b80632f745c5911610187578063469901931161015657806346990193146107425780634f6ccce71461079057806358e95370146107d257806361b52a0214610916576101f0565b80632f745c59146104e3578063350aea0d14610545578063402d1cdb1461062d57806342842e0e146106d4576101f0565b8063095ea7b3116101c3578063095ea7b31461038d57806318160ddd146103db578063230840e4146103f957806323b872dd14610475576101f0565b806301ffc9a7146101f557806306fdde031461025a5780630704bd1d146102dd578063081812fc1461031f575b600080fd5b6102406004803603602081101561020b57600080fd5b8101908080357bffffffffffffffffffffffffffffffffffffffffffffffffffffffff1916906020019092919050505061125c565b604051808215151515815260200191505060405180910390f35b6102626112c3565b6040518080602001828103825283818151815260200191508051906020019080838360005b838110156102a2578082015181840152602081019050610287565b50505050905090810190601f1680156102cf5780820380516001836020036101000a031916815260200191505b509250505060405180910390f35b610309600480360360208110156102f357600080fd5b8101908080359060200190929190505050611365565b6040518082815260200191505060405180910390f35b61034b6004803603602081101561033557600080fd5b810190808035906020019092919050505061137d565b604051808273ffffffffffffffffffffffffffffffffffffffff1673ffffffffffffffffffffffffffffffffffffffff16815260200191505060405180910390f35b6103d9600480360360408110156103a357600080fd5b81019080803573ffffffffffffffffffffffffffffffffffffffff16906020019092919080359060200190929190505050611418565b005b6103e361155c565b6040518082815260200191505060405180910390f35b6104256004803603602081101561040f57600080fd5b810190808035906020019092919050505061156d565b604051808473ffffffffffffffffffffffffffffffffffffffff1673ffffffffffffffffffffffffffffffffffffffff168152602001838152602001828152602001935050505060405180910390f35b6104e16004803603606081101561048b57600080fd5b81019080803573ffffffffffffffffffffffffffffffffffffffff169060200190929190803573ffffffffffffffffffffffffffffffffffffffff169060200190929190803590602001909291905050506115b7565b005b61052f600480360360408110156104f957600080fd5b81019080803573ffffffffffffffffffffffffffffffffffffffff1690602001909291908035906020019092919050505061162d565b6040518082815260200191505060405180910390f35b6105716004803603602081101561055b57600080fd5b8101908080359060200190929190505050611688565b604051808573ffffffffffffffffffffffffffffffffffffffff1673ffffffffffffffffffffffffffffffffffffffff16815260200184815260200183815260200180602001828103825283818151815260200191508051906020019080838360005b838110156105ef5780820151818401526020810190506105d4565b50505050905090810190601f16801561061c5780820380516001836020036101000a031916815260200191505b509550505050505060405180910390f35b6106596004803603602081101561064357600080fd5b8101908080359060200190929190505050611770565b6040518080602001828103825283818151815260200191508051906020019080838360005b8381101561069957808201518184015260208101905061067e565b50505050905090810190601f1680156106c65780820380516001836020036101000a031916815260200191505b509250505060405180910390f35b610740600480360360608110156106ea57600080fd5b81019080803573ffffffffffffffffffffffffffffffffffffffff169060200190929190803573ffffffffffffffffffffffffffffffffffffffff16906020019092919080359060200190929190505050611820565b005b61078e6004803603604081101561075857600080fd5b8101908080359060200190929190803573ffffffffffffffffffffffffffffffffffffffff169060200190929190505050611840565b005b6107bc600480360360208110156107a657600080fd5b8101908080359060200190929190505050611a0f565b6040518082815260200191505060405180910390f35b6107fe600480360360208110156107e857600080fd5b8101908080359060200190929190505050611a32565b60405180806020018a81526020018981526020018881526020018060200187815260200186815260200185815260200184815260200183810383528c818151815260200191508051906020019080838360005b8381101561086c578082015181840152602081019050610851565b50505050905090810190601f1680156108995780820380516001836020036101000a031916815260200191505b50838103825288818151815260200191508051906020019080838360005b838110156108d25780820151818401526020810190506108b7565b50505050905090810190601f1680156108ff5780820380516001836020036101000a031916815260200191505b509b50505050505050505050505060405180910390f35b61094c6004803603604081101561092c57600080fd5b810190808035906020019092919080359060200190929190505050611bbd565b005b61097a6004803603602081101561096457600080fd5b8101908080359060200190929190505050611fa9565b604051808273ffffffffffffffffffffffffffffffffffffffff1673ffffffffffffffffffffffffffffffffffffffff16815260200191505060405180910390f35b6109c4611fe0565b6040518080602001828103825283818151815260200191508051906020019080838360005b83811015610a045780820151818401526020810190506109e9565b50505050905090810190601f168015610a315780820380516001836020036101000a031916815260200191505b509250505060405180910390f35b610a8160048036036020811015610a5557600080fd5b81019080803573ffffffffffffffffffffffffffffffffffffffff169060200190929190505050612082565b6040518082815260200191505060405180910390f35b610a9f612157565b005b610acd60048036036020811015610ab757600080fd5b81019080803590602001909291905050506122e2565b60405180806020018a81526020018981526020018881526020018060200187815260200186815260200185815260200184815260200183810383528c818151815260200191508051906020019080838360005b83811015610b3b578082015181840152602081019050610b20565b50505050905090810190601f168015610b685780820380516001836020036101000a031916815260200191505b50838103825288818151815260200191508051906020019080838360005b83811015610ba1578082015181840152602081019050610b86565b50505050905090810190601f168015610bce5780820380516001836020036101000a031916815260200191505b509b50505050505050505050505060405180910390f35b610bed612460565b604051808273ffffffffffffffffffffffffffffffffffffffff1673ffffffffffffffffffffffffffffffffffffffff16815260200191505060405180910390f35b610c3761248a565b6040518080602001828103825283818151815260200191508051906020019080838360005b83811015610c77578082015181840152602081019050610c5c565b50505050905090810190601f168015610ca45780820380516001836020036101000a031916815260200191505b509250505060405180910390f35b610d0060048036036040811015610cc857600080fd5b81019080803573ffffffffffffffffffffffffffffffffffffffff16906020019092919080351515906020019092919050505061252c565b005b610d2e60048036036020811015610d1857600080fd5b81019080803590602001909291905050506126e4565b6040518082815260200191505060405180910390f35b610e4760048036036080811015610d5a57600080fd5b81019080803573ffffffffffffffffffffffffffffffffffffffff169060200190929190803573ffffffffffffffffffffffffffffffffffffffff1690602001909291908035906020019092919080359060200190640100000000811115610dc157600080fd5b820183602082011115610dd357600080fd5b80359060200191846001830284011164010000000083111715610df557600080fd5b91908080601f016020809104026020016040519081016040528093929190818152602001838380828437600081840152601f19601f8201169050808301925050505050505091929192905050506126fc565b005b610f1660048036036060811015610e5f57600080fd5b810190808035906020019092919080359060200190640100000000811115610e8657600080fd5b820183602082011115610e9857600080fd5b80359060200191846001830284011164010000000083111715610eba57600080fd5b91908080601f016020809104026020016040519081016040528093929190818152602001838380828437600081840152601f19601f82011690508083019250505050505050919291929080359060200190929190505050612774565b005b610f4460048036036020811015610f2e57600080fd5b810190808035906020019092919050505061293e565b6040518080602001828103825283818151815260200191508051906020019080838360005b83811015610f84578082015181840152602081019050610f69565b50505050905090810190601f168015610fb15780820380516001836020036101000a031916815260200191505b509250505060405180910390f35b61114c6004803603610100811015610fd657600080fd5b8101908080359060200190640100000000811115610ff357600080fd5b82018360208201111561100557600080fd5b8035906020019184600183028401116401000000008311171561102757600080fd5b91908080601f016020809104026020016040519081016040528093929190818152602001838380828437600081840152601f19601f820116905080830192505050505050509192919290803590602001909291908035906020019092919080359060200190929190803590602001906401000000008111156110a857600080fd5b8201836020820111156110ba57600080fd5b803590602001918460018302840111640100000000831117156110dc57600080fd5b91908080601f016020809104026020016040519081016040528093929190818152602001838380828437600081840152601f19601f820116905080830192505050505050509192919290803590602001909291908035906020019092919080359060200190929190505050612c27565b005b6111b06004803603604081101561116457600080fd5b81019080803573ffffffffffffffffffffffffffffffffffffffff169060200190929190803573ffffffffffffffffffffffffffffffffffffffff169060200190929190505050612ede565b604051808215151515815260200191505060405180910390f35b61120c600480360360208110156111e057600080fd5b81019080803573ffffffffffffffffffffffffffffffffffffffff169060200190929190505050612f72565b005b61125a6004803603604081101561122457600080fd5b8101908080359060200190929190803573ffffffffffffffffffffffffffffffffffffffff169060200190929190505050613182565b005b6000806000837bffffffffffffffffffffffffffffffffffffffffffffffffffffffff19167bffffffffffffffffffffffffffffffffffffffffffffffffffffffff1916815260200190815260200160002060009054906101000a900460ff169050919050565b606060068054600181600116156101000203166002900480601f01602080910402602001604051908101604052809291908181526020018280546001816001161561010002031660029004801561135b5780601f106113305761010080835404028352916020019161135b565b820191906000526020600020905b81548152906001019060200180831161133e57829003601f168201915b5050505050905090565b603b816018811061137257fe5b016000915090505481565b6000611388826136a4565b6113dd576040517f08c379a000000000000000000000000000000000000000000000000000000000815260040180806020018281038252602c815260200180614da4602c913960400191505060405180910390fd5b6004600083815260200190815260200160002060009054906101000a900473ffffffffffffffffffffffffffffffffffffffff169050919050565b600061142382611fa9565b90508073ffffffffffffffffffffffffffffffffffffffff168373ffffffffffffffffffffffffffffffffffffffff1614156114aa576040517f08c379a0000000000000000000000000000000000000000000000000000000008152600401808060200182810382526021815260200180614e5a6021913960400191505060405180910390fd5b8073ffffffffffffffffffffffffffffffffffffffff166114c96136c1565b73ffffffffffffffffffffffffffffffffffffffff1614806114f857506114f7816114f26136c1565b612ede565b5b61154d576040517f08c379a0000000000000000000000000000000000000000000000000000000008152600401808060200182810382526038815260200180614cf76038913960400191505060405180910390fd5b61155783836136c9565b505050565b60006115686002613782565b905090565b605a6020528060005260406000206000915090508060000160009054906101000a900473ffffffffffffffffffffffffffffffffffffffff16908060010154908060020154905083565b6115c86115c26136c1565b82613797565b61161d576040517f08c379a0000000000000000000000000000000000000000000000000000000008152600401808060200182810382526031815260200180614ec76031913960400191505060405180910390fd5b61162883838361388b565b505050565b600061168082600160008673ffffffffffffffffffffffffffffffffffffffff1673ffffffffffffffffffffffffffffffffffffffff168152602001908152602001600020613ace90919063ffffffff16565b905092915050565b60596020528060005260406000206000915090508060000160009054906101000a900473ffffffffffffffffffffffffffffffffffffffff1690806001015490806002015490806003018054600181600116156101000203166002900480601f0160208091040260200160405190810160405280929190818152602001828054600181600116156101000203166002900480156117665780601f1061173b57610100808354040283529160200191611766565b820191906000526020600020905b81548152906001019060200180831161174957829003601f168201915b5050505050905084565b600b816018811061177d57fe5b016000915090508054600181600116156101000203166002900480601f0160208091040260200160405190810160405280929190818152602001828054600181600116156101000203166002900480156118185780601f106117ed57610100808354040283529160200191611818565b820191906000526020600020905b8154815290600101906020018083116117fb57829003601f168201915b505050505081565b61183b838383604051806020016040528060008152506126fc565b505050565b6001600281111561184d57fe5b6058600084815260200190815260200160002060009054906101000a900460ff16600281111561187957fe5b146118cf576040517f08c379a000000000000000000000000000000000000000000000000000000000815260040180806020018281038252603c815260200180614b3f603c913960400191505060405180910390fd5b3373ffffffffffffffffffffffffffffffffffffffff166059600084815260200190815260200160002060000160009054906101000a900473ffffffffffffffffffffffffffffffffffffffff1673ffffffffffffffffffffffffffffffffffffffff1614611989576040517f08c379a000000000000000000000000000000000000000000000000000000000815260040180806020018281038252602f815260200180614cc8602f913960400191505060405180910390fd5b605a6000838152602001908152602001600020600080820160006101000a81549073ffffffffffffffffffffffffffffffffffffffff021916905560018201600090556002820160009055505060006058600084815260200190815260200160002060006101000a81548160ff02191690836002811115611a0657fe5b02179055505050565b600080611a26836002613ae890919063ffffffff16565b50905080915050919050565b60538181548110611a3f57fe5b9060005260206000209060090201600091509050806000018054600181600116156101000203166002900480601f016020809104026020016040519081016040528092919081815260200182805460018160011615610100020316600290048015611aeb5780601f10611ac057610100808354040283529160200191611aeb565b820191906000526020600020905b815481529060010190602001808311611ace57829003601f168201915b505050505090806001015490806002015490806003015490806004018054600181600116156101000203166002900480601f016020809104026020016040519081016040528092919081815260200182805460018160011615610100020316600290048015611b9b5780601f10611b7057610100808354040283529160200191611b9b565b820191906000526020600020905b815481529060010190602001808311611b7e57829003601f168201915b5050505050908060050154908060060154908060070154908060080154905089565b611bc5614933565b33816000019073ffffffffffffffffffffffffffffffffffffffff16908173ffffffffffffffffffffffffffffffffffffffff168152505082816020018181525050818160400181815250506000821415611c6b576040517f08c379a0000000000000000000000000000000000000000000000000000000008152600401808060200182810382526032815260200180614dd06032913960400191505060405180910390fd5b60006002811115611c7857fe5b6058600085815260200190815260200160002060009054906101000a900460ff166002811115611ca457fe5b14611cfa576040517f08c379a0000000000000000000000000000000000000000000000000000000008152600401808060200182810382526041815260200180614c876041913960600191505060405180910390fd5b3373ffffffffffffffffffffffffffffffffffffffff166059600085815260200190815260200160002060000160009054906101000a900473ffffffffffffffffffffffffffffffffffffffff1673ffffffffffffffffffffffffffffffffffffffff161415611db5576040517f08c379a0000000000000000000000000000000000000000000000000000000008152600401808060200182810382526030815260200180614bad6030913960400191505060405180910390fd5b6059600084815260200190815260200160002060020154605b60009054906101000a900473ffffffffffffffffffffffffffffffffffffffff1673ffffffffffffffffffffffffffffffffffffffff166370a08231336040518263ffffffff1660e01b8152600401808273ffffffffffffffffffffffffffffffffffffffff1673ffffffffffffffffffffffffffffffffffffffff16815260200191505060206040518083038186803b158015611e6b57600080fd5b505afa158015611e7f573d6000803e3d6000fd5b505050506040513d6020811015611e9557600080fd5b81019080805190602001909291905050501015611efd576040517f08c379a000000000000000000000000000000000000000000000000000000000815260040180806020018281038252604c815260200180614e7b604c913960600191505060405180910390fd5b80605a600085815260200190815260200160002060008201518160000160006101000a81548173ffffffffffffffffffffffffffffffffffffffff021916908373ffffffffffffffffffffffffffffffffffffffff160217905550602082015181600101556040820151816002015590505060016058600085815260200190815260200160002060006101000a81548160ff02191690836002811115611f9f57fe5b0217905550505050565b6000611fd982604051806060016040528060298152602001614d59602991396002613b179092919063ffffffff16565b9050919050565b606060098054600181600116156101000203166002900480601f0160208091040260200160405190810160405280929190818152602001828054600181600116156101000203166002900480156120785780601f1061204d57610100808354040283529160200191612078565b820191906000526020600020905b81548152906001019060200180831161205b57829003601f168201915b5050505050905090565b60008073ffffffffffffffffffffffffffffffffffffffff168273ffffffffffffffffffffffffffffffffffffffff161415612109576040517f08c379a000000000000000000000000000000000000000000000000000000000815260040180806020018281038252602a815260200180614d2f602a913960400191505060405180910390fd5b612150600160008473ffffffffffffffffffffffffffffffffffffffff1673ffffffffffffffffffffffffffffffffffffffff168152602001908152602001600020613b36565b9050919050565b61215f6136c1565b73ffffffffffffffffffffffffffffffffffffffff16600a60009054906101000a900473ffffffffffffffffffffffffffffffffffffffff1673ffffffffffffffffffffffffffffffffffffffff1614612221576040517f08c379a00000000000000000000000000000000000000000000000000000000081526004018080602001828103825260208152602001807f4f776e61626c653a2063616c6c6572206973206e6f7420746865206f776e657281525060200191505060405180910390fd5b600073ffffffffffffffffffffffffffffffffffffffff16600a60009054906101000a900473ffffffffffffffffffffffffffffffffffffffff1673ffffffffffffffffffffffffffffffffffffffff167f8be0079c531659141344cd1fd0a4f28419497f9722a3daafe3b4186f6b6457e060405160405180910390a36000600a60006101000a81548173ffffffffffffffffffffffffffffffffffffffff021916908373ffffffffffffffffffffffffffffffffffffffff160217905550565b6054602052806000526040600020600091509050806000018054600181600116156101000203166002900480601f01602080910402602001604051908101604052809291908181526020018280546001816001161561010002031660029004801561238e5780601f106123635761010080835404028352916020019161238e565b820191906000526020600020905b81548152906001019060200180831161237157829003601f168201915b505050505090806001015490806002015490806003015490806004018054600181600116156101000203166002900480601f01602080910402602001604051908101604052809291908181526020018280546001816001161561010002031660029004801561243e5780601f106124135761010080835404028352916020019161243e565b820191906000526020600020905b81548152906001019060200180831161242157829003601f168201915b5050505050908060050154908060060154908060070154908060080154905089565b6000600a60009054906101000a900473ffffffffffffffffffffffffffffffffffffffff16905090565b606060078054600181600116156101000203166002900480601f0160208091040260200160405190810160405280929190818152602001828054600181600116156101000203166002900480156125225780601f106124f757610100808354040283529160200191612522565b820191906000526020600020905b81548152906001019060200180831161250557829003601f168201915b5050505050905090565b6125346136c1565b73ffffffffffffffffffffffffffffffffffffffff168273ffffffffffffffffffffffffffffffffffffffff1614156125d5576040517f08c379a00000000000000000000000000000000000000000000000000000000081526004018080602001828103825260198152602001807f4552433732313a20617070726f766520746f2063616c6c65720000000000000081525060200191505060405180910390fd5b80600560006125e26136c1565b73ffffffffffffffffffffffffffffffffffffffff1673ffffffffffffffffffffffffffffffffffffffff16815260200190815260200160002060008473ffffffffffffffffffffffffffffffffffffffff1673ffffffffffffffffffffffffffffffffffffffff16815260200190815260200160002060006101000a81548160ff0219169083151502179055508173ffffffffffffffffffffffffffffffffffffffff1661268f6136c1565b73ffffffffffffffffffffffffffffffffffffffff167f17307eab39ab6107e8899845ad3d59bd9653f200f220920489ca2b5937696c3183604051808215151515815260200191505060405180910390a35050565b602381601881106126f157fe5b016000915090505481565b61270d6127076136c1565b83613797565b612762576040517f08c379a0000000000000000000000000000000000000000000000000000000008152600401808060200182810382526031815260200180614ec76031913960400191505060405180910390fd5b61276e84848484613b4b565b50505050565b61277c61496a565b60405180608001604052803373ffffffffffffffffffffffffffffffffffffffff168152602001858152602001838152602001848152509050806059600086815260200190815260200160002060008201518160000160006101000a81548173ffffffffffffffffffffffffffffffffffffffff021916908373ffffffffffffffffffffffffffffffffffffffff160217905550602082015181600101556040820151816002015560608201518160030190805190602001906128409291906149a8565b50905050605460008581526020019081526020016000206057600086815260200190815260200160002060008201816000019080546001816001161561010002031660029004612891929190614a28565b50600182015481600101556002820154816002015560038201548160030155600482018160040190805460018160011615610100020316600290046128d7929190614a28565b506005820154816005015560068201548160060155600782015481600701556008820154816008015590505060006058600086815260200190815260200160002060006101000a81548160ff0219169083600281111561293357fe5b021790555050505050565b6060612949826136a4565b61299e576040517f08c379a000000000000000000000000000000000000000000000000000000000815260040180806020018281038252602f815260200180614e2b602f913960400191505060405180910390fd5b6060600860008481526020019081526020016000208054600181600116156101000203166002900480601f016020809104026020016040519081016040528092919081815260200182805460018160011615610100020316600290048015612a475780601f10612a1c57610100808354040283529160200191612a47565b820191906000526020600020905b815481529060010190602001808311612a2a57829003601f168201915b50505050509050600060098054600181600116156101000203166002900490501415612a765780915050612c22565b600081511115612b4f576009816040516020018083805460018160011615610100020316600290048015612ae15780601f10612abf576101008083540402835291820191612ae1565b820191906000526020600020905b815481529060010190602001808311612acd575b505082805190602001908083835b60208310612b125780518252602082019150602081019050602083039250612aef565b6001836020036101000a03801982511681845116808217855250505050505090500192505050604051602081830303815290604052915050612c22565b6009612b5a84613bbd565b6040516020018083805460018160011615610100020316600290048015612bb85780601f10612b96576101008083540402835291820191612bb8565b820191906000526020600020905b815481529060010190602001808311612ba4575b505082805190602001908083835b60208310612be95780518252602082019150602081019050602083039250612bc6565b6001836020036101000a038019825116818451168082178552505050505050905001925050506040516020818303038152906040529150505b919050565b612c2f6136c1565b73ffffffffffffffffffffffffffffffffffffffff16600a60009054906101000a900473ffffffffffffffffffffffffffffffffffffffff1673ffffffffffffffffffffffffffffffffffffffff1614612cf1576040517f08c379a00000000000000000000000000000000000000000000000000000000081526004018080602001828103825260208152602001807f4f776e61626c653a2063616c6c6572206973206e6f7420746865206f776e657281525060200191505060405180910390fd5b6000612cfb61155c565b905060536040518061012001604052808b81526020018a81526020018981526020018881526020018781526020018681526020018581526020018481526020018381525090806001815401808255809150506001900390600052602060002090600902016000909190919091506000820151816000019080519060200190612d849291906149a8565b506020820151816001015560408201518160020155606082015181600301556080820151816004019080519060200190612dbf9291906149a8565b5060a0820151816005015560c0820151816006015560e08201518160070155610100820151816008015550506040518061012001604052808a815260200189815260200188815260200187815260200186815260200185815260200184815260200183815260200182815250605460008381526020019081526020016000206000820151816000019080519060200190612e5a9291906149a8565b506020820151816001015560408201518160020155606082015181600301556080820151816004019080519060200190612e959291906149a8565b5060a0820151816005015560c0820151816006015560e082015181600701556101008201518160080155905050612ed3612ecd612460565b82613d04565b505050505050505050565b6000600560008473ffffffffffffffffffffffffffffffffffffffff1673ffffffffffffffffffffffffffffffffffffffff16815260200190815260200160002060008373ffffffffffffffffffffffffffffffffffffffff1673ffffffffffffffffffffffffffffffffffffffff16815260200190815260200160002060009054906101000a900460ff16905092915050565b612f7a6136c1565b73ffffffffffffffffffffffffffffffffffffffff16600a60009054906101000a900473ffffffffffffffffffffffffffffffffffffffff1673ffffffffffffffffffffffffffffffffffffffff161461303c576040517f08c379a00000000000000000000000000000000000000000000000000000000081526004018080602001828103825260208152602001807f4f776e61626c653a2063616c6c6572206973206e6f7420746865206f776e657281525060200191505060405180910390fd5b600073ffffffffffffffffffffffffffffffffffffffff168173ffffffffffffffffffffffffffffffffffffffff1614156130c2576040517f08c379a0000000000000000000000000000000000000000000000000000000008152600401808060200182810382526026815260200180614bdd6026913960400191505060405180910390fd5b8073ffffffffffffffffffffffffffffffffffffffff16600a60009054906101000a900473ffffffffffffffffffffffffffffffffffffffff1673ffffffffffffffffffffffffffffffffffffffff167f8be0079c531659141344cd1fd0a4f28419497f9722a3daafe3b4186f6b6457e060405160405180910390a380600a60006101000a81548173ffffffffffffffffffffffffffffffffffffffff021916908373ffffffffffffffffffffffffffffffffffffffff16021790555050565b3373ffffffffffffffffffffffffffffffffffffffff166059600084815260200190815260200160002060000160009054906101000a900473ffffffffffffffffffffffffffffffffffffffff1673ffffffffffffffffffffffffffffffffffffffff161461323c576040517f08c379a0000000000000000000000000000000000000000000000000000000008152600401808060200182810382526034815260200180614c276034913960400191505060405180910390fd5b605b60009054906101000a900473ffffffffffffffffffffffffffffffffffffffff1673ffffffffffffffffffffffffffffffffffffffff1663095ea7b3605a600085815260200190815260200160002060000160009054906101000a900473ffffffffffffffffffffffffffffffffffffffff1660596000868152602001908152602001600020600201546040518363ffffffff1660e01b8152600401808373ffffffffffffffffffffffffffffffffffffffff1673ffffffffffffffffffffffffffffffffffffffff16815260200182815260200192505050602060405180830381600087803b15801561333157600080fd5b505af1158015613345573d6000803e3d6000fd5b505050506040513d602081101561335b57600080fd5b810190808051906020019092919050505050605b60009054906101000a900473ffffffffffffffffffffffffffffffffffffffff1673ffffffffffffffffffffffffffffffffffffffff166323b872dd605a600085815260200190815260200160002060000160009054906101000a900473ffffffffffffffffffffffffffffffffffffffff163360596000878152602001908152602001600020600201546040518463ffffffff1660e01b8152600401808473ffffffffffffffffffffffffffffffffffffffff1673ffffffffffffffffffffffffffffffffffffffff1681526020018373ffffffffffffffffffffffffffffffffffffffff1673ffffffffffffffffffffffffffffffffffffffff1681526020018281526020019350505050602060405180830381600087803b15801561349657600080fd5b505af11580156134aa573d6000803e3d6000fd5b505050506040513d60208110156134c057600080fd5b810190808051906020019092919050505050613512605a600084815260200190815260200160002060000160009054906101000a900473ffffffffffffffffffffffffffffffffffffffff1683611418565b61355333605a600085815260200190815260200160002060000160009054906101000a900473ffffffffffffffffffffffffffffffffffffffff1684611820565b60026058600084815260200190815260200160002060006101000a81548160ff0219169083600281111561358357fe5b021790555060596000838152602001908152602001600020600080820160006101000a81549073ffffffffffffffffffffffffffffffffffffffff0219169055600182016000905560028201600090556003820160006135e39190614aaf565b5050605a6000838152602001908152602001600020600080820160006101000a81549073ffffffffffffffffffffffffffffffffffffffff021916905560018201600090556002820160009055505060576000838152602001908152602001600020600080820160006136569190614aaf565b60018201600090556002820160009055600382016000905560048201600061367e9190614aaf565b600582016000905560068201600090556007820160009055600882016000905550505050565b60006136ba826002613d2290919063ffffffff16565b9050919050565b600033905090565b816004600083815260200190815260200160002060006101000a81548173ffffffffffffffffffffffffffffffffffffffff021916908373ffffffffffffffffffffffffffffffffffffffff160217905550808273ffffffffffffffffffffffffffffffffffffffff1661373c83611fa9565b73ffffffffffffffffffffffffffffffffffffffff167f8c5be1e5ebec7d5bd14f71427d1e84f3dd0314c0f7b2291e5b200ac8c7c3b92560405160405180910390a45050565b600061379082600001613d3c565b9050919050565b60006137a2826136a4565b6137f7576040517f08c379a000000000000000000000000000000000000000000000000000000000815260040180806020018281038252602c815260200180614c5b602c913960400191505060405180910390fd5b600061380283611fa9565b90508073ffffffffffffffffffffffffffffffffffffffff168473ffffffffffffffffffffffffffffffffffffffff16148061387157508373ffffffffffffffffffffffffffffffffffffffff166138598461137d565b73ffffffffffffffffffffffffffffffffffffffff16145b8061388257506138818185612ede565b5b91505092915050565b8273ffffffffffffffffffffffffffffffffffffffff166138ab82611fa9565b73ffffffffffffffffffffffffffffffffffffffff1614613917576040517f08c379a0000000000000000000000000000000000000000000000000000000008152600401808060200182810382526029815260200180614e026029913960400191505060405180910390fd5b600073ffffffffffffffffffffffffffffffffffffffff168273ffffffffffffffffffffffffffffffffffffffff16141561399d576040517f08c379a0000000000000000000000000000000000000000000000000000000008152600401808060200182810382526024815260200180614c036024913960400191505060405180910390fd5b6139a8838383613d4d565b6139b36000826136c9565b613a0481600160008673ffffffffffffffffffffffffffffffffffffffff1673ffffffffffffffffffffffffffffffffffffffff168152602001908152602001600020613d5290919063ffffffff16565b50613a5681600160008573ffffffffffffffffffffffffffffffffffffffff1673ffffffffffffffffffffffffffffffffffffffff168152602001908152602001600020613d6c90919063ffffffff16565b50613a6d81836002613d869092919063ffffffff16565b50808273ffffffffffffffffffffffffffffffffffffffff168473ffffffffffffffffffffffffffffffffffffffff167fddf252ad1be2c89b69c2b068fc378daa952ba7f163c4a11628f55a4df523b3ef60405160405180910390a4505050565b6000613add8360000183613dbb565b60001c905092915050565b600080600080613afb8660000186613e3e565b915091508160001c8160001c8090509350935050509250929050565b6000613b2a846000018460001b84613ed7565b60001c90509392505050565b6000613b4482600001613fcd565b9050919050565b613b5684848461388b565b613b6284848484613fde565b613bb7576040517f08c379a0000000000000000000000000000000000000000000000000000000008152600401808060200182810382526032815260200180614b7b6032913960400191505060405180910390fd5b50505050565b60606000821415613c05576040518060400160405280600181526020017f30000000000000000000000000000000000000000000000000000000000000008152509050613cff565b600082905060005b60008214613c2f578080600101915050600a8281613c2757fe5b049150613c0d565b60608167ffffffffffffffff81118015613c4857600080fd5b506040519080825280601f01601f191660200182016040528015613c7b5781602001600182028036833780820191505090505b50905060006001830390508593505b60008414613cf757600a8481613c9c57fe5b0660300160f81b82828060019003935081518110613cb657fe5b60200101907effffffffffffffffffffffffffffffffffffffffffffffffffffffffffffff1916908160001a905350600a8481613cef57fe5b049350613c8a565b819450505050505b919050565b613d1e828260405180602001604052806000815250614223565b5050565b6000613d34836000018360001b614294565b905092915050565b600081600001805490509050919050565b505050565b6000613d64836000018360001b6142b7565b905092915050565b6000613d7e836000018360001b61439f565b905092915050565b6000613db2846000018460001b8473ffffffffffffffffffffffffffffffffffffffff1660001b61440f565b90509392505050565b600081836000018054905011613e1c576040517f08c379a0000000000000000000000000000000000000000000000000000000008152600401808060200182810382526022815260200180614b1d6022913960400191505060405180910390fd5b826000018281548110613e2b57fe5b9060005260206000200154905092915050565b60008082846000018054905011613ea0576040517f08c379a0000000000000000000000000000000000000000000000000000000008152600401808060200182810382526022815260200180614d826022913960400191505060405180910390fd5b6000846000018481548110613eb157fe5b906000526020600020906002020190508060000154816001015492509250509250929050565b60008084600101600085815260200190815260200160002054905060008114158390613f9e576040517f08c379a00000000000000000000000000000000000000000000000000000000081526004018080602001828103825283818151815260200191508051906020019080838360005b83811015613f63578082015181840152602081019050613f48565b50505050905090810190601f168015613f905780820380516001836020036101000a031916815260200191505b509250505060405180910390fd5b50846000016001820381548110613fb157fe5b9060005260206000209060020201600101549150509392505050565b600081600001805490509050919050565b6000613fff8473ffffffffffffffffffffffffffffffffffffffff166144eb565b61400c576001905061421b565b60606141a263150b7a0260e01b6140216136c1565b888787604051602401808573ffffffffffffffffffffffffffffffffffffffff1673ffffffffffffffffffffffffffffffffffffffff1681526020018473ffffffffffffffffffffffffffffffffffffffff1673ffffffffffffffffffffffffffffffffffffffff16815260200183815260200180602001828103825283818151815260200191508051906020019080838360005b838110156140d15780820151818401526020810190506140b6565b50505050905090810190601f1680156140fe5780820380516001836020036101000a031916815260200191505b5095505050505050604051602081830303815290604052907bffffffffffffffffffffffffffffffffffffffffffffffffffffffff19166020820180517bffffffffffffffffffffffffffffffffffffffffffffffffffffffff8381831617835250505050604051806060016040528060328152602001614b7b603291398773ffffffffffffffffffffffffffffffffffffffff166144fe9092919063ffffffff16565b905060008180602001905160208110156141bb57600080fd5b8101908080519060200190929190505050905063150b7a0260e01b7bffffffffffffffffffffffffffffffffffffffffffffffffffffffff1916817bffffffffffffffffffffffffffffffffffffffffffffffffffffffff191614925050505b949350505050565b61422d8383614516565b61423a6000848484613fde565b61428f576040517f08c379a0000000000000000000000000000000000000000000000000000000008152600401808060200182810382526032815260200180614b7b6032913960400191505060405180910390fd5b505050565b600080836001016000848152602001908152602001600020541415905092915050565b60008083600101600084815260200190815260200160002054905060008114614393576000600182039050600060018660000180549050039050600086600001828154811061430257fe5b906000526020600020015490508087600001848154811061431f57fe5b906000526020600020018190555060018301876001016000838152602001908152602001600020819055508660000180548061435757fe5b60019003818190600052602060002001600090559055866001016000878152602001908152602001600020600090556001945050505050614399565b60009150505b92915050565b60006143ab838361470a565b614404578260000182908060018154018082558091505060019003906000526020600020016000909190919091505582600001805490508360010160008481526020019081526020016000208190555060019050614409565b600090505b92915050565b60008084600101600085815260200190815260200160002054905060008114156144b6578460000160405180604001604052808681526020018581525090806001815401808255809150506001900390600052602060002090600202016000909190919091506000820151816000015560208201518160010155505084600001805490508560010160008681526020019081526020016000208190555060019150506144e4565b828560000160018303815481106144c957fe5b90600052602060002090600202016001018190555060009150505b9392505050565b600080823b905060008111915050919050565b606061450d848460008561472d565b90509392505050565b600073ffffffffffffffffffffffffffffffffffffffff168273ffffffffffffffffffffffffffffffffffffffff1614156145b9576040517f08c379a00000000000000000000000000000000000000000000000000000000081526004018080602001828103825260208152602001807f4552433732313a206d696e7420746f20746865207a65726f206164647265737381525060200191505060405180910390fd5b6145c2816136a4565b15614635576040517f08c379a000000000000000000000000000000000000000000000000000000000815260040180806020018281038252601c8152602001807f4552433732313a20746f6b656e20616c7265616479206d696e7465640000000081525060200191505060405180910390fd5b61464160008383613d4d565b61469281600160008573ffffffffffffffffffffffffffffffffffffffff1673ffffffffffffffffffffffffffffffffffffffff168152602001908152602001600020613d6c90919063ffffffff16565b506146a981836002613d869092919063ffffffff16565b50808273ffffffffffffffffffffffffffffffffffffffff16600073ffffffffffffffffffffffffffffffffffffffff167fddf252ad1be2c89b69c2b068fc378daa952ba7f163c4a11628f55a4df523b3ef60405160405180910390a45050565b600080836001016000848152602001908152602001600020541415905092915050565b6060614738856144eb565b6147aa576040517f08c379a000000000000000000000000000000000000000000000000000000000815260040180806020018281038252601d8152602001807f416464726573733a2063616c6c20746f206e6f6e2d636f6e747261637400000081525060200191505060405180910390fd5b600060608673ffffffffffffffffffffffffffffffffffffffff1685876040518082805190602001908083835b602083106147fa57805182526020820191506020810190506020830392506147d7565b6001836020036101000a03801982511681845116808217855250505050505090500191505060006040518083038185875af1925050503d806000811461485c576040519150601f19603f3d011682016040523d82523d6000602084013e614861565b606091505b5091509150811561487657809250505061492b565b6000815111156148895780518082602001fd5b836040517f08c379a00000000000000000000000000000000000000000000000000000000081526004018080602001828103825283818151815260200191508051906020019080838360005b838110156148f05780820151818401526020810190506148d5565b50505050905090810190601f16801561491d5780820380516001836020036101000a031916815260200191505b509250505060405180910390fd5b949350505050565b6040518060600160405280600073ffffffffffffffffffffffffffffffffffffffff16815260200160008152602001600081525090565b6040518060800160405280600073ffffffffffffffffffffffffffffffffffffffff1681526020016000815260200160008152602001606081525090565b828054600181600116156101000203166002900490600052602060002090601f016020900481019282601f106149e957805160ff1916838001178555614a17565b82800160010185558215614a17579182015b82811115614a165782518255916020019190600101906149fb565b5b509050614a249190614af7565b5090565b828054600181600116156101000203166002900490600052602060002090601f016020900481019282601f10614a615780548555614a9e565b82800160010185558215614a9e57600052602060002091601f016020900482015b82811115614a9d578254825591600101919060010190614a82565b5b509050614aab9190614af7565b5090565b50805460018160011615610100020316600290046000825580601f10614ad55750614af4565b601f016020900490600052602060002090810190614af39190614af7565b5b50565b614b1991905b80821115614b15576000816000905550600101614afd565b5090565b9056fe456e756d657261626c655365743a20696e646578206f7574206f6620626f756e647352656a6563742066756e6374696f6e2063616e206f6e6c792062652063616c6c6564207768656e20696e204f66666572506c616365642073746174654552433732313a207472616e7366657220746f206e6f6e20455243373231526563656976657220696d706c656d656e7465724d616b654f666665722066756e6374696f6e2063616e6e6f742062652063616c6c656420627920746865206f776e65724f776e61626c653a206e6577206f776e657220697320746865207a65726f20616464726573734552433732313a207472616e7366657220746f20746865207a65726f20616464726573734163636570744f666665722066756e6374696f6e2063616e206f6e6c792062652063616c6c656420627920746865206f776e65724552433732313a206f70657261746f7220717565727920666f72206e6f6e6578697374656e7420746f6b656e4d616b654f666665722066756e6374696f6e2063616e206f6e6c792062652063616c6c6564207768656e206174204974656d417661696c61626c6520737461746552656a6563742066756e6374696f6e2063616e206f6e6c792062652063616c6c656420627920746865206f776e65724552433732313a20617070726f76652063616c6c6572206973206e6f74206f776e6572206e6f7220617070726f76656420666f7220616c6c4552433732313a2062616c616e636520717565727920666f7220746865207a65726f20616464726573734552433732313a206f776e657220717565727920666f72206e6f6e6578697374656e7420746f6b656e456e756d657261626c654d61703a20696e646578206f7574206f6620626f756e64734552433732313a20617070726f76656420717565727920666f72206e6f6e6578697374656e7420746f6b656e4d616b654f666665722066756e6374696f6e206e6565647320746f206861766520616e206f666665725072696365203e20304552433732313a207472616e73666572206f6620746f6b656e2074686174206973206e6f74206f776e4552433732314d657461646174613a2055524920717565727920666f72206e6f6e6578697374656e7420746f6b656e4552433732313a20617070726f76616c20746f2063757272656e74206f776e65724d616b654f666665722066756e6374696f6e2063616e6e6f742062652063616c6c6564207768656e2074686520627579657220646f65736e2774206861766520656e6f756768206d6f6e65794552433732313a207472616e736665722063616c6c6572206973206e6f74206f776e6572206e6f7220617070726f766564a26469706673582212207e561b7ac5dee43454f808d808f78e5b143fbff22c37b472ff7f4759576d392864736f6c63430006060033",
  "immutableReferences": {},
  "source": "pragma solidity ^0.6.0;\r\nimport \"../node_modules/@openzeppelin/contracts/token/ERC721/ERC721.sol\";\r\nimport \"../node_modules/@openzeppelin/contracts/access/Ownable.sol\";\r\n// import \"./ERC20.sol\";\r\nimport \"./ERC_777.sol\";\r\n\r\ncontract CardsMarket is ERC721, Ownable{\r\n    constructor() ERC721(\"NFT\",\"NFT\") public { }\r\n    struct Cards {\r\n        string name;\r\n        int aggressivity;\r\n        int defense;\r\n        uint quantity;\r\n        string description;\r\n        uint  Object_of_action;\r\n        int aggressivity_action;\r\n        int defense_action;\r\n        uint tokenid;\r\n    }\r\n    // mapping (address => uint256) public balanceOf;\r\n    string[24] public card_names = [\"\",\"\",\"\",\"\",\"\",\"\",\"\",\"\",\"\",\"\",\"\",\"\",\"\",\"\",\"\",\"\",\"\",\"\",\"\",\"\",\"\",\"\",\"\",\"\"];\r\n    int[24] public card_aggressivity = [9,2,3,3,2,1,3,8,1,3,5,3,4,6,2,5,1,4,3,5,2,0,7,6];\r\n    int[24] public card_defense = [7,5,4,6,5,3,6,7,5,4,4,2,3,6,3,5,7,1,3,2,2,3,4,6];\r\n    // string[24] public description = [];\r\n    \r\n    Cards[] public All_Cards;\r\n    mapping(uint256 => Cards) public map_cards;\r\n    function Create_The_Card (string memory _name, int _aggressivity, int _defense, uint _quantity,string memory _description, uint _Object_of_action, int _aggressivity_action, int _defense_action) public onlyOwner{\r\n        uint256 _tokenid = totalSupply();\r\n        All_Cards.push(Cards({name : _name, aggressivity : _aggressivity, defense : _defense, quantity:_quantity, description:_description, Object_of_action:_Object_of_action, aggressivity_action:_aggressivity_action,defense_action:_defense_action, tokenid:_tokenid}));\r\n        map_cards[_tokenid]=Cards({name : _name, aggressivity : _aggressivity, defense : _defense, quantity:_quantity, description:_description, Object_of_action:_Object_of_action, aggressivity_action:_aggressivity_action,defense_action:_defense_action, tokenid:_tokenid});\r\n        _safeMint(owner(), _tokenid);\r\n    }\r\n\r\n\r\n\r\n    enum StateType {\r\n      ItemAvailable,\r\n      OfferPlaced,\r\n      Accepted\r\n    }\r\n\r\n    string internal ApplicationName = \"SimpleMarketplace\";\r\n    string internal WorkflowName = \"SimpleMarketplace\";\r\n\r\n    event ContractCreated(string applicationName, string workflowName, address originatingAddress);\r\n    event ContractUpdated(string applicationName, string workflowName, string action, address originatingAddress);\r\n\r\n    // address[] public InstanceOwner;\r\n    // Cards[] public SaleCards;\r\n    // string public Description;\r\n    // uint[] public AskingPrice;\r\n    // StateType[] public State;\r\n    // InstanceBuyer[] public InstanceBuyer;\r\n    mapping (uint => Cards) SaleCards;\r\n    mapping (uint => StateType) State;\r\n    // uint[] public OfferPrice;\r\n    struct InstanceOwner{\r\n        address Owner_address;\r\n        uint Card_mapping_key;\r\n        uint AskingPrice;\r\n        string Description;\r\n    }\r\n    struct InstanceBuyer{\r\n        address Buyer_address;\r\n        uint Card_mapping_key;\r\n        uint offerPrize;\r\n    }\r\n    \r\n    // InstanceOwnerInstanceBuyermapping\r\n    mapping (uint => InstanceOwner) public AllInstanceOwner;\r\n    mapping (uint => InstanceBuyer) public AllInstanceBuyer;\r\n\r\n    //ERC20\r\n    // Ethermon20 ERC_20;\r\n\r\n    //ERC777\r\n    ERC777Token ERC_777;\r\n\r\n\r\n    function CreateDeal (uint Card_mapping_key, string memory description, uint price) public {\r\n         InstanceOwner memory newOwner = InstanceOwner({Owner_address:msg.sender, Card_mapping_key:Card_mapping_key, AskingPrice:price, Description:description});\r\n        // AllInstanceOwner[Card_mapping_key].Owner_address = msg.sender;\r\n        // AllInstanceOwner[Card_mapping_key].Card_mapping_key = Card_mapping_key;\r\n        // AllInstanceOwner[Card_mapping_key].AskingPrice = price;\r\n        // AllInstanceOwner[Card_mapping_key].Description = description;\r\n         AllInstanceOwner[Card_mapping_key]=newOwner;\r\n        SaleCards[Card_mapping_key]=map_cards[Card_mapping_key];\r\n        State[Card_mapping_key] = StateType.ItemAvailable;\r\n        // emit ContractCreated(ApplicationName, WorkflowName, msg.sender);\r\n    }\r\n\r\n    function MakeOffer(uint Card_mapping_key, uint offerPrice) public {\r\n        InstanceBuyer memory newBuyer;\r\n        newBuyer.Buyer_address = msg.sender;\r\n        newBuyer.Card_mapping_key = Card_mapping_key;\r\n        newBuyer.offerPrize = offerPrice;\r\n        if (offerPrice == 0) {\r\n            revert(\"MakeOffer function needs to have an offerPrice > 0\");\r\n        }\r\n\r\n        if (State[Card_mapping_key] != StateType.ItemAvailable) {\r\n            revert(\"MakeOffer function can only be called when at ItemAvailable state\");\r\n        }\r\n\r\n        if ((AllInstanceOwner[Card_mapping_key].Owner_address == msg.sender)) {\r\n            revert(\"MakeOffer function cannot be called by the owner\");\r\n        }\r\n        if(ERC_777.balanceOf(msg.sender) < AllInstanceOwner[Card_mapping_key].AskingPrice){\r\n            revert(\"MakeOffer function cannot be called when the buyer doesn't have enough money\");\r\n        }\r\n        AllInstanceBuyer[Card_mapping_key] = newBuyer;\r\n        State[Card_mapping_key] = StateType.OfferPlaced;\r\n\r\n        // emit ContractUpdated(ApplicationName, WorkflowName, \"MakeOffer\", msg.sender);\r\n    }\r\n\r\n    function Reject(uint Card_mapping_key, address ThisBuyer) public {\r\n        if (State[Card_mapping_key] != StateType.OfferPlaced) {\r\n            revert(\"Reject function can only be called when in OfferPlaced state\");\r\n        }\r\n\r\n        if (AllInstanceOwner[Card_mapping_key].Owner_address != msg.sender) {\r\n            revert(\"Reject function can only be called by the owner\");\r\n        }\r\n        delete AllInstanceBuyer[Card_mapping_key];\r\n        State[Card_mapping_key] = StateType.ItemAvailable;\r\n\r\n        // emit ContractUpdated(ApplicationName, WorkflowName, \"Reject\", msg.sender);\r\n    }\r\n\r\n    function AcceptOffer(uint Card_mapping_key, address ThisBuyer) public {\r\n        if (AllInstanceOwner[Card_mapping_key].Owner_address != msg.sender) {\r\n            revert(\"AcceptOffer function can only be called by the owner\");\r\n        }\r\n        //ERC20\r\n        // REC_20.approve(AllInstanceBuyer[Card_mapping_key].Buyer_address, AllInstanceOwner[Card_mapping_key].AskingPrice);\r\n        // ERC_20.transferFrom(AllInstanceBuyer[Card_mapping_key].Buyer_address,msg.sender,AllInstanceOwner[Card_mapping_key].AskingPrice);\r\n        // ERC_20.safeTransferFrom(AllInstanceBuyer[Card_mapping_key].Buyer_address,msg.sender,AllInstanceOwner[Card_mapping_key].AskingPrice);\r\n\r\n        //ERC777\r\n        ERC_777.approve(AllInstanceBuyer[Card_mapping_key].Buyer_address, AllInstanceOwner[Card_mapping_key].AskingPrice);\r\n        ERC_777.transferFrom(AllInstanceBuyer[Card_mapping_key].Buyer_address, msg.sender, AllInstanceOwner[Card_mapping_key].AskingPrice);\r\n        approve(AllInstanceBuyer[Card_mapping_key].Buyer_address, Card_mapping_key);\r\n        safeTransferFrom(msg.sender,AllInstanceBuyer[Card_mapping_key].Buyer_address,Card_mapping_key);\r\n        State[Card_mapping_key] = StateType.Accepted;\r\n        delete AllInstanceOwner[Card_mapping_key];\r\n        delete AllInstanceBuyer[Card_mapping_key];\r\n        delete SaleCards[Card_mapping_key];\r\n        // emit ContractUpdated(ApplicationName, WorkflowName, \"AcceptOffer\", msg.sender);\r\n    }\r\n    // function FindOwnerByCardMappingKey(uint Card_mapping_key) public{\r\n    //     int i=0;\r\n    //     InstanceBuyer Owner = AllInstanceOwner[Card_mapping_key];\r\n    //     return Owner;\r\n    // }\r\n}",
  "sourcePath": "/var/www/html/ChainsMafia/contracts/CardsMarket.sol",
  "compiler": {
    "name": "solc",
    "version": "0.6.6+commit.6c089d02.Emscripten.clang"
  },
  "schemaVersion": "3.2.5",
  "updatedAt": "2020-10-06T06:32:45.770Z",
  "devdoc": {
    "methods": {
      "approve(address,uint256)": {
        "details": "See {IERC721-approve}."
      },
      "balanceOf(address)": {
        "details": "See {IERC721-balanceOf}."
      },
      "baseURI()": {
        "details": "Returns the base URI set via {_setBaseURI}. This will be automatically added as a prefix in {tokenURI} to each token's URI, or to the token ID if no specific URI is set for that token ID."
      },
      "getApproved(uint256)": {
        "details": "See {IERC721-getApproved}."
      },
      "isApprovedForAll(address,address)": {
        "details": "See {IERC721-isApprovedForAll}."
      },
      "name()": {
        "details": "See {IERC721Metadata-name}."
      },
      "owner()": {
        "details": "Returns the address of the current owner."
      },
      "ownerOf(uint256)": {
        "details": "See {IERC721-ownerOf}."
      },
      "renounceOwnership()": {
        "details": "Leaves the contract without owner. It will not be possible to call `onlyOwner` functions anymore. Can only be called by the current owner.     * NOTE: Renouncing ownership will leave the contract without an owner, thereby removing any functionality that is only available to the owner."
      },
      "safeTransferFrom(address,address,uint256)": {
        "details": "See {IERC721-safeTransferFrom}."
      },
      "safeTransferFrom(address,address,uint256,bytes)": {
        "details": "See {IERC721-safeTransferFrom}."
      },
      "setApprovalForAll(address,bool)": {
        "details": "See {IERC721-setApprovalForAll}."
      },
      "supportsInterface(bytes4)": {
        "details": "See {IERC165-supportsInterface}.     * Time complexity O(1), guaranteed to always use less than 30 000 gas."
      },
      "symbol()": {
        "details": "See {IERC721Metadata-symbol}."
      },
      "tokenByIndex(uint256)": {
        "details": "See {IERC721Enumerable-tokenByIndex}."
      },
      "tokenOfOwnerByIndex(address,uint256)": {
        "details": "See {IERC721Enumerable-tokenOfOwnerByIndex}."
      },
      "tokenURI(uint256)": {
        "details": "See {IERC721Metadata-tokenURI}."
      },
      "totalSupply()": {
        "details": "See {IERC721Enumerable-totalSupply}."
      },
      "transferFrom(address,address,uint256)": {
        "details": "See {IERC721-transferFrom}."
      },
      "transferOwnership(address)": {
        "details": "Transfers ownership of the contract to a new account (`newOwner`). Can only be called by the current owner."
      }
    }
  },
  "userdoc": {
    "methods": {}
  }
}